:020000040800F2
:10000000B86800205D020008214C00080F36000887
:10001000DD4100081D0C00087D660008000000009E
:100020000000000000000000000000009D0100082A
:10003000B10E000800000000F9010008595F000837
:1000400077020008770200087702000877020008AC
:10005000770200087702000877020008770200089C
:10006000770200087702000877020008D10D000827
:10007000DD0D00087702000877020008770200080B
:10008000770200087702000877020008770200086C
:10009000210C0008770200087702000877020008A8
:1000A000770200087702000877020008770200084C
:1000B000770200087702000877020008770200083C
:1000C000770200087702000877020008770200082C
:1000D000770200087D650008770200089565000832
:1000E000770200087702000877020008770200080C
:1000F00077020008770200087702000877020008FC
:1001000077020008770200087702000877020008EB
:1001100077020008156300087702000835600008C0
:10012000E90D0008F50D0008010E0008770200082F
:1001300077020008000000000000000077020008BD
:100140002D0C0008770200087702000877020008EB
:10015000770200087702000877020008AD65000802
:10016000770200087702000877020008770200088B
:10017000770200087702000800000000000000007D
:100180007702000877020008DFF80CD000F080FB4F
:1001900000480047DD6F0008B86800202C4B196844
:1001A0000868B0E8F04F80F30988BFF36F8F4FF015
:1001B000000080F3118870470000000008480068C4
:1001C000006880F308884FF0000080F3148862B65E
:1001D00061B6BFF34F8FBFF36F8F00DF00BF00BF6B
:1001E00008ED00E0DFF80C00016841F470010160E7
:1001F000704700BF88ED00E0EFF30980BFF36F8F19
:10020000134B1A681EF0100F08BF20ED108A20E96A
:10021000F04F106009B44FF0500080F31188BFF325
:100220004F8FBFF36F8F07F0CBFA4FF0000080F3D2
:10023000118809BC19680868B0E8F04F1EF0100F6B
:1002400008BFB0EC108A80F30988BFF36F8F704746
:1002500040000020EFF3058070470000064880470B
:1002600006480047FEE7FEE7FEE7FEE7FEE7FEE79B
:10027000FEE7FEE7FEE7FEE71960000889010008D7
:100280002DE9F05F0546002092469B4688460646CB
:10029000814640241BE0284641464746224600F05E
:1002A00041FA53465A46C01A914110D31146184696
:1002B000224600F028FA2D1A67EB01084F46224625
:1002C0000120002100F01FFA17EB00094E41201E0B
:1002D000A4F10104DFDC484631462A464346BDE826
:1002E000F09F40EA01039B0703D009E008C9121FF1
:1002F00008C0042AFAD203E011F8013B00F8013BE0
:10030000521EF9D27047D2B201E000F8012B491E0B
:10031000FBD270470022F6E710B513460A460446A2
:100320001946FFF7F0FF204610BD2DE9FE4F80462D
:1003300081EA0300C00F0C46009021F0004123F039
:100340000045B8EB0200A94105D24046214690463F
:100350001C460B46024623F00040104347D0270DB1
:10036000C7F30A00C3F30A510290401A01904028D3
:100370006BDAC3F3130040F4801B0098924620B15F
:100380000023D2EB030A63EB0B0B01985946C0F133
:100390004002504600F0B7F906460D465046594611
:1003A000019A00F0CFF910EB08006141002487EAC0
:1003B000115284EAE7731A4340D0009A62B3019A5B
:1003C000012A4FEA075215DC001B61EB02014FF0D6
:1003D000004202EA0752CDE90042001C41F58011BB
:1003E00032462B4600F006FA03B0BDE8F08F4046D7
:1003F0002146F9E7001B61EB0201001C41F5801367
:1004000000185B412018A2F5001747EB030140EAF2
:10041000D570B6196D4111E06D084FEA360645EA10
:10042000C0754FEA0752001B61EB0201001C41F549
:10043000801149084FEA30000019514132462B46DD
:1004400003B0BDE8F04F00F0C6B9009801224000AB
:100450000023D0EB020263EBE073009821464FEAE1
:10046000E074B8EB000061EB0401E9E783F00043BE
:100470005BE781F0004158E72DE9FE4F81EA030474
:1004800004F0004421F0004100944FF0000B23F0F1
:10049000004350EA01045ED052EA03045BD0C3F388
:1004A0000A54C1F30A552C44A4F2F3340194A0FB7E
:1004B0000254C1F3130141F48011C3F3130343F455
:1004C000801301FB024400FB034E840A970A44EAAE
:1004D000815447EA8357A4FB076802958D0A05FB00
:1004E00007854FEA932C04FB0C542705029D4FEA25
:1004F000065847EA1637B5EB08056EEB070C870E72
:10050000920E47EA811742EA8312A7FB0201B6EB7B
:100510000B0164EB00042B0D43EA0C335E1844EB33
:100520001C50DA465146E7FB0201C5F313044FEABB
:100530000B3343EA14534FEA0432019C43EA0603A7
:10054000A4F10C040294009CCDE900B400F052F92F
:1005500003B0BDE8F08F00200146F9E72DE9F04D2A
:1005600081EA030404F0004B21F0004514464FF0EB
:10057000000A23F0004150EA050220D054EA0102AB
:100580001DD0C5F30A570246C5F31303C1F3130088
:10059000C1F30A5640F4801543F48013A7EB060814
:1005A000101BD64608F2FD3873EB050002D308F1A4
:1005B000010801E092185B41B8F1000F03DA002056
:1005C0000146BDE8F08D00204FF4801106468446B8
:1005D0000EE0171B73EB050705D3121B63EB050336
:1005E00006434CEA010C49084FEA300092185B417F
:1005F00050EA0107EDD152EA030012D082EA04006A
:1006000083EA0501084305D0101BAB4106D2012245
:10061000002306E000224FF0004302E06FF00102E9
:1006200053101AEB06004CEB085110EB0A0041EB9B
:100630000B01BDE8F04D00F0CEB80EB5C10F80EA59
:10064000E0700844CA07002140F233438DE80E00F1
:100650000A460B4600F0CEF803B000BD0EB540F2DE
:10066000334102910021CDE900110A460B4600F00A
:10067000C1F803B000BDC1F30A5210B5C1F31301B4
:1006800040F2FF3341F480119A4201DA002010BD9C
:1006900040F233439A42A2F2334203DC524200F06A
:1006A00041F810BD904010BD00F0004230F0004015
:1006B0000AD0C10D01F56071C0F3160042EA015184
:1006C000C20840071143704700200146704701F0FF
:1006D000004330B421F0004150EA010206D00A0D77
:1006E000A2F56072C1F31301002A02DC30BC0020C5
:1006F0007047440F44EAC104C100E01830BC00EB6D
:10070000C25000F031B8202A04DB203A00FA02F18E
:10071000002070479140C2F1200320FA03F31943EF
:1007200090407047202A04DB203A21FA02F0002191
:10073000704721FA02F3D040C2F1200291400843F1
:1007400019467047202A06DBCB17203A41FA02F0FF
:1007500043EAE07306E041FA02F3D040C2F120021E
:1007600091400843194670470029A8BF7047401CB4
:10077000490008BF20F00100704710B4B0FA80FCB7
:1007800000FA0CF050EA010404BF10BC704749B1F4
:10079000CCF1200421FA04F411FA0CF118BF012164
:1007A00021430843A3EB0C01CB1D4FEA00614FEA44
:1007B000102042BF002010BC704700EBC350104413
:1007C0000029A4BF10BC7047401C490008BF20F09E
:1007D000010010BC704710B5141E73F1000408DA54
:1007E000401C41F1000192185B411A4301D120F0F5
:1007F000010010BD2DE9F04D92469B4611B1B1FAB2
:1008000081F202E0B0FA80F220329046FFF77BFFDF
:1008100004460F4640EA0A0041EA0B0153465A4695
:10082000084313D0114653EA010019D0C8F1400221
:100830005046FFF777FF05460E465046594642465A
:10084000FFF761FF084305D0012004E02046394648
:10085000BDE8F08D0020054346EAE0762C4337439F
:100860000A986305E40AA0EB08000022FD0A44EAA6
:1008700047540A3002D500200146E9E70105101966
:100880006941DDE9084500196941BDE8F04DA2E77D
:10089000064C074D06E0E06840F0010394E80700CD
:1008A00098471034AC42F6D3FFF772FC6886000814
:1008B0008886000870B58C1810F8015B15F00703E6
:1008C00001D110F8013B2A1106D110F8012B03E0E9
:1008D00010F8016B01F8016B5B1EF9D12B0705D4F1
:1008E0000023521E0DD401F8013BFAE710F8013B3A
:1008F000CB1A921C03E013F8015B01F8015B521E56
:10090000F9D5A142D8D3002070BD0000464910B5EA
:100910004A6822F440324A604A6843681A434A608F
:1009200001684A6822F480724A6001684A68036973
:1009300042EA03224A6001684A6822F040724A6033
:1009400001684A6883681A434A6001688A6822F429
:1009500000628A6001688A68C3681A438A60816A93
:100960006FF07062D14201688A6822F070628A601A
:1009700001688A680CD0836A1A438A6001688A68B1
:1009800022F040528A6001688A68C36A1A4301E013
:1009900022F040528A6001688A6822F002028A606E
:1009A00001688A68037E42EA43028A6090F8201058
:1009B000002901684A680FD042F400624A60016869
:1009C0004A6822F460424A6001684A68174C436AE8
:1009D00004EB43331A4301E022F400624A600168E9
:1009E000CA6A22F47002CA620168CA6A838B104C18
:1009F00004EB03531A43CA6201688A6822F4007246
:100A00008A6001688A6890F8303042EA43228A603E
:100A100001688A6822F480628A6001688A68406995
:100A200042EA8020886010BD0023014000E0FFFF03
:100A30000000F0FF04490968884203D199B21046CA
:100A400000F004B870470000CC00002070B50D46DF
:100A50000646164C01F04AFC60602A463146A4F175
:100A6000C800FFF73EFC2946304600F0BFF8A8B1A9
:100A7000A4F1C80100204A780D4900BF51F8303078
:100A80009A420ED101EBC0035B6853B101EBC00089
:100A90004168BDE870400548C83808470320207009
:100AA00070BD401C0D28E9DD70BD000030640020E1
:100AB00044010020004870473064002010B500F069
:100AC00019F8082301221221094800F001F9084809
:100AD000082301221121183000F0FAF804480823F5
:100AE00001221321BDE81040303000F0F1B80000C1
:100AF0006C64002010B5114C01F0F8FB44F8040FB1
:100B000000209FED0F0AA07484ED050A84ED060A0B
:100B100084ED070A84F8200084ED090A84ED0A0AAE
:100B2000312184F82C10012184F82D10422184F801
:100B30002E1084ED0C0A84F8340010BD30640020BF
:100B4000000000002DE9F04100F032F8114D0420C2
:100B5000287001F0CBFB064600240F4FDFF83C80E5
:100B600005E000BF01F0C2FB801B02280FD23868ED
:100B700000F085FE0028F5D008EBC400416809B1FB
:100B800007488847641C072CF1DB01202870BDE86A
:100B9000F081000030640020CC000020AC01002077
:100BA000A0620020FFF7CEFF042006F04CFAF9E720
:100BB00070B50D4C02F0F8FD054600F0F1FAC17D6C
:100BC000891CA17590ED040A84ED060A95ED040ACE
:100BD00084ED070A95ED020A84ED080A95ED050AF1
:100BE00084ED0D0A70BD00003064002030B502783D
:100BF0005A2A11D14218002312F8014C1A46491EF4
:100C000003E0855C521C2B449BB28A42F9DBD8B2CC
:100C1000A04201D1012030BD002030BDFEE7000020
:100C2000014800F042BE0000A0050020014800F08D
:100C30003CBE0000C805002038B504460020ADF8D1
:100C40000000A078E17800EB012085B2232D09D1C6
:100C500004222146684606F0A7F82A46A11D6846E8
:100C600006F0A2F8A088BDF80010884201D000204C
:100C700038BD012038BD000010B50446134A0020DD
:100C80000E218AB0944201D1059000E00591012225
:100C9000CDE9060203900490CDE90821009001906F
:100CA00002906946204600F0EFFC00B1FEE72046C6
:100CB00001F020F800B1FEE70221204600F06EFCB2
:100CC000002800D0FEE70AB010BD0000A0050020FB
:100CD000C0E900120021C1600361816001757047A5
:100CE00070B50C460B69154606460968FFF7A2FE6B
:100CF0002A46304623692168BDE8704003F0CCBC29
:100D000008B56B4600F05CFC002800D0FEE708BD8B
:100D1000012006F098F9FBE738B500242346224667
:100D200011491248009403F038FE0F4900231A4677
:100D3000F0310F48009403F030FE00231A460D49AD
:100D40000D48009403F029FE0A4900231A46F031A9
:100D50000A48009403F021FE00231A460849094876
:100D6000009403F01AFE38BD807E0008985A0020D7
:100D7000885B002060800008785C0020685D0020AF
:100D800040820008585E002038B5002423462246E1
:100D90000A490B48009403F000FE084900231A4654
:100DA000F0310848009403F0F8FD00231A46064984
:100DB0000648009403F0F1FD38BD000030830008C0
:100DC000A85F00209860002010850008886100203E
:100DD000014801F039B8000004090020014801F081
:100DE00033B80000C4090020014801F02DB800000C
:100DF00040050020014801F027B80000240A002027
:100E0000014801F021B8000064090020016818239E
:100E1000CAB2103AB2FBF3F2054B6FF30901032A91
:100E20009B5CC36500D9091D8165084670470000B9
:100E3000207E000810B5014600208B698A6A4FF0B9
:100E4000C07453B1B3F5005F15D072B1012A0CD054
:100E5000022A0AD0032A09D104E01AB1012A06D0D5
:100E6000022A03D1C96AC90100D5012010BDC96A8F
:100E7000A142FAD010BD002AF7D0012AF2D0022AEE
:100E8000F3D0032AF3D010BD30B50468256825F4EB
:100E900080252560046863608368402B036803D065
:100EA00099600068C26030BD9A600068C16030BD62
:100EB000704772B6FEE7000010B504462DED0A8BB0
:100EC0005FF0030004EBC001401E002891ED061BFB
:100ED00081ED081B11ED021B81ED001BF2DC10EE11
:100EE000100AFFF7E1FBC4E9080194ED060B9FED42
:100EF000321B51EC100B53EC112BFFF7BDFA94EDA4
:100F0000040B9FED2F1B41EC190B53EC112B51ECF3
:100F1000100BFFF7B1FA94ED020B9FED2B1B41EC88
:100F2000180B53EC112B51EC100BFFF7A5FA94EDB5
:100F30000E0B9FED271B41EC1A0B53EC112B51ECC0
:100F4000100BFFF799FA94ED0C0B9FED231B41EC6E
:100F50001B0B53EC112B51EC100BFFF78DFA94ED9A
:100F60000A0B9FED1F1B41EC1C0B53EC112B51EC9A
:100F7000100BFFF781FA53EC1C2BFFF7D6F953EC5B
:100F80001B2BFFF7D2F953EC1A2BFFF7CEF953ECDA
:100F9000182BFFF76BFA53EC192BFFF7C6F941EC4E
:100FA000100B84ED000BFFF792FB206400EE100A9B
:100FB000BDEC0A8B10BD0000401361C3D32BE93F89
:100FC000D122DBF97E6A04401F85EB51B81E064032
:100FD0005816F142DF82213F0DA661F88898423F02
:100FE0007B979C24A7C0233FD0ED010AF5EEC00AF1
:100FF000F1EE10FA29DD10EE902AB2F17E5F24DCCA
:10100000B7EE001AD1ED011A31EE601A21EE211A65
:1010100000EE801A81ED001A81ED011A90ED020AAE
:10102000B5EEC00AF1EE10FA0DDDD0ED010A9FED2C
:10103000071A20EE010A9FED061A20EE010A80EE43
:10104000801A80ED001A91ED000A7047DB0FC9404D
:101050006F12833A80ED010A704781880068002290
:1010600001F03EB981880068012201F039B9000021
:1010700003484078012802D1024803F013BD7047AD
:10108000485F0020004B002004490A7D4A7508751E
:10109000824201D00120887570470000485F00201F
:1010A00070B502F081FB06462B4C03F007F920785F
:1010B00000284FD0A07D012804D1284803F0DCFC93
:1010C0000020A075207D052811D2DFE800F003067E
:1010D000080B0D00204DF03D0BE0214D09E0204DA7
:1010E000F03526E01F4D04E01D4DF03D01E00228E3
:1010F0001FD096ED050A84ED010A96ED030A00BFA4
:1011000084ED020A94ED030A144803F078FD94ED8F
:10111000010A0221114803F05FFD94ED020A01214A
:101120000E4803F059FD2946BDE870400B4803F016
:1011300019BA0A480C4990ED450AD1ED000A30EE83
:10114000600A84ED010AB0F9020100EE100AB8EE5F
:10115000C00AD5E770BD0000485F00201C53002086
:10116000785C0020985A0020747E00080B480178B3
:10117000002911D0017D05290ED2DFE801F0030519
:1011800007090B00012106E0022104E0032102E02F
:10119000042100E00521C17570470000485F002070
:1011A00000487047485F002010B502F0FDFA0F4973
:1011B00004460120487008700020887502200875D8
:1011C00048750320C8750A494FF47A60A1F80001F8
:1011D000FFF7A2FD204602F0EBFA40F6B83000F02F
:1011E00091FFBDE810400020FFF74EBF485F002090
:1011F0001C5300200F48D0ED030A0F4890ED001A51
:10120000F4EEC10AF1EE10FA04DDB5EEC00AF1EE1B
:1012100010FA0CDC094890ED001AF4EEC10AF1EE68
:1012200010FA06D2B5EEC00AF1EE10FA01D29FED27
:10123000040A7047485F0020687E00086C7E000842
:101240000000000010B52DED028BB0EE408AFFF7D4
:1012500031FC154A90F824101278914221D090ED7B
:10126000020A1248D0ED000AF1EE600AB4EEE00A7C
:10127000F1EE10FA04D2B5EEC08AF1EE10FA0BDCF2
:10128000D0ED000AB4EEE00AF1EE10FA09DDB5EE99
:10129000C08AF1EE10FA04D29FED050ABDEC028B74
:1012A00010BDB0EE480AF9E705860008707E000818
:1012B0000000000070B50C4C2DED028BB0EE408AA2
:1012C00002F072FA054602F0F9FF95ED050AF7EE15
:1012D000000A30EE080A30EE600AFFF78BFF84ED5B
:1012E000030ABDEC028B70BD485F00200348D0EDBF
:1012F000030A30EE800A80ED030A7047485F002041
:1013000070B50A4C2DED028BB0EE408A02F04CFA1B
:10131000054602F0D3FF95ED040A30EE480AFFF7C8
:1013200091FF84ED040ABDEC028B70BD485F002084
:101330000348D0ED040A30EEC00A80ED040A70477D
:10134000485F002002F086FFFFF7AAFEFFF70EFFBE
:10135000FFF78EFE012005F076FEF3E778B5002456
:10136000009490F83C20012A19D0012280F83C20FA
:101370000A6807230568092A13D9EE680A3A02EBBE
:10138000420293409E43EE600B788A680A3B03EB6F
:1013900043039A400368DD682A43DA6010E00220C4
:1013A00078BD2E6902EB420293409E432E610B787A
:1013B0008A6803EB43039A4003681D692A431A6154
:1013C0004A681F23072A13D205686E6B521E02EB70
:1013D000820293409E436E630B790A885B1E92B231
:1013E00003EB83039A4003685D6B2A435A6327E04B
:1013F00005680D2A12D22E6BD21F02EB8202934097
:101400009E432E630B790A88DB1F92B203EB8303A2
:101410009A4003681D6B2A431A6311E0EE6A0D3A85
:1014200002EB820293409E43EE620B790A880D3BE9
:1014300092B203EB83039A400368DD6A2A43DA62BF
:10144000164B0568144A9D4206D10D68122D03D132
:10145000556845F48005556005689D4218D10B68B4
:10146000102B01D0112B13D1536843F400035360A8
:10147000096810290CD10A490A4A0968B1FBF2F13E
:1014800001EB8101490000E0491E00910029FBD1D8
:1014900080F83C40002078BD00230140002001403E
:1014A0003C00002040420F0070B504004FF00005E2
:1014B00003D0206C002610B107E0012070BD20464B
:1014C00000F01CF8666484F83C60206CC00610D400
:1014D000206C20F4885040F0020020642046FFF782
:1014E00015FA6664206C20F0020040F001002064D0
:1014F00000E0012584F83C60284670BDF0B587B057
:10150000064614216846FEF705FF1F4930688842E9
:1015100038D11E480025016841F4807101600068DF
:1015200000F48070059019481438016841F00101F9
:1015300001600068032700F0010005902C20CDE930
:10154000000769460295124800F0EEFD124C114862
:10155000C4E900050015A560C4E90350800060617E
:101560008000A0618011C4E9070504206062C4E91D
:101570000A752046256300F037FD08B1FFF799FC96
:10158000B463A66307B0F0BD0020014044380240B8
:1015900000000240106402404005002090F8202026
:1015A000012A07D0022A05D0416A41F48021416214
:1015B00001207047006842690A4342610020704779
:1015C000F0B590F820500468A468012D05D0022DD4
:1015D00003D0416A41F4802153E014F0406F01D1FF
:1015E000E5004BD5C4F30164022C03D9416A41F4F0
:1015F000000146E00125A5401D608D684FF4C073D1
:101600009DB1CE6835434E6845EAC605066803EBD2
:101610000417F5514FF4C275076805EB04150E6900
:101620007E51097D012905D009E00E88CD6845EA83
:101630004655EBE701684E5946F480764E511179D4
:10164000D2F805504FF4C67641EA0525016806EB4D
:1016500004168D511178D2F801204FF4C47541EA77
:101660000221026805EB04155151006803EB0411D7
:10167000425842F0010242500020F0BD416A41F45C
:10168000001141620120F0BD10B590F82020012A20
:1016900007D0022A05D0416A41F48021416201202D
:1016A00010BD3B48D0F8002242F00102C0F80022F1
:1016B000D0F8002222F47C52C0F80022D0F8002298
:1016C0004B6A42EA0322C0F800220A7D02F01F039F
:1016D00001229A40D0F81C329343C0F81C32CB69E7
:1016E000B3B9D0F80C329343C0F80C328C894B68F4
:1016F00064F31F434C6900EBC404C4F840320C8906
:101700000B6864F31F434C6900EBC404C4F8443213
:10171000CB69012B16D1D0F80C321343C0F80C3230
:101720000C884B6864F31F434C6900EBC404C4F895
:1017300040320C89CB6864F31F434C6900EBC4044E
:10174000C4F844328B69002BD0F804320ED0134316
:10175000C0F804320B69002BD0F8143208D01343C0
:10176000C0F81432096A012904D008E09343EFE776
:101770009343F5E7D0F81C121143C0F81C12D0F8BF
:10178000001221F00101C0F80012002010BD00007D
:1017900000640040704730B590F82040012C05D01F
:1017A000022C03D0416A41F480215DE004680029E5
:1017B00055D02469A40754D04FF4D874056804EBBD
:1017C00001142D5915F00405956005682D594ED06A
:1017D000ED08556005682C5904F00204D4604FF4FC
:1017E000DA74056804EB01142D5905F00F05156135
:1017F00005682D59C5F30725956105682C59240CFA
:1018000054614FF4DC72046802EB0112A4581C709E
:101810000468A458240A5C700468A458240C9C70C2
:101820000468A258120EDA704FF4DE72046802EBFC
:101830000112A4581C710468A458240A5C7104683D
:10184000A458240C9C710468A258120EDA71006826
:1018500081B1016941F020010161002030BDE468DF
:10186000A8E7416A41F400114162012030BD6D0DCD
:101870001560AFE7C16841F02001C160EDE70246A5
:10188000002092F82010012901D002290CD1116802
:101890008A68520100D501208A68120100D5401CD7
:1018A0008968C90000D5401C70472DE9F05F0546E6
:1018B000006800244669D0F804908768D0F80CB01E
:1018C000D0F810A0D0F81880F10748D0F90714D04C
:1018D00001218160B80703D5284600F038FA0CE0F2
:1018E000780702D54FF4006407E0380702D54FF4BB
:1018F000805402E0284600F029FAF80516D5296838
:101900004FF480708860B80503D5284600F021FAAE
:101910000CE0780502D544F4005407E0380502D500
:1019200044F4804402E0284600F012FAF80316D589
:1019300029684FF480308860B80303D5284600F04A
:101940000AFA0CE0780302D544F4004407E03803B7
:1019500002D544F4803402E0284600F0FBF9300759
:1019600007D55FEACB6004D52968102044F40074E1
:10197000C86070074FF0080707D55FEA0B7004D501
:101980002868C760284600F09BF9B00706D528688C
:10199000C068800702D0284600F094F9700607D589
:1019A0005FEACA6004D52968102044F480640861A5
:1019B000B00607D55FEA0A7004D528680761284693
:1019C00000F094F9F00606D528680069800702D077
:1019D000284600F08CF9B00308D55FEAC96005D548
:1019E000296810204860284600F082F9F00307D5E6
:1019F0005FEA097004D528684760284600F0ACF912
:101A0000300446D55FEA497040D5F00504D55FEA59
:101A1000C87001D044F00104B00504D55FEA8870B5
:101A200001D544F00204700504D55FEA487001D581
:101A300044F00404300529D518F0700F26D008F0C2
:101A40007000402815D006DC102809D020280AD0C4
:101A5000302816D10AE050280ED0602811D10EE0AF
:101A600044F008040DE044F010040AE044F02004BF
:101A700007E044F0400404E044F0800401E044F452
:101A800080742868816921F07001816129680420CF
:101A90004860002C05D0686A204368622846FFF73A
:101AA00079FEBDE8F09F70B5040003D094F82000E3
:101AB00010B104E0012070BD204600F081F82068DC
:101AC000016821F00201016000F010FC05460526C6
:101AD00004E000F00BFC401B0A2811D82068406885
:101AE0008007F6D42068016841F00101016000F030
:101AF000FDFB05460BE000F0F9FB401B0A2806D968
:101B0000606A40F40030606284F82060D2E72068A8
:101B10004068C007EFD0207E0128206801683DD0D2
:101B200021F080010160607E01282068016838D0C2
:101B300021F040010160A07E01282068016833D0B7
:101B400021F020010160E07E0128206801682ED08C
:101B500041F010010160207F01282068016829D030
:101B600021F008010160607F01282068016824D00D
:101B700021F004010160D4E902010843D4E9041210
:101B8000114308436168491E08432168C861002069
:101B90006062012084F82000002070BD41F08001C7
:101BA000C0E741F04001C5E741F02001CAE721F05C
:101BB0001001CFE741F00801D4E741F00401D9E773
:101BC000F0B587B0044614216846FEF7A3FB374BF7
:101BD0003748DFF8D4E01968D4F800C0344A022549
:101BE0000326092710300024491CF44524D119602C
:101BF000012907D1016841F000710160006800F01F
:101C000000700590106840F001001060106802AB91
:101C100000F0010005904FF4C050CDE9000583E8C5
:101C2000D0006946234800F07FFA002205211420E5
:101C300000F0E8FB142033E0DFF87CE0F44531D11C
:101C4000D0F800C04CF0806CC0F800C0D0F800C0E4
:101C500001290CF0806CCDF814C0196007D101681F
:101C600041F000710160006800F00070059010689C
:101C700040F002001060106802AB00F00200059016
:101C80004FF44050CDE9000583E8D00069460B4889
:101C900000F04AFA00220521402000F0B3FB40206A
:101CA00000F0A2FB07B0F0BD006400402C00002053
:101CB000303802400000024000680040000402404A
:101CC0007047000010B5084B0446A3F11C02002128
:101CD000FFF761FD00B1FEE7034A2046BDE8104072
:101CE000A2F11C01FEF7FCBFD047002070477047EF
:101CF0007047000070B5044690F82000012804D019
:101D0000606A40F40020606218E0022084F820003D
:101D10002068016821F00101016000F0E7FA054642
:101D20000EE000BF00F0E2FA401B0A2808D9606A02
:101D300040F400306062052084F82000012070BD6E
:101D400020684068C007EDD1606270BD7047704781
:101D50007047704770477047704770B54379012BE3
:101D60001AD0012646710223037105682C6840F6DB
:101D7000FE7393409C43D1E900310B4393402343CE
:101D80002B6001680B68C0249440A3430B6006716C
:101D900000214171084670BD022070BD70B504007D
:101DA00003D02079002510B105E0012070BD6571D8
:101DB000204600F007F802202071256101202071E3
:101DC000002070BD10B586B0044614216846FEF7A9
:101DD000A1FA1149206888421CD1104800210268EC
:101DE00042F000520260006800F0005005900B487D
:101DF0001038026842F001020260006800F0010041
:101E00000590102000900320CDE9010169460448A7
:101E100000F08AF906B010BD00740040403802405E
:101E20000000024090F83510022903D0802141655E
:101E300001207047052180F835100068016821F005
:101E400001010160002070472DE9F84304464FF07E
:101E50000009CDF8009063484FF41651A56D006855
:101E6000B0FBF1F72E6894F85C10082000FA01F13D
:101E700031420FD021680A6852070BD50A6822F058
:101E800004020A6094F85C108840A860606D40F01D
:101E90000100606594F85C104FF0010808FA01F049
:101EA000304208D021684969090604D5A860606DF0
:101EB00040F00200606594F85C10042088403042D5
:101EC00008D021680968890704D5A860606D40F0D2
:101ED0000400606594F85C1010208840304218D0EF
:101EE00021680968090714D5A860206801684903BA
:101EF00004D50068000308D5A16C07E00168C90596
:101F000003D4016821F008010160216C09B1204669
:101F1000884794F85C1020208840304231D02168F6
:101F20000968C9062DD5A86094F8350005282068F1
:101F3000016806D0490347D5006800031DD4616CD1
:101F40001CE021F0160101602068416921F0800148
:101F50004161206C08B9A06C20B12068016821F0B3
:101F60000801016094F85C103F208840A86084F864
:101F7000349084F83580216D1FE0E16B09B1204673
:101F80008847606D00282BD0606DC00714D00520F5
:101F900084F835002068016821F001010160009893
:101FA000401C0090B84203D820680068C007F6D1F2
:101FB00084F8349084F83580E16C002910D001B0A9
:101FC0002046BDE8F04308470168C905D5D401683B
:101FD00021F01001016084F8349084F83580CCE75A
:101FE000BDE8F8833C0000202DE9F041044600F0F4
:101FF0007DF906465CB1002584F83450022084F84F
:1020000035002068016821F0010101600DE0012028
:10201000BDE8F08100F06AF9801B052805D9202071
:102020006065032084F83500F2E720680068C00787
:10203000F0D12268116820480140D4E90103184317
:10204000D4E903363343184363691843A36918433B
:10205000E3691843236A18430843616A042903D1DA
:10206000D4E90B1319430843106020684069666A7D
:1020700020F0070130460E43012704280CD1A06A46
:102080000643E06A40B12046FEF7D4FE20B140206E
:10209000606584F83570BAE7206846612046FEF72F
:1020A000B5FE94F85C203F2191408160656584F81D
:1020B00035700020ACE700003F8010F070B504469A
:1020C00090F83400002501280CD0012084F8340059
:1020D00094F835600020012E06D084F834000225E3
:1020E000284670BD022070BD022684F83560606508
:1020F0002046FEF7C9FE2068016841F00101016039
:10210000EEE7000070B5044600F0F0F80546601CEC
:1021100002D004480078044400F0E8F8401BA042D4
:10212000FAD370BD300000202DE9F84F00224FF0A7
:10213000010803254FF00F0E0B6808FA02F4234044
:10214000A3426ED14E68012E05D0022E03D0112E6F
:1021500001D0122E12D186684FEA420C05FA0CF714
:10216000BE43CF6807FA0CF7374387604668A6433B
:102170000C79C4F30014944034434460C66857009B
:1021800005FA07FC8C6826EA0C06BC403443C460A0
:102190004C68022C01D0122C13D1D40800EB84041B
:1021A000A346D4F8209054074FEAD46A0EFA0AF6F0
:1021B00029EA06090E6906FA0AF646EA0906CBF884
:1021C000206006680C7926EA0C0604F00304BC4083
:1021D000344304604C68E40065D5364C266846F408
:1021E00080462660246822F0030604F480440094AC
:1021F000314C3444A446D4F808489607370F0EFAF9
:1022000007F6B4432D4EB04201D1002624E02C4EF7
:10221000B04201D101261FE02A4EB04202D102266F
:102220001AE040E0284EB04201D1032614E0274EC8
:10223000B04201D104260FE0254EB04201D105265F
:102240000AE0244EB04201D1062605E0224EB042FB
:1022500001D1072600E00826BE402643CCF80868D6
:102260001E4E34684F689C43FF0300D51C43346006
:102270001A4C241D26684F689E43BF0300D51E4399
:102280002660164E083634684F689C43FF0200D51E
:102290001C433460114E0C3634684F689C43BF02B7
:1022A00000D51C433460521C102AFFF445AFBDE832
:1022B000F88F000044380240003001400000024026
:1022C0000004024000080240000C024000100240DE
:1022D0000014024000180240001C0240003C014073
:1022E0000AB1816170470904FBE70000014880687A
:1022F00070470000300000200248816802781144D5
:1023000081607047300000200B4810B5016841F42F
:1023100000710160016841F480610160016841F46D
:1023200080710160032000F08DF8002000F006F8B5
:1023300000F03EF8002010BD003C024010B5014600
:1023400088B00022372000F05DF8372000F04CF80C
:1023500013480024016841F020010160006805A9CC
:1023600000F020000690684600F018F900F036F9F9
:102370000C494000B0FBF1F10C480B4A491E0260C9
:1023800040F2E732C0E90324C0E9011400F070FB19
:1023900010B1012008B010BD044800F0D5FBF9E7EA
:1023A0004038024040420F0000140040840A0020E0
:1023B0000C4882B0016841F480410160006800F47B
:1023C000804000900748001F016841F08051016083
:1023D0000068002200F0805000900F21901E02B093
:1023E00000F010B844380240002809DB00F01F025A
:1023F000012191404009800000F1E020C0F8001167
:1024000070470000F0B40E4B1B680C46C3F3022368
:10241000C3F10705042D00D90425191D072901D290
:10242000002300E0DB1E012606FA05F1491E2140CB
:1024300099409E40761E16403143F0BC04F026B908
:102440000CED00E0064900F0070208684FF6FF03B4
:10245000184040EA0220034A104308607047000019
:102460000CED00E00000FA052DE9F0470E460500EE
:1024700065D0DFF81481D8F80000F7B200F00F0043
:10248000B04207D288F80070D8F8000000F00F00C2
:10249000B04254D128683D4C810712D5400703D57E
:1024A000206840F4E05020602878000703D52068B9
:1024B00040F4604020602068A96820F0F0000843E4
:1024C00020602878C0072DD0304968680839012875
:1024D00012D0022813D0032811D0096889070029D7
:1024E0002DDA216821F0030101432160FFF7FEFE90
:1024F000814641F2883A0EE009688903EFE70968EE
:102500008901ECE7FFF7F2FEA0EB0901514502D982
:102510000320BDE8F0872068696800F00C00B0EB8C
:10252000810FEFD1D8F80010404601F00F01B14201
:1025300007D90770006800F00F00B04201D00120F9
:10254000E7E72878400705D52068E96820F4E050DF
:10255000084320602878000706D52068296920F400
:10256000604040EAC100206000F058F82168084A45
:10257000C1F30311515CC840064908600648006871
:10258000FFF7DCFE0020C4E7003C024008380240B0
:10259000287E00083C000020340000200F2202604A
:1025A0000C4A136803F003034360136803F0F0035D
:1025B0008360136803F4E053C36012684FF4E05380
:1025C00003EAD20202610448006800F00F000860CC
:1025D0007047000008380240003C024004480549AA
:1025E00000680968044AC1F38221515CC840704701
:1025F0003C00002008380240387E000804480549A5
:1026000000680968044AC1F34231515CC840704710
:102610003C00002008380240387E0008154810B5FC
:10262000006810F00C02144813D01449042A0FD08B
:10263000082A0ED10F4C241F2268236802F03F02A3
:102640005B0207D52068C0F38810A0FB010106E0FB
:10265000084610BD2168C1F38811A1FB00010023C9
:10266000FDF70EFE2168C1F30141491C4900B0FB92
:10267000F1F010BD083802400024F400001BB70040
:102680002DE9F84F04006ED02078DFF83C93C007A6
:10269000A9F104054AD009F104000168C1F38101E0
:1026A000012908D00068C0F3810002280AD1D9F8B6
:1026B0000000400206D52868800337D560680028EE
:1026C000E1D033E06068B0F5803F10D0B0F5A02FC6
:1026D000286810D020F480302860286820F48020FA
:1026E00028606068A8B1FFF701FE06460DE0286883
:1026F00040F48030F4E740F480202860F7E700BF22
:10270000FFF7F4FD801B642873D828688003F7D591
:102710000CE0FFF7EBFD064605E000BFFFF7E6FD26
:10272000801B6428F0D828688003F7D42078DFF86D
:102730009C8280074FF0000A3ED5A348001D016827
:1027400011F00C0F08D00068C0F3810002280BD1F3
:10275000D9F80000400207D42868800716D5E06841
:10276000012800D112E02BE1E068B8B10120C8F8DF
:102770000000FFF7BBFD064605E000BFFFF7B6FD12
:10278000801B0228C0D828688007F7D528682169EF
:1027900020F0F80040EAC10028600DE0C8F800A071
:1027A000FFF7A4FD064604E0FFF7A0FD801B02280A
:1027B0001FD828688007F7D42078000722D5824EDA
:1027C00083486169703671B101210160FFF78EFDA8
:1027D000074604E0FFF78AFDC01B022809D83068CD
:1027E0008007F7D50EE0C0F800A0FFF77FFD074691
:1027F00005E082E0FFF77AFDC01B02287DD8306833
:102800008007F7D42078400768D5DFF8BCB10027EF
:102810000BF13C0BDBF80000C0000BD4DBF8001020
:1028200041F08051CBF80010DBF80000012700F0E8
:1028300080500090674E3068C00510D4306840F476
:1028400080703060FFF752FD009005E0FFF74EFD0D
:102850000099401A022850D83068C005F6D55A4E63
:10286000A0686C3601280FD00528306810D020F001
:1028700001003060306820F004003060A068B8B11A
:10288000FFF734FD00900FE0306840F00100F4E7FE
:1028900040F004003060F7E7FFF728FD0099411A87
:1028A00041F28830814266D830688007F4D50EE066
:1028B000FFF71CFD009007E0FFF718FD0099411A93
:1028C00041F28830814256D830688007F4D42FB165
:1028D000DBF8001021F08051CBF80010A069C8B3DC
:1028E0003949091D0968C1F3810102294AD002282A
:1028F000504607D0C8F8600000E03CE0FFF7F6FC67
:1029000004463BE04746C8F86000FFF7EFFC064688
:1029100005E000BFFFF7EAFC801B02282BD82868DF
:102920008001F7D4D4E907010843A16A2A4A49087B
:1029300002EB0141626A41EA8211084394F82C10CB
:1029400040EA0161C9F8001001203866FFF7CEFCAB
:10295000044606E036E000BFFFF7C8FC001B022873
:1029600009D828688001F7D52CE000BFFFF7BEFC2E
:10297000001B022802D90320BDE8F88F28688001D7
:10298000F4D41FE00128F7D0D9F80000E26900F480
:102990008001914214D1226A00F03F0191420FD18F
:1029A00047F6C071626A0140914209D1A26A00F4FF
:1029B0004031914204D1E16A00F07060884201D058
:1029C0000120D9E70020D7E7043802400000474241
:1029D000800E4742007000400000FFFF70477047C4
:1029E00070B590F83C20012A32D0012480F83C4098
:1029F000022280F83D2003685A689D6822F0700624
:102A00000A6832435A60134B02689A4214D0B2F1FA
:102A1000804F11D0104B9A420ED0104B9A420BD0DF
:102A20000F4B9A4208D00F4B9A4205D00E4B9A4258
:102A300002D00E4B9A4204D1496825F08003194315
:102A4000916080F83D40002180F83C10084670BD40
:102A5000022070BD0000014000040040000800405A
:102A6000000C0040000401400040014000180040FC
:102A700010B5040003D094F83D0010B107E0012028
:102A800010BD002084F83C00204600F00DF8022024
:102A900084F83D00211D206803F0D2FA012084F85B
:102AA0003D00002010BD000008B521490268214802
:102AB0008A4205D1016841F001010160006812E01D
:102AC0001C49091FB2F1804F08D01B4B9A420ED10E
:102AD000086840F002000860086810E0086840F0EC
:102AE00001000860086800F00100009008BD134B69
:102AF0009A4207D1016841F002010160006800F0CC
:102B00000200F2E70E4B9A4207D1016841F480318E
:102B10000160006800F48030E7E70A488242E5D1AE
:102B2000086840F040000860086800F04000DCE7FA
:102B3000000001404438024000040040000401400D
:102B400000400140001800400168CA6842F00102DC
:102B5000CA600068816801F00701062903D0016896
:102B600041F0010101600020704770B5044690F803
:102B70003C00012817D0012584F83C50022084F83D
:102B80003D002068826822F0770222F47F42826052
:102B90000868502830D00DDC20284DD005DC98B3D3
:102BA00010283BD148E0022070BD302844D0402896
:102BB00034D139E0602828D0702806D0B0F5805F85
:102BC0002CD0B0F5005F29D10AE0CB68D1E9012112
:102BD000206803F0A6FA2068816841F0770109E0D7
:102BE000CB68D1E90121206803F09BFA2068816855
:102BF00041F48041816011E0CA684968206803F0AF
:102C000065FB5021206807E016E0CA684968206823
:102C100003F06DFB6021206803F08DFA84F83D50CD
:102C2000002084F83C0070BDCA684968206803F041
:102C30004DFB40212068EFE7226801461046EBE794
:102C40002DE9F0410D46040003D094F83D0018B181
:102C500008E00120BDE8F081002084F83C00204617
:102C600000F03AF8022084F83D002068816844F2C0
:102C7000070291438160211D206803F0E1F9226879
:102C800090689169166A2B68AF69034340F203307C
:102C9000814341EA0721A868EF6908434FF6FC41E8
:102CA0008843E96840EA0720014328692F6A000148
:102CB00040EA0730084369686D6926F0AA0646EACB
:102CC0000515294393602268906120680162012004
:102CD00084F83D000020BDE730B587B004461421DC
:102CE0006846FDF717FB204824681E4D00221E4948
:102CF00010380223AC4216D10C6844F004040C6076
:102D0000096801F004010591016841F002010160C8
:102D10000068694600F002000590C0200090CDE9EF
:102D20000132124818E0124DAC4219D10C6844F03F
:102D300008040C60096801F008010591016841F080
:102D4000010101600068694600F001000590032060
:102D50000090CDE901320748CDE90323FFF7E4F9FC
:102D600007B030BD00080040403802400004024077
:102D7000000C00400000024010B50446006891B10C
:102D8000042904D00122002103F0BEF920680122A9
:102D90005FF0040103F0B8F92068016841F0010117
:102DA0000160002010BD01220021F3E7704770B5DB
:102DB0000446006801694FF00005C943890715D42E
:102DC000C168C943890711D4E91E01610120207738
:102DD000206880698007204602D0FFF7E7FF04E003
:102DE00000F0EEF8204600F070F9257720680169C0
:102DF000C943490717D4C168C943490713D46FF0C1
:102E000004010161022020772068806910F4407F6E
:102E1000204602D0FFF7CAFF04E000F0D1F82046B8
:102E200000F053F9257720680169C943090716D4D2
:102E3000C168C943090712D46FF008010161042079
:102E400020772068C0698007204602D0FFF7AEFFD8
:102E500004E000F0B5F8204600F037F92577206847
:102E60000169C943C90617D4C168C943C90613D447
:102E70006FF010010161082020772068C06910F40C
:102E8000407F204602D0FFF791FF04E000F098F861
:102E9000204600F01AF9257720680169C943C9075F
:102EA00008D1C168C943C90704D1891E0161204600
:102EB00000F05CF920680169C943090609D4C168BA
:102EC000C943090605D46FF0800101612046FFF770
:102ED00085FD20680169C943490609D4C168C94311
:102EE000490605D46FF040010161204600F048F921
:102EF00020680169C94389060BD4C168C9438906A2
:102F000007D46FF0200101612046BDE87040FFF753
:102F100066BD70BD30B587B0044614216846FDF724
:102F2000F9F92168002421480225B1F1804F29D008
:102F30001F4A914224D1016841F0040101600168F7
:102F400001F004010591016841F00201016000688F
:102F5000694600F00200059050150090CDE901543B
:102F60001448CDE90345FFF7DFF810200090CDE9C4
:102F7000015411486946CDE9034500BFFFF7D4F875
:102F800007B030BD016841F0010101600068694689
:102F900000F0010005904FF400400090CDE901548D
:102FA0000120CDE903400548E8E700003038024041
:102FB00000040040000802400004024000000240FB
:102FC000704770B5044690F83C000D4601280DD0BE
:102FD000012684F83C60022084F83D0042B1042AB6
:102FE00018D0082A2AD00C2A4DD139E0022070BD11
:102FF000206803F0A9F82068816941F00801816127
:103000002068816921F004018161206881692A6951
:10301000114311E0206803F0C7F82068816941F48A
:10302000006181612068816921F48061816120688B
:1030300081692A6941EA0221816124E0206803F064
:10304000E9F82068C16941F00801C1612068C169DF
:1030500021F00401C1612068C1692A69114311E0AE
:10306000206803F00BF92068C16941F40061C16177
:103070002068C16921F48061C1612068C1692A6941
:1030800041EA0221C16184F83D60002084F83C00DF
:1030900070BD10B5040003D094F83D0010B107E0F6
:1030A000012010BD002084F83C00204600F00CF800
:1030B000022084F83D00211D206802F0C1FF01209C
:1030C00084F83D00002010BD7047704710B50446DD
:1030D0000068012203F018F80B492068884202D0EA
:1030E0000A49884203D1416C41F40041416420689F
:1030F000816801F00701062903D0016841F0010150
:103100000160002010BD00000000014000040140EB
:1031100010B504460068002202F0F6FF114841F2A3
:10312000111221689310814202D00F48814209D1C7
:10313000086A104206D1086A184203D1486C20F48C
:10314000004048642068016A114206D1016A1942B0
:1031500003D1016821F001010160012084F83D00E4
:10316000002010BD00000140000401400068034938
:10317000884201D1FFF7C0B870470000001400403A
:103180007047704710F8391F4078084370470000B7
:1031900070B5026804461068D168536910F00F0FCB
:1031A00053D003F0010501F490762E435FD0C2079F
:1031B00005D0CA0503D5E26B42F00102E263420783
:1031C00005D5DA0703D0E26B42F00202E263820720
:1031D00005D5DA0703D0E26B42F00402E26302078E
:1031E00007D501F020022A4303D0E26B42F0080227
:1031F000E263E26B002A34D0800604D5880602D54B
:10320000204603F0A9F820684069E16BC0F3801004
:1032100001F008010143204624D003F08FF8206814
:10322000416949061AD5416921F040014161606B4D
:10323000A0B11B490165606BFEF7F4FD002810D0BA
:10324000606B016DBDE87040084783060FD58B06A3
:103250000DD52046BDE8704003F07EB82046FFF74C
:1032600090FF70BDFFF78DFF0020E06370BD030687
:1032700006D50B0604D52046BDE8704003F04CB9D6
:103280004006F3D54806F1D5D168204621F040012B
:10329000D160202184F8391000F0B8F970BD000029
:1032A0002D63000870B5040004D094F8390000259F
:1032B00010B106E0012070BD84F83850204600F0BF
:1032C00023F8242084F839002068C16821F40051D3
:1032D000C160204603F08CF82068016921F4904118
:1032E00001612068416921F02A0141612068C168BB
:1032F00041F40051C160E563202084F8390084F86E
:103300003A00002070BD00002DE9F04F87B005465F
:1033100014216846FCF7FEFFA0489F4B1038D5F8F3
:1033200000C00024DFF874A20221032206158715CD
:103330004FF0080E4FF000699C4557D1DAF800C0F5
:103340004CF4801CCAF800C0DAF8003003F4801393
:103350000593036843F004030360036803F0040368
:103360000593036843F00803036000688B4600F090
:1033700008000590C802CDE900010120CDE9020254
:103380009246F0466946CDF810E08548FEF7CCFE3F
:103390000420CDE9000B0120CDE9020A6946CDF8F1
:1033A00010808048FEF7C0FEDFF800827E4940466C
:1033B000C8F80010C0E90194C0E90346C8F81440F9
:1033C000C0E90647C8F82040C8F82440FEF70CFEC4
:1033D00008B1FDF76EFDC5F83480002205213520C7
:1033E000C8F83850FFF70EF8352046E06B4BDFF891
:1033F000C0811B1D4FF0070BC44543D1D3F800C05B
:103400004CF0100CC3F800C01B6803F010030593C8
:10341000036843F001030360006800F001000590B9
:103420004FF4C0608DE81300CDE9032B6946614875
:10343000FEF77AFEDFF874815F4908F160084046C4
:10344000C8F80010C0E90194C0E90346C8F8144068
:10345000C0E90647C8F82040C8F82440FEF7C4FD7C
:1034600008B1FDF726FDC5F834800022052125208E
:10347000C8F83850FEF7C6FF2520FEF7B5FF07B0A5
:10348000BDE8F08FDFF83481C44541D1DAF800C0DF
:103490004CF4802CCAF800C0DAF8003003F4802322
:1034A0000593036843F002030360006800F0020024
:1034B00005904FF440608DE81300CDE9032B694679
:1034C0003F48FEF731FEDFF8E480374908F1C008D5
:1034D00018314046C8F80010C0E90194C0E903461D
:1034E000C8F81440C0E90647C8F82040C8F824408E
:1034F000FEF77AFD08B1FDF7DCFCC5F83480002248
:1035000005212720C8F83850FEF77CFF2720B4E7B4
:10351000DFF8B080C445B2D1D3F800C04CF0200C25
:10352000C3F800C01B6803F020030593036843F051
:1035300004030360006800F004000590C0208DE8DB
:103540001300CDE9032E69461548FEF7EDFD1A4933
:10355000DFF8748018394046C8F800108905C0E9C2
:103560000114C0E90346C8F81440C0E90647C8F88A
:103570002040C8F82440FEF737FD08B1FDF799FC5C
:10358000C5F83480002205214720C8F83850FEF7DE
:1035900039FF472071E700000050004040380240EA
:1035A00000080240000C02401060024004090020A4
:1035B000001001400000024040640240004800400A
:1035C0000004024000140140240A0020704790F8D3
:1035D0003930202B18D1A9B1A2B190F83830012B85
:1035E00012D001628284C2840021C163212280F84A
:1035F000392080F838100068C16841F08001C1604E
:103600000020704701207047022070477047FEE796
:103610007CB5044604200D4684F83000FEF766FEB3
:1036200060632846FDF708FB584906226B46087080
:10363000B5F80710ADF80010B5F80910ADF8021094
:10364000B5F80B00ADF804000020DFED510A514938
:1036500033F9106000EE106A01EB8006401CB8EEF2
:10366000C00A032820EE200A86ED000AF0DB91ED67
:10367000010AD21D84ED030A91ED020AA81884ED17
:10368000020AD4ED091AC4ED071A94ED082A84ED54
:10369000062A30F9012FADF8002000EE102AB0F90B
:1036A0000210ADF80210B8EEC01AB0F90400ADF87F
:1036B0000400DFED390A374A81EE200A01EE101AC4
:1036C0000C32B8EEC11AC1EE202A00EE900A82ED4B
:1036D000000A70EE611AB8EEE01A304811EE901A46
:1036E0008142C2ED012AF2EE042AC1EE220AB7EEAF
:1036F000001AC2ED020A84ED090AC4ED080A05D9D0
:10370000D4ED012A72EE812AC4ED012A11EE902A2D
:103710002349D4ED011A8A4203DD71EEC11AC4EDCA
:10372000011ADFED202A01EEA20A70EEC21A11EE94
:10373000902A84ED050A824205D994ED002A32EEE2
:10374000012A84ED002A11EE900A884202DC94EDF1
:10375000001A05E0D4ED001A31EEC11A84ED001A0A
:1037600041EE220A94ED0B1A30EE010A84ED050AAF
:1037700094ED0A0A30EEC00A84ED040AFEF7B6FDA5
:103780006063012084F830007CBD0000B800002098
:10379000CDCCCC3DE44800200000C842000035C339
:1037A000000035430000B44300487047AC48002097
:1037B0009FED0A0AD0ED050A002100BF30EE800A15
:1037C000491C6429FADBD0ED040AC0ED0A0ADFEDDA
:1037D000040A80EE201A80ED0B1A704700000000EA
:1037E0000000C84210B5094800F034F8FEF77EFD2D
:1037F0000649074C4863206802F0E7FE0349206849
:103800001422BDE81040143902F0E9BEAC48002093
:10381000C000002010B50446406B0068016821F02C
:1038200001010160606B006802F0CCFE0849C0F144
:10383000140201F11400FFF7EBFE616B142009681C
:103840004860606B0068016841F00101016010BDD3
:10385000984800209FED090A80ED010A80ED000ADA
:1038600080ED050A80ED040A80ED090A80ED080A62
:1038700080ED0A0A80ED0B0A70470000000000008E
:1038800010B500F021F802F079F8FFF7ABFF00F077
:1038900039FD00F02BFFFDF711F90948FDF7ECF9B0
:1038A0000848FDF7E9F9FDF77FFC02F013FA00F094
:1038B00015FD01F095FDBDE8104002F041B8000093
:1038C000A0050020C80500207CB5002401231D02AE
:1038D00000942A4607490848019400F011F8064868
:1038E000009401232A4605490C30019400F008F8A1
:1038F0007CBD000000080240FC480020000002409F
:1039000030B4DDE9024501608280C371047229464A
:1039100030BCAFF3008070B50D00044602D0012D1D
:1039200002D006E0E27900E0227AA1882068FEF762
:10393000D7FCA57170BD00007FB500211F48009124
:10394000019102911C4A0391026001244FF48032DC
:103950000461C0E90121047680F82010184AC0E90A
:103960000A210325C561C16080F830404161FDF73F
:103970009BFD08B1FDF79DFA0226CDE9006469467A
:103980000E480294FDF7EAFC08B1FDF792FACDE982
:10399000005669460948FDF7E1FC08B1FDF789FAD0
:1039A0000520CDE9000569460448FDF7D7FC00284D
:1039B00001D0FDF77EFA7FBD00200140F804002011
:1039C0000100000F0F4810B50D490160032141604F
:1039D00000214FF400228160C0E903124FF440122D
:1039E0004261017641768176C17601774177FEF7B3
:1039F0005AF8002803D0BDE81040FDF75ABA10BDB0
:103A000000640040A00500200F4810B50D4901607A
:103A10000321416000214FF400228160C0E90312BC
:103A20004FF440124261017641768176C17601778A
:103A30004177FEF738F8002803D0BDE81040FDF7C5
:103A400038BA10BD00680040C80500201CB500242D
:103A50000C4900940A48019408600846FEF79EF954
:103A600008B1FDF726FA0094002269460548019442
:103A7000FEF773F9002801D0FDF71BFA1CBD00000A
:103A800000740040F00500201D4808B5016841F4AD
:103A900000110160016801F400110091016841F416
:103AA000800101600068002200F480000090052180
:103AB0000B20FEF7A7FC0B20FEF796FC0022052149
:103AC0000C20FEF79FFC0C20FEF78EFC0022052147
:103AD0003820FEF797FC3820FEF786FC00220521EF
:103AE0003920FEF78FFC3920FEF77EFC00220521ED
:103AF0003A20FEF787FCBDE808403A20FEF774BC88
:103B00003038024010B53D4BCAB046AC0FCB84E80C
:103B10000F00002146A803F0A2FA394C37491C22B5
:103B2000A06210316846FCF7DCFB0021684603F018
:103B3000A9FA324920601C222C3107A8FCF7D1FBDE
:103B4000002107A803F09EFA2C4960601C2248312E
:103B50000EA8FCF7C6FB00210EA803F093FA274934
:103B6000A0601C22643115A8FCF7BBFB002115A83E
:103B700003F088FA2149E0601C2280311CA8FCF780
:103B8000B0FB00211CA803F07DFA1C4920611C2217
:103B90009C3123A8FCF7A5FB002123A803F072FAAF
:103BA000164960611C22B8312AA8FCF79AFB002153
:103BB0002AA803F067FA1149A0611C22D43131A868
:103BC000FCF78FFB002131A803F05CFA0B49E061A0
:103BD0001C22F03138A8FCF784FB002138A803F040
:103BE00051FA20621C2207493FA8FCF77AFB00210A
:103BF0003FA803F047FA60624AB010BDF87C0008A5
:103C000000000020047E00082DE9F04786B0142152
:103C10006846FCF77FFB30480024016841F08001D2
:103C20000160016801F080010591016841F0010126
:103C30000160016801F001010591016841F0040192
:103C40000160016801F004010591016841F0020181
:103C50000160016801F002010591016841F008016D
:103C600001600068DFF8748000F008004FF4987578
:103C70000590002229464046FEF732FBDFF86090AF
:103C80004FF44046002231464846FEF729FBDFF854
:103C900054A04FF48077002239465046FEF720FBAF
:103CA00000950125CDE90154694640460394FEF78D
:103CB0003BFA0096CDE90154694648460394FEF765
:103CC00033FA0097CDE90154694650460394FEF754
:103CD0002BFA06B0BDE8F0873038024000080240F9
:103CE00000040240000002401FB50021104800916E
:103CF000019102910D4A0391C0E900214FF6FF7234
:103D0000C0E9021201618161FEF7B2FE08B1FDF760
:103D1000D0F84FF48050009069460548FEF725FF23
:103D2000002801D0FDF7C5F81FBD000000180040B5
:103D3000C407002010B586B00024174800940194F1
:103D400002940394049413490594C0E900144FF6B7
:103D5000FF71C0E90241046144618461FEF788FE9D
:103D600008B1FDF7A6F84FF48050009069460A4864
:103D7000FEF7FBFE08B1FDF79CF8049404A9064881
:103D80000594FEF72DFE002801D0FDF792F806B04D
:103D900010BD0000000001400406002010B58EB0E8
:103DA00000240794089409940A940B941C216846F3
:103DB0000C94FCF7AFFA1D484FF080410160A72139
:103DC000C0E901146321C0E903148461FEF750FEC9
:103DD00008B1FDF76EF84FF48050079007A913481B
:103DE000FEF7C3FE08B1FDF764F81048FFF751F97C
:103DF00008B1FDF75EF80B940BA90C480C94FEF784
:103E0000EFFD08B1FDF755F86020CDE900040294FC
:103E10000022694605480494FFF7D3F808B1FDF77E
:103E200048F80248FFF776F80EB010BD44060020AF
:103E300010B58EB000240794089409940A940B944A
:103E40001C2168460C94FCF765FA22482049016061
:103E5000A721C0E9011440F2CF71C0E903148461C5
:103E6000FEF706FE08B1FDF724F84FF480500790E6
:103E700007A91848FEF779FE08B1FDF71AF81548AA
:103E8000FFF707F908B1FDF714F80B940BA91148D7
:103E90000C94FEF7A5FD08B1FDF70BF86020CDE905
:103EA00000040294002269460A480494FFF789F846
:103EB00008B1FCF7FEFF0C2269460648FFF781F8BF
:103EC00008B1FCF7F6FF0348FFF724F80EB010BD69
:103ED000000400408406002010B58CB02421684600
:103EE000FCF718FA00241648099414490A94C0E90A
:103EF00000144FF6FF71C0E90241046184610320A0
:103F0000CDE900040120CDE9020405210491CDE9A9
:103F10000540CDE9074169460948FEF791FE08B121
:103F2000FCF7C7FF099409A905480A94FEF758FD54
:103F3000002801D0FCF7BDFF0CB010BD0008004008
:103F4000C406002010B58CB024216846FCF7E2F9C5
:103F500000241648099414490A94C0E90014611E0B
:103F6000C0E90241046184610320CDE9000401201D
:103F7000CDE9020405210491CDE90540CDE90741D1
:103F800069460A48FEF75CFE08B1FCF792FF099407
:103F900009A906480A94FEF723FD002801D0FCF782
:103FA00088FF0CB010BD0000000C0040040700208A
:103FB00010B586B00024174800940194029403942D
:103FC000049413490594C0E900144FF6FF71C0E949
:103FD0000241046144618461FEF74AFD08B1FCF7C7
:103FE00068FF4FF48050009069460A48FEF7BDFD17
:103FF00008B1FCF75EFF049404A906480594FEF797
:10400000EFFC002801D0FCF754FF06B010BD000003
:1040100000040140440700201FB500211048009112
:10402000019102910D4A0391C0E900214FF6FF7200
:10403000C0E9021201618161FEF71AFD08B1FCF7C7
:1040400038FF4FF48050009069460548FEF78DFD1B
:10405000002801D0FCF72DFF1FBD000000400140EB
:10406000840700200C4810B50A4901604FF4E13183
:104070004160002181600C22C160C0E904128161AD
:10408000C161FFF70FF9002803D0BDE81040FCF72D
:1040900010BF10BD00500040040800200D4810B5AE
:1040A0000B4901600C49416000214FF4806281603E
:1040B000C0E903120C22C0E90521C161FFF7F2F843
:1040C000002803D0BDE81040FCF7F3BE10BD00008F
:1040D0000010014044080020A08601000C4810B5E3
:1040E0000A4901604FF4E1314160002181600C22F6
:1040F000C160C0E904128161C161FFF7D3F80028F3
:1041000003D0BDE81040FCF7D4BE10BD004800400D
:10411000840800200D4810B50B4901604FF4E131CF
:10412000416000214FF4C0628160C0E903120C229B
:10413000C0E90521C161FFF7B5F8002803D0BDE84B
:104140001040FCF7B6BE10BD00140140C4080020AA
:10415000D0ED001AF5EEC01AF1EE10FA01D10121EE
:1041600000E0002190ED011AB5EEC01AF1EE10FA50
:1041700001D1012000E00020014313D130EEE12AFB
:10418000B4EEC02AF1EE10FA02DD31EE800A70477B
:1041900071EE201AF4EEC01AF1EE10FA02D230EEEF
:1041A000410A7047B0EE600A704790ED000A01299D
:1041B0000CD0022909D1D0ED020A90ED011AF0EEDF
:1041C000001A41EE610A30EE800A7047D0ED010A14
:1041D00030EE600A704780EC020A7047FEE700008C
:1041E00070B5194C05462DED028B007AE07005F193
:1041F000090002F0C7FD00EE100A9FED148A05F1D8
:104200000B00B8EEC00AC0EE080AC4ED010A02F0C5
:10421000B9FD00EE100A05F10D00B8EEC00AC0EEBF
:10422000080AC4ED020A02F0ADFD00EE100ADFED4F
:10423000080A0120B8EEC00A80EE201A84ED031AA5
:104240006074BDEC028B70BD144900200000C842B0
:1042500000007A4410B5FCF7A3FF00F021F9BDE897
:10426000104000F0D7B8000070B50446034D00F0D0
:1042700025F885F84440847070BD0000605F002020
:1042800070B50E4604460A4DFEF730F86861207995
:1042900038B102280BD131462046BDE87040FFF707
:1042A0009FBF31462046BDE8704000F00BB870BD9E
:1042B0001449002000487047605F002000487047A4
:1042C0001449002004480178032901D80A2101700B
:1042D00001214174704700001449002010B5084CBA
:1042E0000120BFEE000A207004F11800FCF7B2FEB6
:1042F00004F12C00BDE81040BFEE000AFCF7AABE96
:10430000605F002010B500F031F8054C206802F025
:104310005CF92068BDE81040C822024902F05FB98C
:10432000C80000202C49002010B50446406B0068EE
:10433000016821F001010160606B006802F042F940
:10434000C0F1C80081B20848FFF79AFF00F0EEF80C
:10435000616BC82009684860606B0068016841F0C3
:104360000101016010BD00002C49002010B5094C6E
:1043700000209FED090A207084ED030AE070A07010
:1043800084ED020A84ED010A60746070FDF7AEFFEF
:10439000606110BD14490020000000002DE9F041CB
:1043A00000F0A0F81948042100F1E0044174A521AF
:1043B00021705A2161700021A170027CE2700222FA
:1043C00021716271A171E17141780A2621728078B0
:1043D000002760723D46601902F0D7FC3844AD1CDE
:1043E00087B2B542F7DBA11D384603F0BCF8084D93
:1043F0002868FEF7C7FEC00706D132462146286866
:10440000BDE8F04102F038B9BDE8F0811449002060
:10441000C800002070B5204C2DED028BFFF74EFF39
:104420000646FFF7C1F9FCF7BBFE05469FED1B0AE8
:10443000707CB0EE408A012803D194ED020A94ED1D
:10444000038A04F1240104F11800FCF7CDFD84ED8A
:10445000040A04F1380104F12C00B0EE480AFCF71C
:10446000C3FD84ED050A2078002812D094F8450099
:1044700001280ED1287D01280BD194ED040AFCF708
:104480003FFF94ED050ABDEC028BBDE87040FCF7E0
:1044900011BFBDEC028B70BD605F0020000000000A
:1044A00010B50A4CFDF722FF216C401A0849096833
:1044B000884201D8012104E006490968884203D3F3
:1044C0000021024880F8451010BD0000605F002008
:1044D000607E0008647E0008FFF760FF642002F041
:1044E000B2FDF9E770B5FCF7E5FA057B0E4903224A
:1044F000042305240120672D10D008DC4FF00000B4
:10450000032D0BD0042D0CD0052D06D103E0682D12
:1045100007D0692D01D148700C7470BD48700A74C1
:1045200070BD48700B7470BD14490020AFF300805B
:1045300070B50B4DFFF7C2FE90ED030A044685ED02
:10454000010AC078012802D1FDF7D0FE286494ED5D
:10455000010A85ED020A94ED020A85ED030A70BD99
:10456000605F00202DE9F0410D4604003BD0002D96
:1045700039D094F82801002835D0617804F1AC06D0
:1045800011B1A07805280DD3207805F1A0010F46C0
:10459000012802D0022817D002E0304600F048FB84
:1045A0000020A070C0B2401CA070607800281AD013
:1045B000304600F0B5FC201D00F0E9FC2946201D26
:1045C000BDE8F04100F034BB04F1580005F15001A2
:1045D000804600F02DFB404600F0A2FC304600F083
:1045E000D6FC3946D9E7BDE8F0812DE9F041154602
:1045F00004002FD0002D2DD094F82801002829D0B8
:1046000005F1A00604F1AC07012902D0022913D05C
:1046100003E03146384600F00BFB6078002819D0E3
:10462000384600F07DFC201D00F0B1FC2946201D1D
:10463000BDE8F04100F0FCBA04F1580005F150016A
:10464000804600F0F5FA404600F06AFC384600F07B
:104650009EFCDEE7BDE8F08110B50C001AD0B4F87E
:104660000011A4F80811018849BAA4F80011418882
:1046700049BAA4F80211818849BAA4F804118079D2
:1046800084F80601D4F8681120468847FDF72EFE0D
:10469000C4F8240110BD0000084B98420CD1B1F5BC
:1046A000017F07D0A1F50071063905D104491046F4
:1046B000FFF7D2BF0349FAE770470000A0050020CA
:1046C0001C5300209C5400209FED070A00280AD0AC
:1046D00090F82811002906D0417809B1001D00E0AA
:1046E000AC3000F01DBC7047000000002DE9F04127
:1046F000674D4FF400782DED028BA5F1100684B0C4
:104700003560644B042201212846CDF8008000F07A
:1047100029F90024604F0122CDE902470094BFEE41
:10472000000A2346114605F1D000019400F0C4F8B8
:10473000CDE9024701220094BFEE000A0023114692
:1047400005F51470019400F0B7F8CDE90247012295
:104750000094BFEE000A0023114605F57470019421
:1047600000F0AAF8CDE9024701220094BFEE000A4A
:104770000023114605F5AA60019400F09DF805F1AB
:10478000D000686000F5C070A86000F5C070E860F7
:1047900000F5C0702861343540F2FF10756000905C
:1047A0003C4B02220121284600F0DCF83B4F01235C
:1047B000CDE902470094BFEE000A0222194605F235
:1047C0009C60019400F078F8CDE902470123009441
:1047D000BFEE000A0222194605F61C00019400F003
:1047E0006BF805F29C60686000F5C070A860343515
:1047F000B5600122274B11462846CDF8008000F015
:10480000B1F827480094CDE90240BFEE000A00232A
:1048100002220121019405F6681000F04DF805F61A
:10482000681028613435F5600222002311462846BD
:10483000009400F097F81B4E1B481C4F00970396FE
:104840009FED1B8ACDE90140B0EE480A002301220A
:10485000022105F6B42000F02FF816480C2100972D
:104860000396CDE90110B0EE480A0023012202218F
:1048700005F6344000F020F805F6B420686000F535
:10488000C070A86004B0BDEC028BBDE8F0810000F0
:10489000CC4A0020A00500208F6D0008E56E0008BE
:1048A000D96D000865750008C40600208406002044
:1048B0009A99993E040700202DE9F05F1E462DEDE0
:1048C000028BB0EE408ADDE90E59DDE90CBA1746DD
:1048D0008846040040D0FDF709FDC4F8240184F89F
:1048E00028812770667004F5B670B0EE480AC4F8E7
:1048F0006891FCF7AFFB0020A070201D00F0F0FADB
:1049000004F1AC0000F0ECFA04F1580000F0E8FA11
:1049100094F8280102281FD104F596705246594692
:10492000064600F037FB4FF4FA71304600F084FB86
:104930009FED0B0A304600F055FB304600F0A0FB1F
:10494000C4F81C51002D07D0BDEC028B2846BDE8F1
:10495000F05F3C21FEF710BABDEC028BBDE8F09F82
:104960000000000010B50400029815D022702175D7
:10497000012909D1002B0FD0A36101460823012290
:1049800004F11C00FCF7A4F90020014604EB8002AE
:10499000401C51600428F9DB10BD2DE9F0411F4691
:1049A000069E0C46050030D094EC070A114694EDA3
:1049B000105AD4ED0F4A94ED0B4AD4ED0A3A00F0A8
:1049C000B2FA04F1500394ED245AD4ED234A94ED45
:1049D0001F4AD4ED1E3A394693EC070A05F1A000B0
:1049E00000F0A1FA04F1A00194ED385AD4ED374A51
:1049F00094ED334AD4ED323A05F1500091EC070AB8
:104A00003146BDE8F04100F08EBABDE8F08100000B
:104A100070B504002DD094F82801022829D1D4F8CB
:104A20001C0101680968C1F3001584F82051016870
:104A3000496A104A89B2A4F822114FF6FF7305B1F2
:104A4000591A0D46116000219D4200D11160006885
:104A5000416292ED000A04F5BC7104F5B670B8EE3F
:104A6000C00AFCF7C1FA2046BDE87040012100F001
:104A7000B3B870BDBC00002010B5040010D094F88D
:104A8000280100280CD0201D00F02AFA04F1AC0007
:104A900000F026FA04F15800BDE8104000F020BAFA
:104AA00010BD00007CB5040063D0207D012851D1E9
:104AB0006068FFF709FEBDEEC00A10EE100A001292
:104AC0008DF800006068FFF7FFFDBCEEC00A10EE35
:104AD000100A8DF80100A068FFF7F6FDBDEEC00AD0
:104AE00010EE100A00128DF80200A068FFF7ECFD2E
:104AF000BCEEC00A10EE100A8DF80300E068FFF764
:104B0000E3FDBDEEC00A10EE100A00128DF804009D
:104B1000E068FFF7D9FDBCEEC00A10EE100A8DF870
:104B200005002069FFF7D0FDBDEEC00A10EE100AA7
:104B300000128DF806002069FFF7C6FDBCEEC00A22
:104B40006A4604F11C0110EE100A8DF80700A069F6
:104B5000FCF7D6F8207D02280BD1002506E000BF27
:104B600004EB8500406800F005F86D1C2078A84231
:104B7000F6DC7CBD10B5040025D094F8280102288D
:104B800021D12046FFF7A0FDF0EE400A9FED0E1A5E
:104B90009FED0E0A0E4900EE810A10EE100A84ED18
:104BA000590AB0F17C5F02DAB6EE000A05E010EEB9
:104BB000100A884201DD9FED070A04F59670BDE8F2
:104BC000104000F00FBA10BDF289E9380950F33EE9
:104BD00048E17A3F48E17A3F00280FD090F8282139
:104BE000002A0BD031B1012906D0022906D1583054
:104BF00000F0CAB9001DFBE7AC30F9E770470028A8
:104C00000DD090F82811002909D00178012904D08D
:104C1000022904D1583000F0BAB9AC30FBE7704734
:104C2000FEE7D0ED000A30EE800A80ED000A704702
:104C30002DE9F04F04462DED068B0D4683B0403034
:104C40000978019005F1380004F1480B05F1440A98
:104C500004F1300905F1180804F1080604F11807F9
:104C6000009021B101297DD094ED0B0A1AE194EC5A
:104C7000020A0121304630EE608A94ED030A84ED89
:104C8000040A94ED020A84ED030A84ED028AFFF718
:104C90008CFAF0EE409A94ED070A012184ED080A9F
:104CA00094ED060A384684ED070A94ED000A84ED77
:104CB000060AFFF77AFAB0EE409A02213846FFF76B
:104CC00074FAF0EE408A84ED148A95ED010AB5EE8F
:104CD000C00AF1EE10FA04D194ED0A0A30EE080A87
:104CE00009E094ED051AC1EE000A94ED0A0A30EECF
:104CF000080A30EE800A84ED0A0AF0EE400A95EDCB
:104D0000040AF4EEC00AF1EE10FA06DCB1EE400A35
:104D1000F4EEC00AF1EE10FA01D284ED0A0A95ED24
:104D20000C0ADDE9000120EE090AFCF75DF9B0EE9E
:104D3000409A95ED0D0A5946504620EE280AFCF798
:104D400053F939EE000A4946404684ED090AB0EEAF
:104D5000690AFCF749F9D5ED020A94ED0A1A60EEEA
:104D6000810A00E00CE095ED011A41EE080A95ED8C
:104D7000031A41EE000A94ED090A30EE800A8FE032
:104D800094EC020A0121304630EE608A94ED030A69
:104D900084ED040A94ED020A84ED030A84ED028A8C
:104DA000FFF703FA04F1380105F12400FCF71CF9C0
:104DB000F0EE409A02213046FFF7F7F9B0EE40AA34
:104DC00094ED070A012184ED080A94ED060A38469D
:104DD00084ED070A94ED000A84ED060AFFF7E5F971
:104DE000B0EE409A02213846FFF7DFF9F0EE408A34
:104DF00084ED148A95ED010AB5EEC00AF1EE10FAC1
:104E000002D184ED0A8A07E0D4ED050A80EE801A0B
:104E100031EE080A84ED0A0AD4ED0A0A95ED040A77
:104E2000F4EEC00AF1EE10FA06DCB1EE400AF4EE40
:104E3000C00AF1EE10FA01D284ED0A0A95ED0C0ACF
:104E4000DDE9000120EE090AFCF7CEF8B0EE408A59
:104E500095ED0D0A5946504620EE280AFCF7C4F895
:104E600038EE000A4946404684ED090AB0EE4A0A87
:104E7000FCF7BAF8D5ED020A94ED0A1A60EE810A41
:104E800095ED011A41EE290A95ED031A41EE000A4B
:104E900094ED0B0A30EE800AD4ED090A30EE200AB8
:104EA00084ED0B0AD5ED050AB4EEE00AF1EE10FA36
:104EB0000BDCB0EE401AF1EE600AB4EEE01AF1EE4F
:104EC00010FA02D3D4ED0B0A01E0C4ED0B0A30EE68
:104ED000C00A84ED050A03B0BDEC068BBDE8F08F77
:104EE0009FED0E0A80ED000A80ED010A80ED020AB6
:104EF00080ED030A80ED040A80ED050A80ED060AC4
:104F000080ED070A80ED080A80ED090A80ED0A0AA3
:104F100080ED0B0A80ED140A7047000000000000CD
:104F200090ED0B0A704710B504462DED068B221D3F
:104F3000B0EE459AF0EE649A00F8181BF0EE448A41
:104F400082EC050AB0EE638AB0EE43AAB0EE620AC4
:104F5000FCF780F804F12400B0EE4A0AFCF77AF876
:104F600084ED0C8AC4ED0D8A04F13800B0EE690AB4
:104F7000FCF770F8B0EE490ABDEC068B04F1440072
:104F8000BDE81040FCF766B880ED010A704780ED7F
:104F9000000A7047C0E9001200229FED0D0A80F858
:104FA000342080ED0B0A0B4B83600B4B994202D0EF
:104FB0000A4B994201D10A4981606321C160826133
:104FC0006021026201614FF47A7100F035B800008F
:104FD0000000000000BD0105040600204407002079
:104FE000007A030A70B504462DED028BB0EE408ABC
:104FF00090F8345000F052F884ED0B8A2068C168B4
:10500000491C00EE101A04F11001B8EE400A28EE17
:10501000000ABCEEC00A84ED050A6268FDF7D1FF04
:10502000012D06D1BDEC028B2046BDE8704000F09A
:1050300027B8BDEC028B70BD70B50D46044690F8E4
:10504000346000F02BF825632168E068C860A2682E
:10505000401CB2FBF0F0B0FBF5F02168401E486048
:105060002068FEF716F894ED0B0A2046FFF7BAFF0A
:10507000012E04D12046BDE8704000F001B870BD9B
:1050800010B5044690F83400002806D1D4E9000198
:10509000FEF71CF8012084F8340010BD10B504465A
:1050A00090F83400012806D1D4E90001FEF730F869
:1050B000002084F8340010BDC82001F0C4FFFBE7D5
:1050C000024901FA80F000B27047000000FCFFFFC7
:1050D00070B500F07FFD194C00F07EF901212170C0
:1050E000C07A012804D0022815D0032823D10DE06E
:1050F00013480578FBF7DEFC80F824500020FBF70E
:10510000C3FF00F055FB00F0CFFB14E000F098F96E
:1051100000F0F2FA0DE00120FBF7B6FF0020FFF7E8
:10512000A3F808480578FBF7C5FC80F8245000F088
:10513000BBFB00F09CF80020207070BD2401002013
:10514000048600080386000801F001020270C1F322
:1051500040028270C1F380024270C1F3C002C2708B
:10516000C1F300120271C1F340124271C1F3801207
:105170008271C1F3C012C271C1F300220272C1F385
:1051800040224272C1F380228272C1F3C022C272F5
:10519000C1F300320273C1F340324273C1F3803273
:1051A0008273C90BC173704770B50D460446122A4D
:1051B0005CD1042084F82400FDF798F8A0622888C8
:1051C000C0F30A00FFF77CFF20806878A978C00848
:1051D00040EA4110C0F30A00FFF772FF6080A87830
:1051E000E978800940EA8100297940EA8120C0F30A
:1051F0000A00FFF765FFA08028796979400840EA36
:10520000C110C0F30A00FFF75BFFE08068798009F6
:10521000A0726879C0F30110E072E888A081288943
:10522000E08168892082287BA074687BE074E9892A
:1052300004F11400FFF788FF288AC0F30A00FFF783
:105240003FFF208110F5806F01D100202081204692
:1052500000F0DEF838B1032084F824002046BDE8D1
:10526000704000F04DBB012084F8240070BD10B5E3
:1052700000F040F8052814D2DFE800F01303070B14
:105280000F00BDE8104000F00DB8BDE8104000F080
:1052900013B8BDE8104000F019B8BDE8104000F0A8
:1052A0001FB810BD10B5FBF705FC0249097880F85E
:1052B000311010BD0186000810B5FBF7FBFB024959
:1052C000097880F8311010BD028600089FED020AAF
:1052D000024800F077BB0000000000008059002069
:1052E0009FED020A024800F06DBB00000000B442CE
:1052F000805900202DE9F04100F06EF8344BB0F9F0
:105300000040C8255A42002632499C4215DCB0F9BB
:1053100002709F4211DCB0F9047097420DDBB0F9C6
:1053200006709F4209DC0F787F1CFFB20F70C82FF8
:1053300004D30D700120BDE8F0810E709C4214DC96
:10534000B0F90270974210DBB0F9047097420CDBA1
:10535000B0F90670974208DB4F787F1CFFB24F70A0
:10536000C82F03D34D700220E5E74E70944214DB42
:10537000B0F90270974210DBB0F9047097420CDB71
:10538000B0F90670974208DB8A78521CD2B28A7054
:10539000C82A03D38D700320CDE78E709C4214DCA5
:1053A000B0F902209A4210DCB0F904209A420CDCD9
:1053B000B0F90600984208DCC878401CC0B2C8703A
:1053C000C82803D3CD700420B5E7CE700020B2E723
:1053D00076FDFFFF08010020004870475459002067
:1053E00010B5094800F08CFAFCF780FF0649074C1D
:1053F0008862206801F0E9F8034920683622BDE898
:105400001040383901F0EBB854590020C400002096
:1054100000214FF4AF6300BF30F9112002F52F7265
:105420009A420BD8491C0529F6DB00214218927AD2
:1054300022B1491C0229F9DB002070470120704786
:105440002DE9F04F2DED028B81B0FFF7C5FF05462A
:10545000FBF7A6FE0090FBF72DFB0646FEF72AFFA2
:10546000814695F8210000274FF00108012802D15C
:10547000287E012812D086F83870287DDFF830A207
:10548000DFF830B201280CD0687D012809D0E87D12
:10549000012806D0A87D012803D00EE086F83880C8
:1054A000EBE796F824109AF80000814205D19BF8AA
:1054B0000040FBF7FFFA80F82440287FDFED7E8A6A
:1054C0007E4C012811D0C4F8088000BF96F8241043
:1054D0009AF80000814249D0687E012825D0C4F89E
:1054E0000C80206901282ED037E0754800F042FA80
:1054F000B5EEC00AF1EE10FA02D0A068012811D072
:105500006F4800F037FA10EE100A6E498842DDD07D
:10551000A0680128DAD19FED6C0A694800F052FAC0
:10552000A760D3E7B0EE680AF7E7206910B1012859
:1055300006D012E0E06801280FD1C4E9037802E048
:10554000E068012807D061480778FBF7B3FA80F8D4
:1055500024705F4808E02761E7609BF80070FBF764
:10556000A9FA80F824705B4890ED008AE87C012855
:1055700006D00020FBF788FDA87E012807D009E0AF
:105580000120FBF781FD0020FEF76EFEF4E703200B
:1055900000F06EFAE87E012802D1002000F068FADF
:1055A0002A7E4D484D49012A06D14D4B96F83920A7
:1055B0001B789A4204D14B49097886F8301003E0F1
:1055C000087886F830004848007886F83200287D50
:1055D00001281AD0A87D01281CD0C4ED058A94EDBD
:1055E000050A00BF86ED0A0AE87D01281DD0687D06
:1055F00001281FD0C4ED068A94ED060A86ED0B0A39
:1056000099F84500012820D023E02C48F0EE480A04
:10561000243003E02948F1EE480A243094ED050ACD
:10562000FEF796FD84ED050ADCE72448F1EE480A12
:105630002C3003E02148F0EE480A2C3094ED060AA5
:10564000FEF786FD84ED060AD8E70098007D012864
:1056500029D0B5F90C0000EE100A2448B8EEC00AB3
:10566000D0ED000AB5F90E0060EE208A00EE100AB7
:105670001F48B8EEC00AFBF71FFC1E48D0ED000A19
:1056800020EE208AB0EE680AFBF7DCFDFBF750FE47
:10569000B0EE480AFBF7AEFD01B0BDEC028BBDE8F1
:1056A000F04FFBF723BE01B0BDEC028BBDE8F08FDD
:1056B000038600080486000800000000080100209E
:1056C0008059002000004843000048430586000838
:1056D0005C7E0008587E00080886000806860008E0
:1056E0000A86000807860008098600084C7E000824
:1056F000505A0020487E000810B5FFF76DFE0446A2
:1057000000F068FA407803280AD11548D0F8B010A4
:105710001448814204DD1449D1F8B010814204DC00
:10572000BDE81040062000F08DB9A07C0F4C012888
:10573000606806D0401E31280CD200F0DDFB01204D
:1057400009E0401C6060322809DB052000F07AF98E
:10575000322003E0062000F075F90020606010BDE3
:105760001C5600200000F0419C570020080100203A
:1057700010B50446406B0068016821F0010101602A
:10578000606B006800F01EFF0849C0F1360201F1AD
:105790003800FFF709FD616B362009684860606BCF
:1057A0000068016841F00101016010BD1C59002032
:1057B00070B52DED028BFBF77DF90546FFF70CFE6A
:1057C0000446B0F9020000EE100A2E48B8EEC00AF6
:1057D000FBF772FBF6EE000A20EE200A85ED0A0ABE
:1057E000B4F9000000EE100A2748B8EEC00AFBF733
:1057F00063FBFEEE000A20EE200A85ED0B0AB4F9E9
:10580000080010F5FA7F01DC204800E02048057808
:10581000FBF750F980F82450B4F908004FF4FA75FA
:10582000A84208DB1C489FED1B0A00F0CBF8B4F936
:105830000800A84204DC18489FED180A00F0C2F8DE
:10584000B4F9040000EE100A1548B8EEC00AD0ED15
:10585000000AB4F9060020EE200A00EE900A114872
:10586000B8EEE08AD0ED008AFBF7ECFCFBF760FDB8
:1058700028EE680AFBF7BEFCBDEC028BBDE8704069
:10588000FBF734BDC0590020085A002005860008E7
:10589000048600080000B442805900200000000087
:1058A000447E0008407E000810B5FFF795FD807A21
:1058B000012804D0022806D0032819D100E00020D6
:1058C00000F0D6F80FE0032000F0D2F80948D0F835
:1058D000B0100948814206DB0849D1F8B010814276
:1058E00001DB052000E00620BDE8104000F0AAB86A
:1058F00010BD00001C5600200000F0419C57002005
:1059000010B400224FEA020120F81210521C052A9E
:10591000FADB002284180023521CA372022AF9DB4E
:105920008181C18101828174C174002110BC143055
:10593000FFF70ABCFFF7CCFB012001F084FBF9E77D
:1059400070B5094C094D0A48D4ED000A95ED000ADE
:10595000FEF741FCD4ED000A95ED000ABDE8704069
:1059600003480830FEF737BC547E0008507E00081C
:105970002C01002090ED0E0A704700000022024921
:10598000024800F005B800004406002080590020BD
:1059900010B50446002084F83C002046FFF7FAFAD0
:1059A00032212046FFF748FB044800F021F820464A
:1059B000BDE810409FED020A00F004B880590020B5
:1059C000000000009FED071A074980ED0E0AC0EEA7
:1059D000010A91ED000A9FED051A00EE810AFFF71A
:1059E00001BB000000808943787E0008CDCCCC3D0F
:1059F000012180F83C10FFF743BB00F03FF8012085
:105A000001F021FBF9E700000C48DFED0D0A2D2223
:105A100090ED170A30EE200ABDEEC00A10EE101A03
:105A200091FBF2F1C1EB011101EB410100EE101A03
:105A3000B8EEC00A80ED160A704700009C540020A2
:105A40000000204209498A78042A0ED0CA70D2B2D6
:105A50008870904209D0032A03D0022A01D0052A77
:105A600003D106208870FFF7CFBF7047786200200F
:105A700001494870704700007862002010B500F0BE
:105A800041FA00F0B9F900F005F8BDE8104000F067
:105A900009BA000010B5194C0023A078072821D2BC
:105AA000DFE800F004080C12171B1F0001239FED14
:105AB000140A06E0022300F009FA13E0012311485A
:105AC00004E000F08BF90DE00F48012390ED000A8F
:105AD000F7E7012300F05EF904E000F07FF80346E9
