:020000040800F2
:10000000004E00205D0200080B350008E12C0008BE
:1000100001350008AD060008E53B000800000000BF
:100020000000000000000000000000009D0100082A
:100030005909000800000000F90100087D3500089A
:1000400077020008770200087702000877020008AC
:10005000770200087702000877020008770200089C
:100060007702000877020008770200087908000884
:100070008508000877020008770200087702000868
:10008000770200087702000877020008770200086C
:10009000B10600087702000877020008770200081E
:1000A000770200087702000877020008770200084C
:1000B000770200087702000877020008770200083C
:1000C000770200087702000877020008770200082C
:1000D00077020008853B0008770200089D3B000876
:1000E000770200087702000877020008770200080C
:1000F00077020008770200087702000877020008FC
:1001000077020008770200087702000877020008EB
:10011000770200081D3900087702000859360008E8
:10012000910800089D080008A90800087702000847
:1001300077020008000000000000000077020008BD
:10014000BD06000877020008770200087702000861
:10015000770200087702000877020008B53B000824
:10016000770200087702000877020008770200088B
:10017000770200087702000800000000000000007D
:100180007702000877020008DFF80CD000F0ECF8E6
:1001900000480047613F0008004E00202C4B1968C2
:1001A0000868B0E8F04F80F30988BFF36F8F4FF015
:1001B000000080F3118870470000000008480068C4
:1001C000006880F308884FF0000080F3148862B65E
:1001D00061B6BFF34F8FBFF36F8F00DF00BF00BF6B
:1001E00008ED00E0DFF80C00016841F470010160E7
:1001F000704700BF88ED00E0EFF30980BFF36F8F19
:10020000134B1A681EF0100F08BF20ED108A20E96A
:10021000F04F106009B44FF0500080F31188BFF325
:100220004F8FBFF36F8F04F069FA4FF0000080F337
:10023000118809BC19680868B0E8F04F1EF0100F6B
:1002400008BFB0EC108A80F30988BFF36F8F704746
:100250003C000020EFF3058070470000064880470F
:1002600006480047FEE7FEE7FEE7FEE7FEE7FEE79B
:10027000FEE7FEE7FEE7FEE73D36000889010008DD
:100280002DE9F05F0546002092469B4688460646CB
:10029000814640241BE0284641464746224600F05E
:1002A00053F853465A46C01A914110D31146184686
:1002B000224600F03AF82D1A67EB01084F46224615
:1002C0000120002100F031F817EB00094E41201EFB
:1002D000A4F10104DFDC484631462A464346BDE826
:1002E000F09F40EA01039B0703D009E008C9121FF1
:1002F00008C0042AFAD203E011F8013B00F8013BE0
:10030000521EF9D27047D2B201E000F8012B491E0B
:10031000FBD270470022F6E710B513460A460446A2
:100320001946FFF7F0FF204610BD202A04DB203AD3
:1003300000FA02F1002070479140C2F1200320FA38
:1003400003F3194390407047202A04DB203A21FA36
:1003500002F00021704721FA02F3D040C2F12002DE
:100360009140084319467047064C074D06E0E06887
:1003700040F0010394E8070098471034AC42F6D3EC
:10038000FFF706FF284C0008484C000870B58C1891
:1003900010F8015B15F0070301D110F8013B2A1199
:1003A00006D110F8012B03E010F8016B01F8016B86
:1003B0005B1EF9D12B0705D40023521E0DD401F882
:1003C000013BFAE710F8013BCB1A921C03E013F84B
:1003D000015B01F8015B521EF9D5A142D8D3002080
:1003E00070BD10B50146806B026C12F0500F05D045
:1003F000026CD20626D500F06BFB10BD016C41F4F7
:100400000071016401688A6812F0405F17D1027EB2
:10041000AAB9CA6A12F4700F02D08A6852050ED4C3
:100420004A6822F020024A60016C21F48071016464
:10043000016CC90403D4016C41F00101016400F0B6
:1004400045FB10BD806BC26CBDE8104008461047EC
:1004500010B5806B40210164416C41F0040141649E
:1004600000F036FB10BD10B5806B00F030FB10BD06
:10047000464910B54A6822F440324A604A684368E7
:100480001A434A6001684A6822F480724A6001682F
:100490004A68036942EA03224A6001684A6822F016
:1004A00040724A6001684A6883681A434A6001687A
:1004B0008A6822F400628A6001688A68C3681A4305
:1004C0008A60816A6FF07062D14201688A6822F0A6
:1004D00070628A6001688A680CD0836A1A438A60F5
:1004E00001688A6822F040528A6001688A68C36A9B
:1004F0001A4301E022F040528A6001688A6822F0C3
:1005000002028A6001688A68037E42EA43028A60C6
:1005100090F82010002901684A680FD042F4006268
:100520004A6001684A6822F460424A6001684A6889
:10053000174C436A04EB43331A4301E022F4006290
:100540004A600168CA6A22F47002CA620168CA6A13
:10055000838B104C04EB03531A43CA6201688A6808
:1005600022F400728A6001688A6890F8303042EAAA
:1005700043228A6001688A6822F480628A60016886
:100580008A68406942EA8020886010BD00230140EB
:1005900000E0FFFF0000F0FF03220249024800F0E4
:1005A00013BB00007C470020DC03002004490968DD
:1005B000884203D199B2104600F004B87047000099
:1005C000CC00002070B50D460646164C01F086FAA8
:1005D00060602A463146A4F1C800FFF782FE294632
:1005E000304600F04BF8A8B1A4F1C80100204A78C9
:1005F0000D4900BF51F830309A420ED101EBC003D3
:100600005B6853B101EBC0004168BDE8704005482C
:10061000C83808470320207070BD401C0B28E9DD56
:1006200070BD000080490020D800002000487047BD
:100630008049002010B500F017F8064C0420207007
:100640000548416811B1A4F5C870884701202070A1
:1006500010BD00008049002030010020FFF7EAFFB4
:10066000012003F0B2FCF9E710B5034C02F056FF8D
:10067000007984F8340010BD8049002030B502783C
:100680005A2A11D14218002312F8014C1A46491E69
:1006900003E0855C521C2B449BB28A42F9DBD8B242
:1006A000A04201D1012030BD002030BDFEE7000096
:1006B000014800F092BC000084040020014800F0D2
:1006C0008CBC0000AC04002010B504460F4A002189
:1006D0000E208AB0944201D1059100E005900122DC
:1006E000CDE9061203910491CDE908200091019112
:1006F00002916946204600F075FB204600F090FE0E
:100700000221204600F0F8FA0AB010BD840400204F
:100710000B690968FFF74ABF08B56B4600F0FEFA9F
:1007200008BD000010B5104CB1EE000A00F026F82C
:100730000E48006800F01BF90D48006800F017F93A
:100740000C48006800F00EF900209FED0B0AA07124
:1007500084ED000A012161712071BDE810404FF461
:10076000FA6001F0C7B80000D0000020BC000020F3
:10077000B8000020B4000020000020429FED0B1ABA
:10078000F0EE400A0A4980EE810A10EE100A884213
:1007900002DC9FED080A06E010EE100A06498842C6
:1007A00001DBB1EE040A00F051B8000000007A4409
:1007B000CDCCCC3D000000000000A040012003F0A3
:1007C00004FCFBE710491148124A91ED030AD0EDF1
:1007D000000A0F4820EE200AD0ED000A20EE200A81
:1007E00010EE100A904201DB9FED0B0ADFED0B0AC1
:1007F0009FED0B1A60EE200A80EE810ABCEEC00A63
:1008000081ED040A7047000094470020C44B0008A3
:10081000C04B0008CDCC8C3FCDCC8C3F0000804538
:1008200033335340064A002106481170916011612C
:1008300000689FED050A506082ED030A00F0CBBE10
:1008400094470020C00000200000000010B5094CB3
:1008500084ED030AFFF7B6FFD4E901010022236902
:1008600000F076FED4E9010100F07FFE0120207047
:1008700010BD000094470020014800F0C9BE0000F0
:10088000E8070020014800F0C3BE0000A8080020CF
:10089000014800F0BDBE000024040020014800F023
:1008A000B7BE000008090020014800F0B1BE0000FA
:1008B0004808002001681823CAB2103AB2FBF3F2CC
:1008C000054B6FF30901032A9B5CC36500D9091D21
:1008D0008165084670470000A04B000810B501462E
:1008E00000208B698A6A4FF0C07453B1B3F5005F82
:1008F00015D072B1012A0CD0022A0AD0032A09D1DC
:1009000004E01AB1012A06D0022A03D1C96AC9013A
:1009100000D5012010BDC96AA142FAD010BD002A3D
:10092000F7D0012AF2D0022AF3D0032AF3D010BD67
:1009300030B50468256825F4802525600468636067
:100940008368402B036803D099600068C26030BDA3
:100950009A600068C16030BD704772B6FEE780EDF6
:10096000010A704781880068002201F0B1B88188CF
:100970000068012201F0ACB8012003F026FBFBE780
:1009800078B50024009490F83C20012A19D0012267
:1009900080F83C200A6807230568092A13D9EE6805
:1009A0000A3A02EB420293409E43EE600B788A685B
:1009B0000A3B03EB43039A400368DD682A43DA608D
:1009C00010E0022078BD2E6902EB420293409E4364
:1009D0002E610B788A6803EB43039A4003681D6914
:1009E0002A431A614A681F23072A13D205686E6BCF
:1009F000521E02EB820293409E436E630B790A887B
:100A00005B1E92B203EB83039A4003685D6B2A433B
:100A10005A6327E005680D2A12D22E6BD21F02EB13
:100A2000820293409E432E630B790A88DB1F92B2A9
:100A300003EB83039A4003681D6B2A431A6311E09A
:100A4000EE6A0D3A02EB820293409E43EE620B790E
:100A50000A880D3B92B203EB83039A400368DD6A78
:100A60002A43DA62164B0568144A9D4206D10D6886
:100A7000122D03D1556845F48005556005689D42E7
:100A800018D10B68102B01D0112B13D1536843F4EC
:100A900000035360096810290CD10A490A4A096801
:100AA000B1FBF2F101EB8101490000E0491E009128
:100AB0000029FBD180F83C40002078BD0023014094
:100AC000002001403800002040420F00704770476E
:100AD000704770B504004FF0000503D0206C00266D
:100AE00010B107E0012070BD204600F01DF86664DB
:100AF00084F83C60206CC00610D4206C20F4885030
:100B000040F0020020642046FFF7B2FC6664206CCF
:100B100020F0020040F00100206400E0012584F88C
:100B20003C60284670BD0000F0B587B00646142131
:100B30006846FFF7EFFB1F493068884238D11E48EE
:100B40000025016841F480710160006800F4807044
:100B5000059019481438016841F0010101600068EE
:100B6000032700F0010005902C20CDE9000769461D
:100B70000295124800F0D0FE124C1148C4E900055D
:100B80000015A560C4E90350800060618000A06189
:100B90008011C4E9070504206062C4E90A75204693
:100BA000256300F005FE08B1FFF7D7FEB463A66326
:100BB00007B0F0BD00200140443802400000024070
:100BC0001064024024040020F8B50E4600210446BB
:100BD000009190F83C00012807D0012084F83C00E7
:100BE00020688368DB0702D011E00220F8BD83682B
:100BF00043F0010383603748374B0068B0FBF3F0E4
:100C000000EB400000E0401E00900028FBD120686F
:100C10008368DB075CD0236C40F20165AB4343F48F
:100C2000807323644068400505D5206C20F4005093
:100C300040F480502064206CC00404D5606C20F027
:100C40000600606400E0616484F83C10A16B2448F5
:100C5000224DC863A16B23480864A16B2248C86475
:100C600021686FF0220008602068416841F08061CF
:100C700041602068816841F4807181602168134679
:100C800032464C31A06B00F0FDFD68681749C00684
:100C9000206806D088421BD1816811F0405F13D0D4
:100CA00016E08842F8D0124A904203D1D1F80423CA
:100CB000D206F1D00F4A90420AD1D1F8041301F0C4
:100CC0001F011029E8D303E0816841F08041816071
:100CD0000020F8BD3800002040420F0000230140F2
:100CE000E3030008670400085104000800200140E5
:100CF000002101400022014090F82020012A07D065
:100D0000022A05D0416A41F48021416201207047E6
:100D1000006842690A43426100207047F0B590F8CC
:100D200020500468A468012D05D0022D03D0416A2B
:100D300041F4802153E014F0406F01D1E5004BD520
:100D4000C4F30164022C03D9416A41F4000146E076
:100D50000125A5401D608D684FF4C0739DB1CE681C
:100D600035434E6845EAC605066803EB0417F5519E
:100D70004FF4C275076805EB04150E697E51097DB5
:100D8000012905D009E00E88CD6845EA4655EBE714
:100D900001684E5946F480764E511179D2F80550CB
:100DA0004FF4C67641EA0525016806EB04168D511D
:100DB0001178D2F801204FF4C47541EA022102688B
:100DC00005EB04155151006803EB0411425842F041
:100DD000010242500020F0BD416A41F4001141621D
:100DE0000120F0BD10B590F82020012A07D0022A7A
:100DF00005D0416A41F480214162012010BD3B4889
:100E0000D0F8002242F00102C0F80022D0F80022FF
:100E100022F47C52C0F80022D0F800224B6A42EA49
:100E20000322C0F800220A7D02F01F0301229A402B
:100E3000D0F81C329343C0F81C32CB69B3B9D0F858
:100E40000C329343C0F80C328C894B6864F31F4317
:100E50004C6900EBC404C4F840320C890B6864F39D
:100E60001F434C6900EBC404C4F84432CB69012B26
:100E700016D1D0F80C321343C0F80C320C884B68F2
:100E800064F31F434C6900EBC404C4F840320C897E
:100E9000CB6864F31F434C6900EBC404C4F84432CC
:100EA0008B69002BD0F804320ED01343C0F8043203
:100EB0000B69002BD0F8143208D01343C0F8143259
:100EC000096A012904D008E09343EFE79343F5E76B
:100ED000D0F81C121143C0F81C12D0F8001221F0F7
:100EE0000101C0F80012002010BD000000640040A5
:100EF000704730B590F82040012C05D0022C03D06B
:100F0000416A41F480215DE00468002955D02469DC
:100F1000A40754D04FF4D874056804EB01142D597C
:100F200015F00405956005682D594ED0ED08556003
:100F300005682C5904F00204D4604FF4DA74056893
:100F400004EB01142D5905F00F05156105682D59A5
:100F5000C5F30725956105682C59240C54614FF49D
:100F6000DC72046802EB0112A4581C700468A458D7
:100F7000240A5C700468A458240C9C700468A2586D
:100F8000120EDA704FF4DE72046802EB0112A458FC
:100F90001C710468A458240A5C710468A458240CC9
:100FA0009C710468A258120EDA71006881B101695F
:100FB00041F020010161002030BDE468A8E7416AEA
:100FC00041F400114162012030BD6D0D1560AFE7A5
:100FD000C16841F02001C160EDE72DE9F05F0546F1
:100FE000006800244669D0F804908768D0F80CB0F7
:100FF000D0F810A0D0F81880F10748D0F90714D025
:1010000001218160B80703D5284600F036FA0CE0CC
:10101000780702D54FF4006407E0380702D54FF493
:10102000805402E0284600F027FAF80516D5296812
:101030004FF480708860B80503D5284600F01FFA89
:101040000CE0780502D544F4005407E0380502D5D9
:1010500044F4804402E0284600F010FAF80316D564
:1010600029684FF480308860B80303D5284600F023
:1010700008FA0CE0780302D544F4004407E0380392
:1010800002D544F4803402E0284600F0F9F9300734
:1010900007D55FEACB6004D52968102044F40074BA
:1010A000C86070074FF0080707D55FEA0B7004D5DA
:1010B0002868C760284600F09BF9B00706D5286865
:1010C000C068800702D0284600F094F9700607D562
:1010D0005FEACA6004D52968102044F4806408617E
:1010E000B00607D55FEA0A7004D52868076128466C
:1010F00000F092F9F00606D528680069800702D052
:10110000284600F08AF9B00308D55FEAC96005D522
:10111000296810204860284600F080F9F00307D5C0
:101120005FEA097004D528684760284600F0AAF9EC
:10113000300446D55FEA497040D5F00504D55FEA32
:10114000C87001D044F00104B00504D55FEA88708E
:1011500001D544F00204700504D55FEA487001D55A
:1011600044F00404300529D518F0700F26D008F09B
:101170007000402815D006DC102809D020280AD09D
:10118000302816D10AE050280ED0602811D10EE088
:1011900044F008040DE044F010040AE044F0200498
:1011A00007E044F0400404E044F0800401E044F42B
:1011B00080742868816921F07001816129680420A8
:1011C0004860002C05D0686A204368622846FFF713
:1011D0008FFEBDE8F09F70B5040003D094F82000A6
:1011E00010B104E0012070BD204600F081F82068B5
:1011F000016821F00201016000F070FC054605263F
:1012000004E000F06BFC401B0A2811D820684068FD
:101210008007F6D42068016841F00101016000F008
:101220005DFC05460BE000F059FC401B0A2806D97E
:10123000606A40F40030606284F82060D2E7206881
:101240004068C007EFD0207E0128206801683DD0AB
:1012500021F080010160607E01282068016838D09B
:1012600021F040010160A07E01282068016833D090
:1012700021F020010160E07E0128206801682ED065
:1012800041F010010160207F01282068016829D009
:1012900021F008010160607F01282068016824D0E6
:1012A00021F004010160D4E902010843D4E90412E9
:1012B000114308436168491E08432168C861002042
:1012C0006062012084F82000002070BD41F08001A0
:1012D000C0E741F04001C5E741F02001CAE721F035
:1012E0001001CFE741F00801D4E741F00401D9E74C
:1012F000F0B587B0044614216846FFF70BF8374B6A
:101300003748DFF8D4E01968D4F800C0344A022521
:101310000326092710300024491CF44524D1196004
:10132000012907D1016841F000710160006800F0F7
:1013300000700590106840F001001060106802AB6A
:1013400000F0010005904FF4C050CDE9000583E89E
:10135000D0006946234800F0DFFA0022052114205E
:1013600000F048FC142033E0DFF87CE0F44531D194
:10137000D0F800C04CF0806CC0F800C0D0F800C0BD
:1013800001290CF0806CCDF814C0196007D10168F8
:1013900041F000710160006800F000700590106875
:1013A00040F002001060106802AB00F002000590EF
:1013B0004FF44050CDE9000583E8D00069460B4862
:1013C00000F0AAFA00220521402000F013FC402082
:1013D00000F002FC07B0F0BD0064004028000020CF
:1013E0003038024000000240006800400004024023
:1013F0007047000010B5074B0446A3F11C02002102
:10140000FFF777FD034A2046BDE81040A2F11C011A
:10141000FFF77EB9B4460020704770477047000060
:1014200070B5044690F82000012804D0606A40F4AA
:101430000020606218E0022084F820002068016823
:1014400021F00101016000F049FB05460EE000BFFC
:1014500000F044FB401B0A2808D9606A40F40030C1
:101460006062052084F82000012070BD206840687B
:10147000C007EDD1606270BD70477047704770471C
:1014800070477047704770B54379012B1AD0012619
:1014900046710223037105682C6840F6FE73934081
:1014A0009C43D1E900310B43934023432B600168F7
:1014B0000B68C0249440A3430B6006710021417166
:1014C000084670BD022070BD70B5040003D02079BD
:1014D000002510B105E0012070BD6571204600F0C7
:1014E00007F802202071256101202071002070BDC5
:1014F00010B586B0044614216846FEF70BFF11496B
:10150000206888421CD110480021026842F0005235
:101510000260006800F0005005900B481038026827
:1015200042F001020260006800F001000590102006
:1015300000900320CDE901016946044800F0ECF970
:1015400006B010BD00740040403802400000024068
:1015500018B5046800940068104421B1143000905C
:101560000360002018BD0830F9E730B54279012A40
:1015700016D0012242710223037103681D6802FA2A
:1015800001F425431D60002901680B680AD00C682E
:1015900003F4802304F46014B3F5802F0FD015E01A
:1015A000022030BD0C6803F0040304F03804042B5F
:1015B0000CD1382C0AD14B6843F0010305E0B4F597
:1015C000601F03D14B6843F002034B60027100219E
:1015D0004171084630BD10B502681468012303FA52
:1015E00001F18C4314600371002010BD90F8351098
:1015F000022903D08021416501207047052180F830
:1016000035100068016821F0010101600020704779
:101610002DE9F84304464FF00009CDF800906348E7
:101620004FF41651A56D0068B0FBF1F72E6894F8E1
:101630005C10082000FA01F131420FD021680A68DD
:1016400052070BD50A6822F004020A6094F85C1075
:101650008840A860606D40F00100606594F85C10FF
:101660004FF0010808FA01F0304208D021684969BA
:10167000090604D5A860606D40F00200606594F82A
:101680005C1004208840304208D02168096889072E
:1016900004D5A860606D40F00400606594F85C10AB
:1016A00010208840304218D021680968090714D5F5
:1016B000A86020680168490304D50068000308D5C4
:1016C000A16C07E00168C90503D4016821F0080195
:1016D0000160216C09B12046884794F85C102020F5
:1016E0008840304231D021680968C9062DD5A860EC
:1016F00094F8350005282068016806D0490347D5CD
:10170000006800031DD4616C1CE021F0160101602B
:101710002068416921F080014161206C08B9A06C0A
:1017200020B12068016821F00801016094F85C1084
:101730003F208840A86084F8349084F83580216D7B
:101740001FE0E16B09B120468847606D00282BD06F
:10175000606DC00714D0052084F83500206801684A
:1017600021F0010101600098401C0090B84203D8AC
:1017700020680068C007F6D184F8349084F835807A
:10178000E16C002910D001B02046BDE8F0430847C5
:101790000168C905D5D4016821F01001016084F801
:1017A000349084F83580CCE7BDE8F8833800002019
:1017B0002DE9F041044600F091F906465CB10025A0
:1017C00084F83450022084F835002068016821F044
:1017D000010101600DE00120BDE8F08100F07EF91B
:1017E000801B052805D920206065032084F835007A
:1017F000F2E720680068C007F0D12268116820482D
:101800000140D4E901031843D4E9033633431843B4
:1018100063691843A3691843E3691843236A1843AB
:101820000843616A042903D1D4E90B13194308431F
:10183000106020684069666A20F0070130460E4358
:10184000012704280CD1A06A0643E06A40B1204673
:10185000FFF744F820B14020606584F83570BAE79E
:10186000206846612046FFF725F894F85C203F2168
:1018700091408160656584F835700020ACE7000018
:101880003F8010F02DE9F0410446866D90F8340059
:10189000002501280DD0012084F8340094F835701B
:1018A0000020012F07D084F8340002252846BDE827
:1018B000F0810220FBE7022784F83570606520463E
:1018C000FFF736F894F85C103F208840B06020683D
:1018D000016841F016010160206C20B120680168A8
:1018E00041F0080101602068016841F001010160D8
:1018F000DCE7000070B5044600F0F0F80546601C17
:1019000002D004480078044400F0E8F8401BA042EC
:10191000FAD370BD2C0000202DE9F84F00224FF0C3
:10192000010803254FF00F0E0B6808FA02F423405C
:10193000A3426ED14E68012E05D0022E03D0112E87
:1019400001D0122E12D186684FEA420C05FA0CF72C
:10195000BE43CF6807FA0CF7374387604668A64353
:101960000C79C4F30014944034434460C6685700B3
:1019700005FA07FC8C6826EA0C06BC403443C460B8
:101980004C68022C01D0122C13D1D40800EB840433
:10199000A346D4F8209054074FEAD46A0EFA0AF608
:1019A00029EA06090E6906FA0AF646EA0906CBF89C
:1019B000206006680C7926EA0C0604F00304BC409B
:1019C000344304604C68E40065D5364C266846F420
:1019D00080462660246822F0030604F480440094C4
:1019E000314C3444A446D4F808489607370F0EFA11
:1019F00007F6B4432D4EB04201D1002624E02C4E10
:101A0000B04201D101261FE02A4EB04202D1022687
:101A10001AE040E0284EB04201D1032614E0274EE0
:101A2000B04201D104260FE0254EB04201D1052677
:101A30000AE0244EB04201D1062605E0224EB04213
:101A400001D1072600E00826BE402643CCF80868EE
:101A50001E4E34684F689C43FF0300D51C4334601E
:101A60001A4C241D26684F689E43BF0300D51E43B1
:101A70002660164E083634684F689C43FF0200D536
:101A80001C433460114E0C3634684F689C43BF02CF
:101A900000D51C433460521C102AFFF445AFBDE84A
:101AA000F88F00004438024000300140000002403E
:101AB0000004024000080240000C024000100240F6
:101AC0000014024000180240001C0240003C01408B
:101AD0000AB1816170470904FBE700000148806892
:101AE000704700002C0000200248816802781144F1
:101AF000816070472C0000200B4810B5016841F44C
:101B000000710160016841F480610160016841F485
:101B100080710160032000F08DF8002000F006F8CD
:101B200000F03EF8002010BD003C024010B5014618
:101B300088B00022372000F05DF8372000F04CF824
:101B400013480024016841F020010160006805A9E4
:101B500000F020000690684600F018F900F036F911
:101B60000C494000B0FBF1F10C480B4A491E0260E1
:101B700040F2E732C0E90324C0E9011400F070FB31
:101B800010B1012008B010BD044800F0D5FBF9E702
:101B90004038024040420F00001400406809002015
:101BA0000C4882B0016841F480410160006800F493
:101BB000804000900748001F016841F0805101609B
:101BC0000068002200F0805000900F21901E02B0AB
:101BD00000F010B844380240002809DB00F01F0272
:101BE000012191404009800000F1E020C0F800117F
:101BF00070470000F0B40E4B1B680C46C3F3022381
:101C0000C3F10705042D00D90425191D072901D2A8
:101C1000002300E0DB1E012606FA05F1491E2140E3
:101C200099409E40761E16403143F0BC01F0E2BF61
:101C30000CED00E0064900F0070208684FF6FF03CC
:101C4000184040EA0220034A104308607047000031
:101C50000CED00E00000FA052DE9F0470E46050006
:101C600065D0DFF81481D8F80000F7B200F00F005B
:101C7000B04207D288F80070D8F8000000F00F00DA
:101C8000B04254D128683D4C810712D5400703D596
:101C9000206840F4E05020602878000703D52068D1
:101CA00040F4604020602068A96820F0F0000843FC
:101CB00020602878C0072DD030496868083901288D
:101CC00012D0022813D0032811D0096889070029EF
:101CD0002DDA216821F0030101432160FFF7FEFEA8
:101CE000814641F2883A0EE009688903EFE7096806
:101CF0008901ECE7FFF7F2FEA0EB0901514502D99B
:101D00000320BDE8F0872068696800F00C00B0EBA4
:101D1000810FEFD1D8F80010404601F00F01B14219
:101D200007D90770006800F00F00B04201D0012011
:101D3000E7E72878400705D52068E96820F4E050F7
:101D4000084320602878000706D52068296920F418
:101D5000604040EAC100206000F058F82168084A5D
:101D6000C1F30311515CC840064908600648006889
:101D7000FFF7DCFE0020C4E7003C024008380240C8
:101D8000A84B000838000020300000200F2202601D
:101D90000C4A136803F003034360136803F0F00375
:101DA0008360136803F4E053C36012684FF4E05398
:101DB00003EAD20202610448006800F00F000860E4
:101DC0007047000008380240003C024004480549C2
:101DD00000680968044AC1F38221515CC840704719
:101DE0003800002008380240B84B00080448054974
:101DF00000680968044AC1F34231515CC840704729
:101E00003800002008380240B84B0008154810B5CB
:101E1000006810F00C02144813D01449042A0FD0A3
:101E2000082A0ED10F4C241F2268236802F03F02BB
:101E30005B0207D52068C0F38810A0FB010106E013
:101E4000084610BD2168C1F38811A1FB00010023E1
:101E5000FEF716FA2168C1F30141491C4900B0FBA5
:101E6000F1F010BD083802400024F400001BB70058
:101E70002DE9F84F04006ED02078DFF83C93C007BE
:101E8000A9F104054AD009F104000168C1F38101F8
:101E9000012908D00068C0F3810002280AD1D9F8CE
:101EA0000000400206D52868800337D56068002806
:101EB000E1D033E06068B0F5803F10D0B0F5A02FDE
:101EC000286810D020F480302860286820F4802012
:101ED00028606068A8B1FFF701FE06460DE028689B
:101EE00040F48030F4E740F480202860F7E700BF3A
:101EF000FFF7F4FD801B642873D828688003F7D5AA
:101F00000CE0FFF7EBFD064605E000BFFFF7E6FD3E
:101F1000801B6428F0D828688003F7D42078DFF885
:101F20009C8280074FF0000A3ED5A348001D01683F
:101F300011F00C0F08D00068C0F3810002280BD10B
:101F4000D9F80000400207D42868800716D5E06859
:101F5000012800D112E02BE1E068B8B10120C8F8F7
:101F60000000FFF7BBFD064605E000BFFFF7B6FD2A
:101F7000801B0228C0D828688007F7D52868216907
:101F800020F0F80040EAC10028600DE0C8F800A089
:101F9000FFF7A4FD064604E0FFF7A0FD801B022822
:101FA0001FD828688007F7D42078000722D5824EF2
:101FB00083486169703671B101210160FFF78EFDC0
:101FC000074604E0FFF78AFDC01B022809D83068E5
:101FD0008007F7D50EE0C0F800A0FFF77FFD0746A9
:101FE00005E082E0FFF77AFDC01B02287DD830684B
:101FF0008007F7D42078400768D5DFF8BCB1002708
:102000000BF13C0BDBF80000C0000BD4DBF8001038
:1020100041F08051CBF80010DBF80000012700F000
:1020200080500090674E3068C00510D4306840F48E
:1020300080703060FFF752FD009005E0FFF74EFD25
:102040000099401A022850D83068C005F6D55A4E7B
:10205000A0686C3601280FD00528306810D020F019
:1020600001003060306820F004003060A068B8B132
:10207000FFF734FD00900FE0306840F00100F4E716
:1020800040F004003060F7E7FFF728FD0099411A9F
:1020900041F28830814266D830688007F4D50EE07E
:1020A000FFF71CFD009007E0FFF718FD0099411AAB
:1020B00041F28830814256D830688007F4D42FB17D
:1020C000DBF8001021F08051CBF80010A069C8B3F4
:1020D0003949091D0968C1F3810102294AD0022842
:1020E000504607D0C8F8600000E03CE0FFF7F6FC7F
:1020F00004463BE04746C8F86000FFF7EFFC0646A1
:1021000005E000BFFFF7EAFC801B02282BD82868F7
:102110008001F7D4D4E907010843A16A2A4A490893
:1021200002EB0141626A41EA8211084394F82C10E3
:1021300040EA0161C9F8001001203866FFF7CEFCC3
:10214000044606E036E000BFFFF7C8FC001B02288B
:1021500009D828688001F7D52CE000BFFFF7BEFC46
:10216000001B022802D90320BDE8F88F28688001EF
:10217000F4D41FE00128F7D0D9F80000E26900F498
:102180008001914214D1226A00F03F0191420FD1A7
:1021900047F6C071626A0140914209D1A26A00F417
:1021A0004031914204D1E16A00F07060884201D070
:1021B0000120D9E70020D7E7043802400000474259
:1021C000800E4742007000400000FFFF70477047DC
:1021D00070B590F83C20012A32D0012480F83C40B0
:1021E000022280F83D2003685A689D6822F070063C
:1021F0000A6832435A60134B02689A4214D0B2F113
:10220000804F11D0104B9A420ED0104B9A420BD0F7
:102210000F4B9A4208D00F4B9A4205D00E4B9A4270
:1022200002D00E4B9A4204D1496825F0800319432D
:10223000916080F83D40002180F83C10084670BD58
:10224000022070BD00000140000400400008004072
:10225000000C004000040140004001400018004014
:1022600010B5040003D094F83D0010B107E0012040
:1022700010BD002084F83C00204600F00DF802203C
:1022800084F83D00211D206801F0ECF9012084F85C
:102290003D00002010BD000008B52149026821481A
:1022A0008A4205D1016841F001010160006812E035
:1022B0001C49091FB2F1804F08D01B4B9A420ED126
:1022C000086840F002000860086810E0086840F004
:1022D00001000860086800F00100009008BD134B81
:1022E0009A4207D1016841F002010160006800F0E4
:1022F0000200F2E70E4B9A4207D1016841F48031A7
:102300000160006800F48030E7E70A488242E5D1C6
:10231000086840F040000860086800F04000DCE712
:102320000000014044380240000400400004014025
:1023300000400140001800400168CA6842F00102F4
:10234000CA600068816801F00701062903D00168AE
:1023500041F0010101600020704770B5044690F81B
:102360003C00012817D0012584F83C50022084F855
:102370003D002068826822F0770222F47F4282606A
:102380000868502830D00DDC20284DD005DC98B3EB
:1023900010283BD148E0022070BD302844D04028AE
:1023A00034D139E0602828D0702806D0B0F5805F9D
:1023B0002CD0B0F5005F29D10AE0CB68D1E901212A
:1023C000206801F0B3F92068816841F0770109E0E5
:1023D000CB68D1E90121206801F0A8F92068816863
:1023E00041F48041816011E0CA684968206801F0C9
:1023F00071FA5021206807E016E0CA684968206831
:1024000001F079FA6021206801F09AF984F83D50D2
:10241000002084F83C0070BDCA684968206801F05B
:1024200059FA40212068EFE7226801461046EBE7A1
:102430002DE9F0410D46040003D094F83D0018B199
:1024400008E00120BDE8F081002084F83C0020462F
:1024500000F03AF8022084F83D002068816844F2D8
:10246000070291438160211D206801F0FBF822687A
:1024700090689169166A2B68AF69034340F2033094
:10248000814341EA0721A868EF6908434FF6FC4100
:102490008843E96840EA0720014328692F6A000160
:1024A00040EA0730084369686D6926F0AA0646EAE3
:1024B000051529439360226890612068016201201C
:1024C00084F83D000020BDE730B587B004461421F4
:1024D0006846FDF71FFF204824681E4D00221E4954
:1024E00010380223AC4216D10C6844F004040C608E
:1024F000096801F004010591016841F002010160E1
:102500000068694600F002000590C0200090CDE907
:102510000132124818E0124DAC4219D10C6844F057
:1025200008040C60096801F008010591016841F098
:10253000010101600068694600F001000590032078
:102540000090CDE901320748CDE90323FFF7E4F914
:1025500007B030BD0008004040380240000402408F
:10256000000C004000000240704770B5044600684F
:1025700001694FF00005C943890715D4C168C943F3
:10258000890711D4E91E0161012020772068806944
:102590008007204602D0FFF7E7FF04E000F0EEF8E6
:1025A000204600F070F9257720680169C943490782
:1025B00017D4C168C943490713D46FF004010161FE
:1025C000022020772068806910F4407F204602D0E6
:1025D000FFF7CAFF04E000F0D1F8204600F053F9FD
:1025E000257720680169C943090716D4C168C94322
:1025F000090712D46FF008010161042020772068D8
:10260000C0698007204602D0FFF7AEFF04E000F06B
:10261000B5F8204600F037F9257720680169C943ED
:10262000C90617D4C168C943C90613D46FF0100195
:102630000161082020772068C06910F4407F20469F
:1026400002D0FFF791FF04E000F098F8204600F078
:102650001AF9257720680169C943C90708D1C168FB
:10266000C943C90704D1891E0161204600F00CF955
:1026700020680169C943090609D4C168C94309062C
:1026800005D46FF0800101612046FFF79FFD2068AF
:102690000169C943490609D4C168C943490605D43B
:1026A0006FF040010161204600F0F8F820680169F0
:1026B000C94389060BD4C168C943890607D46FF0A2
:1026C000200101612046BDE87040FFF780BD70BD6C
:1026D00030B587B0044614216846FDF71BFE21681B
:1026E000002421480225B1F1804F29D01F4A914290
:1026F00024D1016841F004010160016801F0040186
:102700000591016841F0020101600068694600F02E
:102710000200059050150090CDE901541448CDE910
:102720000345FFF7F9F810200090CDE90154114856
:102730006946CDE9034500BFFFF7EEF807B030BDAD
:10274000016841F0010101600068694600F0010084
:1027500005904FF400400090CDE901540120CDE9EF
:1027600003400548E8E7000030380240000400401C
:10277000000802400004024000000240704770B5AB
:10278000044690F83C000D4601280DD0012684F83F
:102790003C60022084F83D0042B1042A18D0082A87
:1027A0002AD00C2A4DD139E0022070BD206800F0FB
:1027B000CFFF2068816941F008018161206881694B
:1027C00021F004018161206881692A69114311E0C7
:1027D000206800F0EDFF2068816941F400618161AB
:1027E0002068816921F480618161206881692A699A
:1027F00041EA0221816124E0206801F00FF820689D
:10280000C16941F00801C1612068C16921F004017A
:10281000C1612068C1692A69114311E0206801F093
:1028200031F82068C16941F40061C1612068C16963
:1028300021F48061C1612068C1692A6941EA0221ED
:10284000C16184F83D60002084F83C0070BD10B583
:10285000040003D094F83D0010B107E0012010BD42
:10286000002084F83C00204600F00CF8022084F898
:102870003D00211D206800F0F5FE012084F83D0098
:10288000002010BD7047704700680349884201D19D
:10289000FFF72AB9704700000014004070477047E6
:1028A00070B5026804461068D168536910F00F0FC4
:1028B00052D003F0010501F490762E435FD0C20799
:1028C00005D0CA0503D5E26B42F00102E26342077C
:1028D00005D5DA0703D0E26B42F00202E263820719
:1028E00005D5DA0703D0E26B42F00402E263020787
:1028F00007D501F020022A4303D0E26B42F0080220
:10290000E263E26B002A33D0800604D5880602D544
:10291000204601F025F820684069E16BC0F3801083
:10292000090700D428B3204601F00CF8206841695B
:1029300049061AD5416921F040014161606BA0B19F
:102940001B490165606BFEF751FE002810D0606BDB
:10295000016DBDE870400847830610D58B060ED583
:102960002046BDE8704000F0FBBF2046FFF797FF10
:1029700070BD2046FFF793FF0020E06370BD0306A3
:1029800006D50B0604D52046BDE8704001F0C8B856
:102990004006F3D54806F1D5D168204621F0400124
:1029A000D160202184F8391000F099F970BD000041
:1029B0003539000870B5040004D094F839000025BA
:1029C00010B106E0012070BD84F83850204600F0B8
:1029D00023F8242084F839002068C16821F40051CC
:1029E000C160204601F008F82068016921F4904197
:1029F00001612068416921F02A0141612068C168B4
:102A000041F40051C160E563202084F8390084F866
:102A10003A00002070BD00002DE9F04F87B0054658
:102A200014216846FDF776FCA0489F4B1038D5F876
:102A300000C00024DFF874A20221032206158715C6
:102A40004FF0080E4FF000699C4557D1DAF800C0EE
:102A50004CF4801CCAF800C0DAF8003003F480138C
:102A60000593036843F004030360036803F0040361
:102A70000593036843F00803036000688B4600F089
:102A800008000590C802CDE900010120CDE902024D
:102A90009246F0466946CDF810E08548FEF73CFFC7
:102AA0000420CDE9000B0120CDE9020A6946CDF8EA
:102AB00010808048FEF730FFDFF800827E494046F4
:102AC000C8F80010C0E90194C0E90346C8F81440F2
:102AD000C0E90647C8F82040C8F82440FEF768FE61
:102AE00008B1FDF73AFFC5F83480002205213520F2
:102AF000C8F83850FFF77EF8352046E06B4BDFF81A
:102B0000C0811B1D4FF0070BC44543D1D3F800C053
:102B10004CF0100CC3F800C01B6803F010030593C1
:102B2000036843F001030360006800F001000590B2
:102B30004FF4C0608DE81300CDE9032B694661486E
:102B4000FEF7EAFEDFF874815F4908F1600840464D
:102B5000C8F80010C0E90194C0E90346C8F8144061
:102B6000C0E90647C8F82040C8F82440FEF720FE18
:102B700008B1FDF7F2FEC5F83480002205212520BA
:102B8000C8F83850FFF736F82520FFF725F807B0CA
:102B9000BDE8F08FDFF83481C44541D1DAF800C0D8
:102BA0004CF4802CCAF800C0DAF8003003F480231B
:102BB0000593036843F002030360006800F002001D
:102BC00005904FF440608DE81300CDE9032B694672
:102BD0003F48FEF7A1FEDFF8E480374908F1C0085E
:102BE00018314046C8F80010C0E90194C0E9034616
:102BF000C8F81440C0E90647C8F82040C8F8244087
:102C0000FEF7D6FD08B1FDF7A8FEC5F83480002216
:102C100005212720C8F83850FEF7ECFF2720B4E73D
:102C2000DFF8B080C445B2D1D3F800C04CF0200C1E
:102C3000C3F800C01B6803F020030593036843F04A
:102C400004030360006800F004000590C0208DE8D4
:102C50001300CDE9032E69461548FEF75DFE1A49BB
:102C6000DFF8748018394046C8F800108905C0E9BB
:102C70000114C0E90346C8F81440C0E90647C8F883
:102C80002040C8F82440FEF793FD08B1FDF765FE2B
:102C9000C5F83480002205214720C8F83850FEF7D7
:102CA000A9FF472071E70000005000404038024073
:102CB00000080240000C024010600240E8070020BB
:102CC0000010014000000240406402400048004003
:102CD00000040240001401400809002070477047BA
:102CE000FEE7000010B500F01DFCFDF79BFD03485A
:102CF000FDF7EAFCBDE81040FDF714BDAC04002070
:102D00007FB500211F480091019102911C4A039157
:102D1000026001244FF480320461C0E9012104768D
:102D200080F82010184AC0E90A210325C561C16056
:102D300080F830404161FDF7CCFE08B1FDF70DFE93
:102D40000226CDE9006469460E480294FDF718FE9C
:102D500008B1FDF702FECDE9005669460948FDF7C6
:102D60000FFE08B1FDF7F9FD0520CDE90005694624
:102D70000448FDF705FE002801D0FDF7EEFD7FBDFC
:102D800000200140DC0300200100000F0F4810B5B7
:102D90000D4901600321416000214FF40022816050
:102DA000C0E903124FF44012426101764176817608
:102DB000C17601774177FEF70EFA002803D0BDE80F
:102DC0001040FDF7CABD10BD00640040840400201F
:102DD0000F4810B50D4901600321416000214FF4F7
:102DE00000228160C0E903124FF440124261017673
:102DF00041768176C17601774177FEF7ECF90028BC
:102E000003D0BDE81040FDF7A8BD10BD006800402C
:102E1000AC0400201CB500240C4900940A4801941D
:102E200008600846FEF750FB08B1FDF796FD0094D8
:102E30000022694605480194FEF725FB002801D0D1
:102E4000FDF78BFD1CBD000000740040D404002081
:102E50001D4808B5016841F400110160016801F4E2
:102E600000110091016841F48001016000680022B6
:102E700000F48000009005210B20FEF7BBFE0B2024
:102E8000FEF7AAFE002205210C20FEF7B3FE0C205F
:102E9000FEF7A2FE002205213820FEF7ABFE382007
:102EA000FEF79AFE002205213920FEF7A3FE392005
:102EB000FEF792FE002205213A20FEF79BFEBDE8B8
:102EC00008403A20FEF788BE3038024010B5C6B040
:102ED0001C2237496846FDF704FA0021684601F0D4
:102EE00080F8344C32491C2220601C3107A8FDF7C1
:102EF000F8F9002107A801F074F82D4960601C2240
:102F000038310EA8FDF7EDF900210EA801F069F89F
:102F10002749A0601C22543115A8FDF7E2F90021D1
:102F200015A801F05EF82249E0601C2270311CA84F
:102F3000FDF7D7F900211CA801F053F81C492061C6
:102F40001C228C3123A8FDF7CCF9002123A801F025
:102F500048F8174960611C22A8312AA8FDF7C1F979
:102F600000212AA801F03DF81149A0611C22C431BA
:102F700031A8FDF7B6F9002131A801F032F80C496B
:102F8000E0611C22E03138A8FDF7ABF9002138A838
:102F900001F027F8064920621C22FC313FA8FDF70A
:102FA000A0F900213FA801F01CF8606246B010BDF6
:102FB000884A0008000000202DE9F04786B014215F
:102FC0006846FDF7A7F930480024016841F0800108
:102FD0000160016801F080010591016841F0010183
:102FE0000160016801F001010591016841F00401EF
:102FF0000160016801F004010591016841F00201DE
:103000000160016801F002010591016841F00801C9
:1030100001600068DFF8748000F008004FF49875D4
:103020000590002229464046FEF752FDDFF86090E9
:103030004FF44046002231464846FEF749FDDFF88E
:1030400054A04FF48077002239465046FEF740FDE9
:1030500000950125CDE90154694640460394FEF7E9
:103060005BFC0096CDE90154694648460394FEF79F
:1030700053FC0097CDE90154694650460394FEF78E
:103080004BFC06B0BDE8F087303802400008024033
:1030900000040240000002401FB5002110480091CA
:1030A000019102910D4A0391C0E900214FF6FF7290
:1030B000C0E9021201618161FFF7D2F808B1FDF7A2
:1030C0004CFC4FF48050009069460548FFF745F9E5
:1030D000002801D0FDF741FC1FBD00000018004092
:1030E000A806002010B586B000241748009401946B
:1030F00002940394049413490594C0E900144FF614
:10310000FF71C0E90241046144618461FFF7A8F8DE
:1031100008B1FDF722FC4FF48050009069460A4840
:10312000FFF71BF908B1FDF718FC049404A9064841
:103130000594FFF74DF8002801D0FDF70EFC06B00E
:1031400010BD000000000140E804002010B58EB062
:1031500000240794089409940A940B941C2168464F
:103160000C94FDF7D7F81D484FF080410160A7216E
:10317000C0E901146321C0E903148461FFF770F80A
:1031800008B1FDF7EAFB4FF48050079007A91348F8
:10319000FFF7E3F808B1FDF7E0FB1048FFF757FB36
:1031A00008B1FDF7DAFB0B940BA90C480C94FFF760
:1031B0000FF808B1FDF7D1FB6020CDE900040294BF
:1031C0000022694605480494FFF7D9FA08B1FDF7D3
:1031D000C4FB0248FFF77CFA0EB010BD28050020A2
:1031E00010B58EB000240794089409940A940B94A7
:1031F0001C2168460C94FDF78DF822482049016097
:10320000A721C0E9011440F2CF71C0E90314846121
:10321000FFF726F808B1FDF7A0FB4FF480500790A8
:1032200007A91848FFF799F808B1FDF796FB15486C
:10323000FFF70DFB08B1FDF790FB0B940BA91148AC
:103240000C94FEF7C5FF08B1FDF787FB6020CDE9C0
:1032500000040294002269460A480494FFF78FFA9A
:1032600008B1FDF77AFB0C2269460648FFF787FA9A
:1032700008B1FDF772FB0348FFF72AFA0EB010BD44
:10328000000400406805002010B58CB02421684679
:10329000FDF740F800241648099414490A94C0E93F
:1032A00000144FF6FF71C0E90241046184610320FC
:1032B000CDE900040120CDE9020405210491CDE906
:1032C0000540CDE9074169460948FFF7B1F808B163
:1032D000FDF743FB099409A905480A94FEF778FF16
:1032E000002801D0FDF739FB0CB010BD00080040EC
:1032F000A805002010B58CB024216846FDF70AF817
:1033000000241648099414490A94C0E90014611E67
:10331000C0E90241046184610320CDE90004012079
:10332000CDE9020405210491CDE90540CDE907412D
:1033300069460A48FFF77CF808B1FDF70EFB0994CF
:1033400009A906480A94FEF743FF002801D0FDF7BB
:1033500004FB0CB010BD0000000C0040E80500208C
:1033600010B586B000241748009401940294039489
:10337000049413490594C0E900144FF6FF71C0E9A5
:103380000241046144618461FEF76AFF08B1FDF700
:10339000E4FA4FF48050009069460A48FEF7DDFFDA
:1033A00008B1FDF7DAFA049404A906480594FEF77B
:1033B0000FFF002801D0FDF7D0FA06B010BD0000C5
:1033C00000040140280600201FB50021104800918C
:1033D000019102910D4A0391C0E900214FF6FF725D
:1033E000C0E9021201618161FEF73AFF08B1FDF701
:1033F000B4FA4FF48050009069460548FEF7ADFFDF
:10340000002801D0FDF7A9FA1FBD000000400140CF
:10341000680600200C4810B50A4901604FF4E131FC
:103420004160002181600C22C160C0E90412816109
:10343000C161FFF7BFFA002803D0BDE81040FDF7D7
:103440008CBA10BD00500040E80600200D4810B5B1
:103450000B4901600C49416000214FF4806281609A
:10346000C0E903120C22C0E90521C161FFF7A2FAED
:10347000002803D0BDE81040FDF76FBA10BD000072
:103480000010014028070020A08601000C4810B55C
:103490000A4901604FF4E1314160002181600C2252
:1034A000C160C0E904128161C161FFF783FA00289D
:1034B00003D0BDE81040FDF750BA10BD00480040F1
:1034C000680700200D4810B50B4901604FF4E13149
:1034D000416000214FF4C0628160C0E903120C22F8
:1034E000C0E90521C161FFF765FA002803D0BDE8F6
:1034F0001040FDF732BA10BD00140140A8070020AB
:10350000FEE7642000F061FDFBE7FEE7C82000F065
:103510005CFDFBE7012000F058FDFBE70048704729
:10352000C400002010B52DED028BFDF735F89FED9E
:103530000C8A0A48B0EE480AFDF711FA0748B0EEC7
:10354000480A1830FDF70BFAB0EE480ABDEC028BC2
:103550000248BDE810400C30FDF701BAB447002026
:10356000CDCCCC3D012000F030FDFBE7012000F088
:103570002CFDFBE7012000F028FDFBE710B55020F3
:1035800080F31188BFF34F8FBFF36F8F01F0B6F94F
:1035900018B104494FF080500860002080F3118872
:1035A00010BD000004ED00E030B593B03021684656
:1035B000FCF7B0FE14210CA8FCF7ACFE1D4800255A
:1035C000016841F080510160006800F08050119066
:1035D0001948016841F4804101600068022400F448
:1035E0008040119001200090000401908001CDE9FD
:1035F000064006200890A820CDE9090404200B907D
:103600006846FEF735FC08B172B6FEE70CA90F203C
:1036100081E831004FF4A0500F904FF4805010908B
:1036200005210CA8FEF718FB002801D072B6FEE7B2
:1036300013B030BD403802400070004005480168BA
:1036400041F47001016003494FF000608039086067
:103650007047000088ED00E00148FEF786BF0000DB
:1036600068090020F0B50268254C264D264E274FEC
:10367000274B4FF0804CA04209D0604507D0A842AC
:1036800005D0B04203D0B84201D0984204D122F014
:10369000700E4A6842EA0E02A0421BD0604519D063
:1036A000A84217D0B04215D0B84213D0984211D0DA
:1036B000184DA8420ED0184DA8420BD0174DA84265
:1036C00008D0174DA84205D0164DA84202D0164D7D
:1036D000A84203D122F44075CA682A434D6922F0FA
:1036E00080022A4302608A68C2620A688262A0423B
:1036F00001D0984201D10969016301214161F0BD06
:10370000000001400004004000080040000C0040A0
:1037100000040140004001400044014000480140D5
:1037200000180040001C00400020004010B58468D4
:1037300042EA032224F47F440A432243826010BDFC
:10374000826822F070020A4342F0070181607047EC
:10375000F0B5026A22F001020262036A42688469DB
:10376000124E24F073050C682C4323F002058B687D
:103770002B430D4DA84201D0B04205D123F00807DC
:10378000CB683B4323F00403A84201D0B04205D1EB
:103790004D6922F4407215438A692A43426084616C
:1037A000496841630362F0BD00000140000401402C
:1037B000F0B5026A22F010020262026A436884696C
:1037C0000D6824F4E64444EA05248D6822F02002C2
:1037D00042EA05120F4D104EA84201D0B04206D168
:1037E000CF6822F0800242EA071222F04002A8428B
:1037F00001D0B04207D14D6923F4406343EA850309
:103800008D6943EA8503436084614968816302628C
:10381000F0BD00000000014000040140F0B5026A64
:1038200022F480720262026A4368C46922F4007260
:1038300024F073050C68124E2C438D6842EA052271
:103840000E4DA84201D0B04206D1CF6822F40062EA
:1038500042EA072222F48062A84201D0B04207D196
:103860004D6923F4405343EA05138D6943EA051378
:103870004360C4614968C1630262F0BD0000014059
:103880000004014030B5026A22F480520262046AE8
:103890004268C3690D6823F4E64343EA05238D6853
:1038A00024F4005444EA0534084DA84202D0084DDF
:1038B000A84204D14D6922F4804242EA8512426056
:1038C000C36149680164046230BD0000000001402A
:1038D0000004014010B5036A046A24F00104046284
:1038E000846924F0F00444EA021423F00A020A4333
:1038F0008461026210BD10B5036A23F010030362F5
:103900008369046A23F4704343EA023224F0A0037B
:1039100043EA01118261016210BD000010B5044844
:1039200000F054F9BDE810400148FEF7B9BF0000AF
:10393000E806002010B5806B0021C185C184FEF728
:10394000AEFF10BD0168CA6822F49072CA600168B7
:103950004A6922F001024A61202180F83A1070473A
:1039600010B590F83A10222901D0022010BD8168CC
:10397000B1F5805F11D00169002901681FD0496845
:1039800001F07F03816A4A1C82620B70C18D491E5F
:103990000904090CC18518D02BE00269816A002A4C
:1039A0000268526805D0D2B20A80816A491C8162DD
:1039B000ECE7C2F308020A80816A891CF7E74A68CB
:1039C000816A4B1C83620A70E0E70168CA6822F0D2
:1039D0002002CA600168CA6822F48072CA60016865
:1039E0004A6922F001024A61202180F83A10FFF76B
:1039F00075F9002010BD00002DE9F0410446006873
:103A00000169E26821F44051114301612169A06814
:103A1000E26908436169114308432168CA6849F2B1
:103A20000C639A430243CA6020684169A26921F489
:103A3000407111434161E069192764253226B0F5D0
:103A4000004F354A354920684FF0000806D08842BB
:103A500001D0904236D1FEF7C9F935E0884201D055
:103A6000904202D1FEF7C2F901E0FEF7AFF96168BA
:103A70004A18A0FB070148EB0803FCF701FC0146CC
:103A8000B0FBF5F00201B1FBF5F06FF018035843FD
:103A900001EB800006EBC000B0FBF5F000F0F80091
:103AA00002EB4002B1FBF5F0584301EB800006EB5E
:103AB000C000B0FBF5F000F00700216810448860FA
:103AC000BDE8F081FEF782F961688B0F8A00A0FBE8
:103AD0000701FCF7D5FB0146B0FBF5F06FF01802CB
:103AE000504301EB800006EB0010B0FBF5F000F056
:103AF000F002B1FBF5F002EB0012B1FBF5F06FF054
:103B00001803584301EB800006EB0010B0FBF5F002
:103B100000F00F00D1E70000001401400010014048
:103B200090F83910212901D0022070478168B1F541
:103B3000805F016A0BD04A1C0262026809785160FA
:103B4000C18C491E0904090CC1840ED017E00988F4
:103B50000268C1F30801516001690029016A02D0BD
:103B6000491C0162ECE7891CFBE70168CA6822F086
:103B70008002CA600068C16841F04001C160002055
:103B80007047000010B5044800F020F8BDE8104070
:103B90000148FEF785BE00002807002010B5044844
:103BA00000F014F8BDE810400148FEF779BE0000AF
:103BB0006807002010B5044800F008F8BDE8104080
:103BC0000148FEF76DBE0000A807002008B5006898
:103BD0000168C90605D5C168C90602D501684068F3
:103BE000009008BDFEE77047FFF7FDFF012000F0E1
:103BF000ECF9F9E70907090E002804DB00F1E020E1
:103C000080F80014704700F00F0000F1E02080F809
:103C1000141D704702E008C8121F08C1002AFAD11B
:103C200070477047002001E001C1121F002AFBD13C
:103C30007047704710B50446FCF7F8FC002222607C
:103C400062600E4A0C4912782270C222627010F82B
:103C5000332FA2704078E07000221046235C401C95
:103C60001A4492B20728F9DB0548E271224600683F
:103C7000BDE81040FCF750BDE8490020C84B0008E3
:103C8000CC00002070B50F4C05462069401C206117
:103C9000FDF724FF21694FF47A725143B1FBF0F034
:103CA00000EE100AB8EE400A84ED050AFCF7BEFCEF
:103CB0000446A81C00F052F9E081281D00F04EF9DE
:103CC000A08270BD3801002070B50D4C05462068FB
:103CD000401C2060FDF702FF21684FF47A725143C7
:103CE000B1FBF0F000EE100AB8EE400A84ED010AD4
:103CF000FCF79CFCA97800F8331FE978417070BD8F
:103D00003801002070B50E4C0546206C401C206424
:103D1000FDF7E4FE216C4FF47A725143B1FBF0F0F1
:103D200000EE100AB8EE400A84ED110AFCF77EFCA2
:103D30000446A81C00F00EF984ED0A0A70BD0000CC
:103D40003801002070B50E4C0546A06C401CA064E4
:103D5000FDF7C4FEA16C4FF47A725143B1FBF0F051
:103D600000EE100AB8EE400A84ED130AFCF75EFC80
:103D70000446A81C00F0EEF884ED0B0A70BD0000AC
:103D80003801002070B50F4C0546A069401CA061A9
:103D9000FDF7A4FEA1694FF47A725143B1FBF0F034
:103DA00000EE100AB8EE400A84ED070AFCF73EFC6C
:103DB0000446A81C00F0D2F82082281D00F0CEF89E
:103DC000608270BD3801002070B50E4C0546206B36
:103DD000401C2063FDF782FE216B4FF47A72514341
:103DE000B1FBF0F000EE100AB8EE400A84ED0D0AC7
:103DF000FCF71CFC0446A81C00F0ACF884ED070A94
:103E000070BD00003801002070B50E4C0546A06B57
:103E1000401CA063FDF762FEA16B4FF47A72514320
:103E2000B1FBF0F000EE100AB8EE400A84ED0F0A84
:103E3000FCF7FCFB0446A81C00F08CF884ED080A93
:103E400070BD00003801002070B5124D0446286A8C
:103E5000401C2862FDF742FE296A4FF47A725143F2
:103E6000B1FBF0F000EE100AB8EE400A85ED090A49
:103E7000FCF7DCFBA17800F8161FE178C176217908
:103E8000017761798176A1798173BDE87040FFF790
:103E9000D0BE00003801002070B50D4C0546A0686A
:103EA000401CA060FDF71AFEA1684FF47A725143DE
:103EB000B1FBF0F000EE100AB8EE400A84ED030A00
:103EC000FCF7B4FBA9780173E978417370BD000079
:103ED0003801002070B50E4C0546A06A401CA06257
:103EE000FDF7FCFDA16A4FF47A725143B1FBF0F08B
:103EF00000EE100AB8EE400A84ED0B0AFCF796FBC0
:103F00000446A81C00F026F884ED060A70BD0000E7
:103F10003801002070B50E4C05462068401C20601A
:103F2000FDF7DCFD21684FF47A725143B1FBF0F0EC
:103F300000EE100AB8EE400A84ED010AFCF776FBA9
:103F40000446A81C00F006F884ED020A70BD0000CB
:103F500038010020006800EE100A704700887047A2
:103F6000FDF7CAFDFFF720FBFFF726F8FEF770FF0D
:103F7000FEF7C6FEFEF70AFFFEF72AFFFEF74AFF2E
:103F8000FFF748FAFFF762FAFFF780FAFFF79AFAAD
:103F9000FFF7DCF8FFF724F9FFF776F9FFF7AAF946
:103FA000FFF7A0F8FFF7DCF9FFF70EFAFFF774F858
:103FB000FEF798FEFEF78AFF00F00EF8FEE70146D6
:103FC0000020842900D0C81C704710B500B901201A
:103FD00000F030FB002010BD10B500F051FB0020B8
:103FE00010BD7FB50D4604464169B0F9080081B1A6
:103FF000A16971B1FFF7E3FFD4E905128DE807006D
:10400000D4E900102B46226900F04DFC039004B067
:1040100070BDFFF7D4FF03A9CDE90001208A2B462C
:1040200082B2D4E9001000F011FC012801D0002078
:10403000EDE70398EBE700002DE9F0411A4C0F463D
:10404000054666692168002081F852002068001D3D
:1040500000F02CFA38B9206890F82C100120884024
:10406000A1698143A161681C07D137B12168BDE80E
:10407000F0410E48091D00F05DBA20683544B54294
:104080004560216805D2A068BDE8F041091D00F037
:1040900039BA6068091D00F035FA206B854200D2FC
:1040A0002563BDE8F08100003C000020840A002068
:1040B0002DE9F041054600F049FA2E4C2069401CDC
:1040C000206120682C4F10B1E06940B32DE02560DD
:1040D0002069012829D1002606EB860007EB800025
:1040E00000F002FA761C072EF6D323488C3000F03D
:1040F000FBF92148A03000F0F7F91F48B43000F078
:10410000F3F91D48C83000F0EFF91B48DC3000F02F
:10411000EBF919488C3060601430A06005E020682D
:10412000E96AC06A884200D82560E06A401CE06203
:10413000E96A0120A26988401043A06101EB810077
:1041400007EB8000291D00F0F5F900F01FFAE06987
:1041500000280CD02068E96AC06A884207D2074963
:104160004FF080500860BFF34F8FBFF36F8FBDE8F3
:10417000F08100003C000020A809002004ED00E0D0
:1041800010B5044690F8510058B101280CD002280F
:104190000FD0502080F31188BFF34F8FBFF36F8F84
:1041A000FEE7206B00F006FA2046BDE8104000F064
:1041B00001BA10BD10484FF47051420706D0C01D1F
:1041C0000D4920F00700411AC1F570510B4A002338
:1041D0000144C2E900030839103A21F007011160D7
:1041E0004B600B600B1AC0E9001393604FF0004066
:1041F0005360D06070470000980A002088000020BB
:10420000144E154CA6F1C8074FF08058DFF84C90BB
:1042100012E000BF00F09AF9F068C568281D00F0B0
:1042200045F92069401E2061E068401EE06000F012
:10423000ADF92846FFF7A4FFE0680028EAD1386806
:104240000128F9D9C9F80080BFF34F8FBFF36F8FF2
:10425000F2E70000700A00203C00002004ED00E0BE
:104260002DE9F05F8846DDE90B9415468346910001
:104270009A460A9EA522206BFCF745F86FF00301D1
:10428000206B01EB8501084420F00707780707D071
:10429000502080F31188BFF34F8FBFF36F8FFEE77D
:1042A0000025B8F1000F0FD05FF00000221818F8B9
:1042B000001082F8341018F8001011B1401C1028BA
:1042C000F4D384F8435001E084F83450072E00D32F
:1042D0000626E662C4E91165201D00F010F904F11C
:1042E000180000F00CF92461C6F107006462A061B7
:1042F000E56484F8505084F8525052465946384686
:1043000000F0BEF82060B9F1000F01D0C9F80040FC
:10431000BDE8F09F30B5114900E011460A688242BD
:10432000FBD34B685C18844203D140681844486052
:10433000084643681C18944209D1084C103C246874
:10434000A24209D052681A4442600A6812680260A8
:10435000814200D0086030BD0460F9E78800002089
:1043600006484168096829B14168C968C96849684F
:10437000016370474FF0FF31FAE700003C00002076
:1043800008484068401C4FF0500080F3118804D06A
:10439000BFF34F8FBFF36F8FFEE7BFF34F8FBFF3B6
:1043A0006F8FFEE7900000202DE9F04105460027C1
:1043B00000F09CF9314E306808B9FFF7FBFEF06859
:1043C00005424BD1C5B3083568070ED005F007008C
:1043D000C0F108000544680707D0502080F3118819
:1043E000BFF34F8FBFF36F8FFEE72DB37068854229
:1043F00034D82248103001460C6801E020460C46B3
:104400006168A94202D221680029F7D131688C4243
:1044100024D007682168016060680837411B1029B3
:104420000FD96019420708D0502080F31188BFF3DC
:104430004F8FBFF36F8FFEE710E041606560FFF7BD
:1044400069FF61687068401A7060B268904200D27B
:10445000B060F06801430020C4E9000100F0B2FA46
:10446000780707D0502080F31188BFF34F8FBFF338
:104470006F8FFEE73846BDE8F0810000780000202D
:1044800010B5031F4FF080741C601B1F21F0010149
:104490001960191F044B0B6014390A60091F6FF073
:1044A000020244380A6010BD81430008D0E901329D
:1044B00001699A60D0E901235A604A68824201D1B9
:1044C00082684A60002202610868401E086008682D
:1044D00070470000034B036003F154000860802024
:1044E000106070478801002000F108014FF0FF3292
:1044F000C0E90112C1600161002101607047002123
:104500000161704730B50B685A1C02D000F10802F7
:1045100002E0026904E02246546825689D42FAD907
:1045200053684B6099608A60516008610168491C5A
:10453000016030BD42684A6093688B60936859603F
:10454000916008610168491C01607047502080F348
:104550001188BFF34F8FBFF36F8F0A494868401C23
:10456000486001280CD10848006810F0FF0F07D000
:10457000502080F31188BFF34F8FBFF36F8FFEE79A
:10458000704700009000002004ED00E008494868F2
:1045900028B1401E486001D180F311887047502037
:1045A00080F31188BFF34F8FBFF36F8FFEE70000DA
:1045B0009000002070B5002827D0144DA0F1080409
:1045C0006168E868014207D1502080F31188BFF389
:1045D0004F8FBFF36F8FFEE722683AB1502080F310
:1045E0001188BFF34F8FBFF36F8FFEE78143616088
:1045F00000F07CF860686968084468602046FFF74E
:1046000089FEBDE8704000F0DDB970BD7800002083
:104610004FF0E02000210161816105494FF47A7279
:104620000968B1FBF2F1491E416107210161704740
:104630003800002010B5020014D00F48806B38B14C
:10464000502080F31188BFF34F8FBFF36F8FFEE7C9
:1046500000F04CF800211046FFF7EEFC00F0B2F934
:10466000002807D105494FF080500860BFF34F8FF5
:10467000BFF36F8F10BD00003C00002004ED00E090
:1046800010B586B00024039405AA04A903A80494D5
:10469000FFF720FFDDE903010094CDE901100023BD
:1046A0000EA11048059A00F0FEF80F490028486353
:1046B00011D0502080F31188BFF34F8FBFF36F8F5D
:1046C0004FF0FF3008630120C8614C6106B0BDE8BF
:1046D000104000F041B806B010BD000049444C4500
:1046E00000000000014200083C0000200248816BED
:1046F000491C8163704700003C0000201448816B16
:1047000011B1012141627047002141628169B1FA12
:1047100081F1C1F11F0101EB81020E4951F82230F4
:104720006BB101EB820101F108034A6852684A60EB
:104730009A4201D152684A60D168016070475020A6
:1047400080F31188BFF34F8FBFF36F8FFEE7000038
:104750003C000020A80900201CB537480168374AF2
:10476000914207D1502080F31188BFF34F8FBFF3E0
:104770006F8FFEE700683149491E884207D15020FB
:1047800080F31188BFF34F8FBFF36F8FFEE72C4983
:1047900008780190FF20087008788DF800009DF8D7
:1047A00000009DF8002000F0F000904207D050205B
:1047B00080F31188BFF34F8FBFF36F8FFEE79DF833
:1047C0000000204B00F0500018700720986005E0B2
:1047D0009DF8002052008DF80020401E9DF800201A
:1047E0001206F5D49860032807D0502080F3118872
:1047F000BFF34F8FBFF36F8FFEE74FF440709860A9
:10480000019808700C482030016841F47001016083
:10481000016841F070410160FFF7FAFE0020586026
:10482000FBF7E0FC0848016841F040410160FBF7FC
:10483000C5FC00201CBD000000ED00E071C20F416E
:1048400000E400E09000002034EF00E02DE9FF5F7D
:104850008346DDE90E87994616468A469000FFF7A3
:10486000A3FD05001CD05420FFF79EFD040014D0CA
:104870000020256384F85100CDE90240CDE900878E
:104880004B46324651465846FFF7EAFC2046FFF7B2
:104890000FFC012004B0BDE8F09F2846FFF78AFE18
:1048A0004FF0FF30F6E7F0B585B0DDE90B640A9D07
:1048B000A6B1DCB1542700972663022684F8516024
:1048C000002604AFCDE90246CDE90057FFF7C8FC4A
:1048D0002046FFF7EDFB049805B0F0BD502080F3B3
:1048E0001188BFF34F8FBFF36F8FFEE7502080F327
:1048F0001188BFF34F8FBFF36F8FFEE72DE9F041B3
:104900002E4C0027A06B40B1206A401C2062606AD8
:1049100000B101273846BDE8F0816669761C666102
:1049200013D16068006838B1502080F31188BFF35C
:104930004F8FBFF36F8FFEE76068A1686160A06072
:10494000A06A401CA062FFF70BFD206BDFF87080AF
:10495000864209D36068006880B16068C068C56835
:10496000686886420DD220632068C06A00EB80012F
:1049700058F821000128CAD90127C8E74FF0FF30B5
:10498000F1E7281DFFF792FDA86A18B105F118009C
:10499000FFF78CFDE86A0121A26981401143A16102
:1049A00000EB800108EB8100291DFFF7C3FDE86AD9
:1049B0002168C96A8842CDD30127CBE73C0000209B
:1049C000A80900202DE9F0472C4D00242746A86BAC
:1049D00038B1FFF7BBFDA86B401EA863A86B40B1C0
:1049E00046E0502080F31188BFF34F8FBFF36F8FE5
:1049F000FEE72969224E0120D1B3A6F1B409804611
:104A00003068E8B1F068C46804F11800FFF74EFDA3
:104A1000201DFFF74BFDE06AAA6908FA00F1114377
:104A2000A96100EB800109EB8100211DFFF782FDE8
:104A3000E06A2968C96A8842E2D3C5F82480DFE7C2
:104A40000CB1FFF78DFC2C6A44B14646FFF756FFC8
:104A500000B16E62641EF9D100202862686A38B124
:104A60000849012738070860BFF34F8FBFF36F8FE6
:104A7000FFF78CFD3846BDE8F08700003C000020C1
:104A80005C0A002004ED00E0F04B00086D350008E2
:104A90000000000000000000800000000000000096
:104AA00000000000FC4B000879090008000000002D
:104AB0000000000080000000000000000000000076
:104AC000044C00085D060008000000000000000023
:104AD000800000000000000000000000DC4B000827
:104AE00015350008000000000000000080000000F4
:104AF0000000000000000000184C0008BD0700087E
:104B00000000000000000000800000000000000025
:104B1000000000000C4C0008753500080000000083
:104B20000000000080000000000000000000000005
:104B3000204C00086535000800000000000000005F
:104B4000800000000000000000000000CC4B0008C6
:104B50000335000800000000000000008000000095
:104B60000000000000000000D44B00080D350008D4
:104B700000000000000000008000000000000000B5
:104B800000000000E44B0008E93B000800000000C2
:104B90000000000080000000000000000000000095
:104BA00000061016000610160000000000000000AD
:104BB00001020304060708090000000001020304C3
:104BC0000000A0416F12833B5A0000004D696E69DE
:104BD00050430000526566657265650052656D6FF1
:104BE000746500005761746368446F6700000000DB
:104BF00064656661756C745461736B0047696D62BE
:104C0000616C0000427573436F6D6D005375706584
:104C10007243617000000000436861737369730040
:104C200053686F6F74000000484C000800000020BB
:104C3000880100008C030008BC4C0008880100209B
:104C4000784C0000243C0008012C320182100359EA
:104C500024F41AAA01513C08024070190842201499
:104C60000402402240229C1B20A4041AAC0413D44A
:104C700004391B419AAC0C32A113153F3308A2131F
:104C8000993E3308A313853C1A08381113853D3328
:104C900008B21A491832B31AD50832B41AC91832F0
:104CA000B51A091032B61A051032B71A45082AC2C9
:0C4CB00020194032011A350801500000A4
:040000050800018965
:00000001FF
