:020000040800F2
:10000000F8D600205D020008055C0008873C000867
:100010006D4F0008991200084176000800000000AA
:100020000000000000000000000000009D0100082A
:100030001915000800000000F90100081D6F0008F4
:1000400077020008770200087702000877020008AC
:10005000770200087702000877020008770200089C
:1000600077020008770200087702000839140008B8
:10007000451400087702000877020008770200089C
:10008000770200087702000877020008770200086C
:100090009D12000877020008770200087702000826
:1000A000770200087702000877020008770200084C
:1000B000770200087702000877020008770200083C
:1000C000770200087702000877020008770200082C
:1000D000770200084175000877020008597500088A
:1000E000770200087702000877020008770200080C
:1000F00077020008770200087702000877020008FC
:1001000077020008770200087702000877020008EB
:1001100077020008D972000877020008F96F00081A
:10012000511400085D1400086914000877020008E3
:1001300077020008000000000000000077020008BD
:10014000A912000877020008770200087702000869
:10015000770200087702000877020008717500082E
:10016000770200087702000877020008770200088B
:10017000770200087702000800000000000000007D
:100180007702000877020008DFF80CD000F09AFB35
:1001900000480047A17F0008F8D600202C4B1968C2
:1001A0000868B0E8F04F80F30988BFF36F8F4FF015
:1001B000000080F3118870470000000008480068C4
:1001C000006880F308884FF0000080F3148862B65E
:1001D00061B6BFF34F8FBFF36F8F00DF00BF00BF6B
:1001E00008ED00E0DFF80C00016841F470010160E7
:1001F000704700BF88ED00E0EFF30980BFF36F8F19
:10020000134B1A681EF0100F08BF20ED108A20E96A
:10021000F04F106009B44FF0500080F31188BFF325
:100220004F8FBFF36F8F08F0ADFA4FF0000080F3EF
:10023000118809BC19680868B0E8F04F1EF0100F6B
:1002400008BFB0EC108A80F30988BFF36F8F704746
:1002500040000020EFF3058070470000064880470B
:1002600006480047FEE7FEE7FEE7FEE7FEE7FEE79B
:10027000FEE7FEE7FEE7FEE7DD6F00088901000804
:100280002DE9F05F0546002092469B4688460646CB
:10029000814640241BE0284641464746224600F05E
:1002A0005AFA53465A46C01A914110D3114618467D
:1002B000224600F041FA2D1A67EB01084F4622460C
:1002C0000120002100F038FA17EB00094E41201EF2
:1002D000A4F10104DFDC484631462A464346BDE826
:1002E000F09F40EA01039B0703D009E008C9121FF1
:1002F00008C0042AFAD203E011F8013B00F8013BE0
:10030000521EF9D27047D2B201E000F8012B491E0B
:10031000FBD270470022F6E710B513460A460446A2
:100320001946FFF7F0FF204610BD2DE9FE4F80462D
:1003300081EA0300C00F0C46009021F0004123F039
:100340000045B8EB0200A94105D24046214690463F
:100350001C460B46024623F00040104347D0270DB1
:10036000C7F30A00C3F30A510290401A01904028D3
:100370006BDAC3F3130040F4801B0098924620B15F
:100380000023D2EB030A63EB0B0B01985946C0F133
:100390004002504600F0D0F906460D4650465946F8
:1003A000019A00F0E8F910EB08006141002487EAA7
:1003B000115284EAE7731A4340D0009A62B3019A5B
:1003C000012A4FEA075215DC001B61EB02014FF0D6
:1003D000004202EA0752CDE90042001C41F58011BB
:1003E00032462B4600F01FFA03B0BDE8F08F4046BE
:1003F0002146F9E7001B61EB0201001C41F5801367
:1004000000185B412018A2F5001747EB030140EAF2
:10041000D570B6196D4111E06D084FEA360645EA10
:10042000C0754FEA0752001B61EB0201001C41F549
:10043000801149084FEA30000019514132462B46DD
:1004400003B0BDE8F04F00F0DFB900980122400092
:100450000023D0EB020263EBE073009821464FEAE1
:10046000E074B8EB000061EB0401E9E783F00043BE
:100470005BE781F0004158E72DE9FE4F81EA030474
:1004800004F0004421F0004100944FF0000B23F0F1
:10049000004350EA01045ED052EA03045BD0C3F388
:1004A0000A54C1F30A552C44A4F2F3340194A0FB7E
:1004B0000254C1F3130141F48011C3F3130343F455
:1004C000801301FB024400FB034E840A970A44EAAE
:1004D000815447EA8357A4FB076802958D0A05FB00
:1004E00007854FEA932C04FB0C542705029D4FEA25
:1004F000065847EA1637B5EB08056EEB070C870E72
:10050000920E47EA811742EA8312A7FB0201B6EB7B
:100510000B0164EB00042B0D43EA0C335E1844EB33
:100520001C50DA465146E7FB0201C5F313044FEABB
:100530000B3343EA14534FEA0432019C43EA0603A7
:10054000A4F10C040294009CCDE900B400F06BF916
:1005500003B0BDE8F08F00200146F9E72DE9F04D2A
:1005600081EA030404F0004B21F0004514464FF0EB
:10057000000A23F0004150EA050220D054EA0102AB
:100580001DD0C5F30A570246C5F31303C1F3130088
:10059000C1F30A5640F4801543F48013A7EB060814
:1005A000101BD64608F2FD3873EB050002D308F1A4
:1005B000010801E092185B41B8F1000F03DA002056
:1005C0000146BDE8F08D00204FF4801106468446B8
:1005D0000EE0171B73EB050705D3121B63EB050336
:1005E00006434CEA010C49084FEA300092185B417F
:1005F00050EA0107EDD152EA030012D082EA04006A
:1006000083EA0501084305D0101BAB4106D2012245
:10061000002306E000224FF0004302E06FF00102E9
:1006200053101AEB06004CEB085110EB0A0041EB9B
:100630000B01BDE8F04D00F0E7B80EB5C10F80EA40
:10064000E0700844CA07002140F233438DE80E00F1
:100650000A460B4600F0E7F803B000BD0EB540F2C5
:10066000334102910021CDE900110A460B4600F00A
:10067000DAF803B000BDC1F30A5210B5C1F313019B
:1006800040F2FF3341F480119A4201DA002010BD9C
:1006900040F233439A42A2F2334203DC524200F06A
:1006A0005AF810BD904010BD00F0004230F00040FC
:1006B0000AD0C10D01F56071C0F3160042EA015184
:1006C000C2084007114370470020014670470000F0
:1006D00030B5041E71F1000404DB4FF000444042C9
:1006E00064EB0101141E73F1000405DB1C464FF09E
:1006F0000043524263EB0403994208BF904230BD6D
:1007000001F0004330B421F0004150EA010206D06C
:100710000A0DA2F56072C1F31301002A02DC30BC9D
:1007200000207047440F44EAC104C100E01830BC07
:1007300000EBC25000F031B8202A04DB203A00FA66
:1007400002F1002070479140C2F1200320FA03F328
:10075000194390407047202A04DB203A21FA02F026
:100760000021704721FA02F3D040C2F120029140EB
:10077000084319467047202A06DBCB17203A41FA76
:1007800002F043EAE07306E041FA02F3D040C2F11E
:10079000200291400843194670470029A8BF7047BE
:1007A000401C490008BF20F00100704710B4B0FAA7
:1007B00080FC00FA0CF050EA010404BF10BC704742
:1007C00049B1CCF1200421FA04F411FA0CF118BF5C
:1007D000012121430843A3EB0C01CB1D4FEA00612B
:1007E0004FEA102042BF002010BC704700EBC350FE
:1007F00010440029A4BF10BC7047401C490008BF2A
:1008000020F0010010BC704710B5141E73F10004F5
:1008100008DA401C41F1000192185B411A4301D1F2
:1008200020F0010010BD2DE9F04D92469B4611B11C
:10083000B1FA81F202E0B0FA80F220329046FFF77E
:100840007BFF04460F4640EA0A0041EA0B0153468B
:100850005A46084313D0114653EA010019D0C8F193
:1008600040025046FFF777FF05460E465046594670
:100870004246FFF761FF084305D0012004E020460F
:100880003946BDE8F08D0020054346EAE0762C436A
:1008900037430A986305E40AA0EB08000022FD0A2A
:1008A00044EA47540A3002D500200146E9E7010531
:1008B00010196941DDE9084500196941BDE8F04DAD
:1008C000A2E70000064C074D06E0E06840F0010397
:1008D00094E8070098471034AC42F6D3FFF758FC71
:1008E000C4960008E496000870B58C1810F8015BF7
:1008F00015F0070301D110F8013B2A1106D110F8B9
:10090000012B03E010F8016B01F8016B5B1EF9D1BC
:100910002B0705D40023521E0DD401F8013BFAE742
:1009200010F8013BCB1A921C03E013F8015B01F8AD
:10093000015B521EF9D5A142D8D3002070BD000042
:1009400080B5B0F800E00B889E4555D1B0F802C0E4
:100950004B889C4550D113889E454DD153889C456A
:100960004AD15268496840680CFB0EFC0023B3EB87
:100970009C0F2BD04FEA9C035B4200BF91ED000A15
:1009800090ED001A013331EE000A82ED000A91ED7C
:10099000010A90ED011A31EE000A82ED010A91ED93
:1009A000020A90ED021A31EE000A82ED020A91ED80
:1009B000030A90ED031A01F1100100F1100031EE6D
:1009C000000A82ED030A02F11002D7D11CF00303E2
:1009D00010D05B4291ED000A90ED001A013301F155
:1009E000040100F1040031EE000A82ED000A02F178
:1009F0000402EFD1002000E0FD2040B280BD436042
:100A000042800180704700002DE9F04F8BB0B0F8B4
:100A100002E0B0F800B0F34540F052810B88FD22AF
:100A20009B4540F04E814F88BB4240F04A81476869
:100A3000BBF1000F00F02C814C686FF003000097B1
:100A400000274FF07E595E46CDF81CE000EB8B0886
:100A500020460694BBEB060008D0B9002046FFF7FD
:100A600059FC0020013004348742FBD104F1040A10
:100A7000751EC4F800900FD0A8EB87015046FFF711
:100A800049FC0120544600BF013004348642FBD1AA
:100A90000137002D2E46DDD1009FDDF81CE0BBF1B3
:100AA000000F00F0F580042039469FED8A0A07EB1D
:100AB0008E0C3B1D4FEA8E05ABF101047746CDF855
:100AC00014B000EB8E0089460190CEF10000089032
:100AD000002000BF584580F0F880069A00FB0EF118
:100AE0006646B0EE403A02EB810209EB810191EDDE
:100AF000001A099121460A92B0EE414A07E000BF70
:100B000096ED004A72190139B0EE423A1646B5EE3A
:100B1000C04AF1EE10FA09DDB4EEC34AB0EE442A41
:100B2000F1EE10FAD8BFB0EE432A08E0B1EE442A45
:100B3000B4EEC23AF1EE10FA01DBB0EE432A00291E
:100B4000DED1B5EE402AF1EE10FA00F0BE80B0EE34
:100B5000C13AB4EE423AF1EE10FA1CBFC14311EBB8
:100B60000B0104D0002100BF01318C42FCD1B5EE55
:100B7000401AF1EE10FA00F0A880CDE9034CAEEB7C
:100B8000000C4FF07E51099ABCF1010F11600AD0A0
:100B900001211A4692ED002A01318F4282EE012A8C
:100BA000A2EC012AF6D108990A9A00BF92ED002A18
:100BB000013182EE012A82ED002A02F10402F5D110
:100BC0000599DDF818A0ACF1010B4FF000084E4676
:100BD000CDF80890804505D10AEB8E0A06EB8C060D
:100BE00038E000BF099A96ED001ABBF1000F92EDB4
:100BF000002A21EE022A31EE422AA6EC012A16D062
:100C00000122002403EB040906EB040E0132043434
:100C100099ED002A9EED003A974221EE022A33EE2A
:100C2000422A8EED002AEDD1DDF81CE02644089A18
:100C30000A9C00BF94ED002A9AED003A013204F1BB
:100C4000040421EE022A33EE422A8AED002A0AF138
:100C5000040AEFD106EB800608F101080139B9D189
:100C6000039CDDF808900199DDF810C0DDF814B0A0
:100C70000130013F0B448C44A4F1010409F1040943
:100C80007FF428AFB5EE401A009FF1EE10FA1ED1A6
:100C90000EFB0BF10020002259B100BF97ED000AB6
:100CA000B5EE400AF1EE10FA03D1013204378A4260
:100CB000F4D38A4208BF6FF004000BB0BDE8F08F98
:100CC000FD2250B20BB0BDE8F08FFB22F9E7002205
:100CD000F7E700BF000000002DE9F04F89B046881B
:100CE0000B889E4240F08E80058813889D4240F01C
:100CF0008980B1F802E053889E4540F0838000234C
:100D0000446852684968B7089FED410AA3EB960012
:100D1000089026F00300029206F00302019104EB12
:100D2000800B07FB0EF001EB00104FEA8E010090E4
:100D300050420790CDE903E6029806950593DDE958
:100D400000AC00EB830800BF002FB0EE401AE14674
:100D500020462FD0089D63462046B0EE401A00BFC3
:100D60005E1893ED002A90ED003A90ED014A90ED67
:100D7000025A90ED036A1030013596ED007A06EBC9
:100D8000010323EE022A93ED003A0B4431EE021ADE
:100D900093ED002A24EE074A0B4431EE041A25EEA7
:100DA000033A31EE031A26EE022A31EE021AD7D1A7
:100DB000D14658466AB1079D99ED002A90ED003A58
:100DC0008944013500F1040023EE022A31EE021AB3
:100DD000F2D188ED001A0AF1040A0CF1040CBEF1FC
:100DE000010E08F10408AFD1049E069DDDF80CE069
:100DF000059B0BEB860B04EB86047344013D9BD1F2
:100E0000002000E0FD2040B209B0BDE8F08F00BF37
:100E10000000000080B5B0F800E00B889E4555D179
:100E2000B0F802C04B889C4550D113889E454DD1E7
:100E300053889C454AD15268496840680CFB0EFCB7
:100E40000023B3EB9C0F2BD04FEA9C035B4200BF07
:100E500091ED000A90ED001A013331EE400A82ED67
:100E6000000A91ED010A90ED011A31EE400A82ED7F
:100E7000010A91ED020A90ED021A31EE400A82ED6C
:100E8000020A91ED030A90ED031A01F1100100F13D
:100E9000100031EE400A82ED030A02F11002D7D1B0
:100EA0001CF0030310D05B4291ED000A90ED001A94
:100EB000013301F1040100F1040031EE400A82ED3A
:100EC000000A02F10402EFD1002000E0FD2040B250
:100ED00080BD00002DE9F04F82B0B0F800E04B88F3
:100EE0009E454BD144880B889C4247D100234E68D5
:100EF00004F0030B40684FEA0E184FEA940AA3EB84
:100F00009401CBF1000901914FEA8E01324600961F
:100F1000BAF1000F1CD0019F344600BF254604687B
:100F200001372C6044686C5005EB0104D0F808C010
:100F300044F801C00C44C26800F11000625004EB98
:100F4000010202EB0104E9D105EB080703E000BF51
:100F5000009A02EB8307BBF1000F07D04D4600BF9C
:100F600050F8042B01353A600F44F9D10436BEF134
:100F7000010E03F10103CBD1002000E0FD2040B2BF
:100F800002B0BDE8F08F0000464910B54A6822F46F
:100F900040324A604A6843681A434A6001684A68B6
:100FA00022F480724A6001684A68036942EA0322B7
:100FB0004A6001684A6822F040724A6001684A68E3
:100FC00083681A434A6001688A6822F400628A6072
:100FD00001688A68C3681A438A60816A6FF0706228
:100FE000D14201688A6822F070628A6001688A686A
:100FF0000CD0836A1A438A6001688A6822F04052E2
:101000008A6001688A68C36A1A4301E022F040528C
:101010008A6001688A6822F002028A6001688A6830
:10102000037E42EA43028A6090F82010002901689A
:101030004A680FD042F400624A6001684A6822F4AC
:1010400060424A6001684A68174C436A04EB4333C4
:101050001A4301E022F400624A600168CA6A22F47D
:101060007002CA620168CA6A838B104C04EB035396
:101070001A43CA6201688A6822F400728A600168B1
:101080008A6890F8303042EA43228A6001688A68B0
:1010900022F480628A6001688A68406942EA80209E
:1010A000886010BD0023014000E0FFFF0000F0FF5A
:1010B00004490968884203D199B2104600F004B887
:1010C00070470000CC00002070B50D460646164C57
:1010D00001F048FC60602A463146A4F1C800FFF7E1
:1010E00000F92946304600F0BFF8A8B1A4F1C801C4
:1010F00000204A780D4900BF51F830309A420ED195
:1011000001EBC0035B6853B101EBC0004168BDE86F
:1011100070400548C83808470320207070BD401C47
:101120000D28E9DD70BD00007466002084010020F8
:10113000004870477466002010B500F019F80823C5
:1011400001221221094800F0F9F808480823012279
:101150001121183000F0F2F804480823012213216D
:10116000BDE81040303000F0E9B80000B066002063
:1011700010B5114C01F0F6FB44F8040F00209FED70
:101180000F0AA07484ED050A84ED060A84ED070AAF
:1011900084F8200084ED090A84ED0A0A312184F8DC
:1011A0002C10012184F82D10422184F82E1084ED9A
:1011B0000C0A84F8340010BD7466002000000000A2
:1011C0002DE9F04100F032F8114D0420287001F0B3
:1011D000C9FB064600240F4FDFF83C8005E000BF46
:1011E00001F0C0FB801B02280FD2386800F085FE9A
:1011F0000028F5D008EBC400416809B107488847CA
:10120000641C072CF1DB01202870BDE8F081000090
:1012100074660020CC000020EC010020E464002073
:10122000FFF7CEFF042006F0F0FEF9E770B50D4C95
:1012300002F0F6FD054600F0E7FAC17D891CA175B4
:1012400090ED040A84ED060A95ED040A84ED070A80
:1012500095ED020A84ED080A95ED050A84ED0D0A64
:1012600070BD00007466002030B502785A2A11D192
:101270004218002312F8014C1A46491E03E0855C0F
:10128000521C2B449BB28A42F9DBD8B2A04201D156
:10129000012030BD002030BDFEE70000014800F015
:1012A00042BE0000E0050020014800F03CBE000006
:1012B0000806002038B504460020ADF80000A078EC
:1012C000E17800EB012085B2232D09D104222146CB
:1012D000684606F04BFD2A46A11D684606F046FD0D
:1012E000A088BDF80010884201D0002038BD012040
:1012F00038BD000010B504460F4A00210E208AB008
:10130000944201D1059100E005900122CDE9061239
:1013100003910491CDE90820009101910291694661
:10132000204600F0EFFC204601F020F80221204684
:1013300000F072FC0AB010BDE0050020C0E9001208
:101340000021C160036181600175704770B50C4672
:101350000B69154606460968FFF7AAFE2A4630467D
:1013600023692168BDE8704004F088B908B56B4670
:1013700000F064FC08BD012006F047FEFBE700001A
:1013800038B500242346224611491248009404F03F
:10139000F6FA0F4900231A46F0310F48009404F082
:1013A000EEFA00231A460D490D48009404F0E7FABE
:1013B0000A4900231A46F0310A48009404F0DFFA83
:1013C00000231A4608490948009404F0D8FA38BDA9
:1013D000448E0008E85A0020D85B002024900008C2
:1013E000C85C0020B85D002004920008A85E0020C0
:1013F00038B50024234622460A490B48009404F0DD
:10140000BEFA084900231A46F0310848009404F057
:10141000B6FA00231A4606490648009404F0AFFACB
:1014200038BD0000F4920008EC610020DC6200206E
:10143000D4940008CC630020014801F041B80000BA
:1014400044090020014801F03BB80000040A0020D4
:10145000014801F035B8000080050020014801F086
:101460002FB80000640A0020014801F029B80000EC
:10147000A409002001681823CAB2103AB2FBF3F2A3
:10148000054B6FF30901032A9B5CC36500D9091D55
:101490008165084670470000E48D000810B50146DC
:1014A00000208B698A6A4FF0C07453B1B3F5005FB6
:1014B00015D072B1012A0CD0022A0AD0032A09D110
:1014C00004E01AB1012A06D0022A03D1C96AC9016F
:1014D00000D5012010BDC96AA142FAD010BD002A72
:1014E000F7D0012AF2D0022AF3D0032AF3D010BD9C
:1014F00030B50468256825F480252560046863609C
:101500008368402B036803D099600068C26030BDD7
:101510009A600068C16030BD704772B6FEE7000097
:1015200010B504462DED0A8B5FF0030004EBC001FB
:10153000401E002891ED061B81ED081B11ED021BDA
:1015400081ED001BF2DC10EE100AFFF7ADF8C4E9E4
:10155000080194ED060B9FED321B51EC100B53EC80
:10156000112BFEF789FF94ED040B9FED2F1B41EC2F
:10157000190B53EC112B51EC100BFEF77DFF94ED82
:10158000020B9FED2B1B41EC180B53EC112B51EC74
:10159000100BFEF771FF94ED0E0B9FED271B41EC36
:1015A0001A0B53EC112B51EC100BFEF765FF94ED69
:1015B0000C0B9FED231B41EC1B0B53EC112B51EC3F
:1015C000100BFEF759FF94ED0A0B9FED1F1B41EC2A
:1015D0001C0B53EC112B51EC100BFEF74DFF53EC91
:1015E0001C2BFEF7A2FE53EC1B2BFEF79EFE53ECCA
:1015F0001A2BFEF79AFE53EC182BFEF737FF53EC2D
:10160000192BFEF792FE41EC100B84ED000BFFF757
:1016100077F8206400EE100ABDEC0A8B10BD0000C4
:10162000401361C3D32BE93FD122DBF97E6A04402A
:101630001F85EB51B81E06405816F142DF82213F4C
:101640000DA661F88898423F7B979C24A7C0233F52
:10165000D0ED010AF5EEC00AF1EE10FA29DD10EE28
:10166000902AB2F17E5F24DCB7EE001AD1ED011AA8
:1016700031EE601A21EE211A00EE801A81ED001A77
:1016800081ED011A90ED020AB5EEC00AF1EE10FAF2
:101690000DDDD0ED010A9FED071A20EE010A9FED46
:1016A000061A20EE010A80EE801A80ED001A91EDF4
:1016B000000A7047DB0FC9406F12833A80ED010AC0
:1016C000704781880068002201F046B9818800686F
:1016D000012201F041B9000003484078012802D1FD
:1016E000024804F0D1B97047985F0020404B0020B9
:1016F00004490A7D4A750875824201D00120887527
:1017000070470000985F002070B502F089FB064624
:101710002B4C03F0A7FC207800284FD0A07D012897
:1017200004D1284804F09AF90020A075207D0528EE
:1017300011D2DFE800F00306080B0D00204DF03D4C
:101740000BE0214D09E0204DF03526E01F4D04E06F
:101750001D4DF03D01E002281FD096ED050A84EDF5
:10176000010A96ED030A00BF84ED020A94ED030A14
:10177000144804F036FA94ED010A0221114804F0ED
:101780001DFA94ED020A01210E4804F017FA2946C9
:10179000BDE870400B4803F0D7BE0A480C4990EDF5
:1017A000450AD1ED000A30EE600A84ED010AB0F975
:1017B000020100EE100AB8EEC00AD5E770BD0000C5
:1017C000985F00205C530020C85C0020E85A00208D
:1017D000388E00080B480178002911D0017D0529B9
:1017E0000ED2DFE801F0030507090B00012106E036
:1017F000022104E0032102E0042100E00521C1757B
:1018000070470000985F002000487047985F0020F4
:1018100010B502F005FB0F4904460120487008701E
:10182000002088750220087548750320C8750A498C
:101830004FF47A60A1F80001FFF7A2FD204602F004
:10184000F3FA40F6B83000F099FFBDE810400020F0
:10185000FFF74EBF985F00205C5300200F48D0ED8B
:10186000030A0F4890ED001AF4EEC10AF1EE10FAE7
:1018700004DDB5EEC00AF1EE10FA0CDC094890ED7B
:10188000001AF4EEC10AF1EE10FA06D2B5EEC00A63
:10189000F1EE10FA01D29FED040A7047985F002024
:1018A0002C8E0008308E00080000000010B52DEDD1
:1018B000028BB0EE408AFFF73BFC154A90F82410EB
:1018C0001278914221D090ED020A1248D0ED000A20
:1018D000F1EE600AB4EEE00AF1EE10FA04D2B5EED1
:1018E000C08AF1EE10FA0BDCD0ED000AB4EEE00A8B
:1018F000F1EE10FA09DDB5EEC08AF1EE10FA04D26D
:101900009FED050ABDEC028B10BDB0EE480AF9E769
:1019100061960008348E00080000000010B5104CDD
:101920002DED028BB0EE408A02F07AFA03F09AFBBA
:101930000C4890ED000AB4EEC08AF1EE10FA07DC14
:10194000094890ED000AB4EEC08AF1EE10FA01D217
:10195000B0EE408A84ED038ABDEC028B10BD00001E
:10196000985F00202C8E0008308E00080348D0EDD0
:10197000030A30EE800A80ED030A7047985F00206A
:1019800010B5094C2DED028BB0EE408A02F048FAFA
:1019900003F068FBB0EE480AFFF788FF84ED040A05
:1019A000BDEC028B10BD0000985F00200348D0ED15
:1019B000040A30EEC00A80ED040A7047985F0020E8
:1019C00003F010FBFFF7A0FEFFF704FFFFF784FE14
:1019D000012006F01AFBF3E778B50024009490F894
:1019E0003C20012A19D0012280F83C200A680723F4
:1019F0000568092A13D9EE680A3A02EB42029340BD
:101A00009E43EE600B788A680A3B03EB43039A40DF
:101A10000368DD682A43DA6010E0022078BD2E6991
:101A200002EB420293409E432E610B788A6803EBDF
:101A300043039A4003681D692A431A614A681F23B9
:101A4000072A13D205686E6B521E02EB8202934086
:101A50009E436E630B790A885B1E92B203EB83038D
:101A60009A4003685D6B2A435A6327E005680D2A94
:101A700012D22E6BD21F02EB820293409E432E6342
:101A80000B790A88DB1F92B203EB83039A40036849
:101A90001D6B2A431A6311E0EE6A0D3A02EB8202D3
:101AA00093409E43EE620B790A880D3B92B203EBA2
:101AB00083039A400368DD6A2A43DA62164B05689D
:101AC000144A9D4206D10D68122D03D1556845F484
:101AD0008005556005689D4218D10B68102B01D018
:101AE000112B13D1536843F4000353600968102984
:101AF0000CD10A490A4A0968B1FBF2F101EB8101F4
:101B0000490000E0491E00910029FBD180F83C40CB
:101B1000002078BD00230140002001403C0000204F
:101B200040420F0070B504004FF0000503D0206C58
:101B3000002610B107E0012070BD204600F01CF81F
:101B4000666484F83C60206CC00610D4206C20F4DD
:101B5000885040F0020020642046FFF715FA6664C2
:101B6000206C20F0020040F00100206400E001251C
:101B700084F83C60284670BDF0B587B00646142155
:101B80006846FEF7C7FB1F493068884238D11E48B7
:101B90000025016841F480710160006800F48070E4
:101BA000059019481438016841F00101016000688E
:101BB000032700F0010005902C20CDE900076946BD
:101BC0000295124800F0ECFD124C1148C4E90005E2
:101BD0000015A560C4E90350800060618000A06129
:101BE0008011C4E9070504206062C4E90A75204633
:101BF000256300F035FD08B1FFF78FFCB463A663E1
:101C000007B0F0BD0020014044380240000002400F
:101C1000106402408005002090F82020012A07D09F
:101C2000022A05D0416A41F48021416201207047B7
:101C3000006842690A43426100207047F0B590F89D
:101C400020500468A468012D05D0022D03D0416AFC
:101C500041F4802153E014F0406F01D1E5004BD5F1
:101C6000C4F30164022C03D9416A41F4000146E047
:101C70000125A5401D608D684FF4C0739DB1CE68ED
:101C800035434E6845EAC605066803EB0417F5516F
:101C90004FF4C275076805EB04150E697E51097D86
:101CA000012905D009E00E88CD6845EA4655EBE7E5
:101CB00001684E5946F480764E511179D2F805509C
:101CC0004FF4C67641EA0525016806EB04168D51EE
:101CD0001178D2F801204FF4C47541EA022102685C
:101CE00005EB04155151006803EB0411425842F012
:101CF000010242500020F0BD416A41F400114162EE
:101D00000120F0BD10B590F82020012A07D0022A4A
:101D100005D0416A41F480214162012010BD3B4859
:101D2000D0F8002242F00102C0F80022D0F80022D0
:101D300022F47C52C0F80022D0F800224B6A42EA1A
:101D40000322C0F800220A7D02F01F0301229A40FC
:101D5000D0F81C329343C0F81C32CB69B3B9D0F829
:101D60000C329343C0F80C328C894B6864F31F43E8
:101D70004C6900EBC404C4F840320C890B6864F36E
:101D80001F434C6900EBC404C4F84432CB69012BF7
:101D900016D1D0F80C321343C0F80C320C884B68C3
:101DA00064F31F434C6900EBC404C4F840320C894F
:101DB000CB6864F31F434C6900EBC404C4F844329D
:101DC0008B69002BD0F804320ED01343C0F80432D4
:101DD0000B69002BD0F8143208D01343C0F814322A
:101DE000096A012904D008E09343EFE79343F5E73C
:101DF000D0F81C121143C0F81C12D0F8001221F0C8
:101E00000101C0F80012002010BD00000064004075
:101E1000704730B590F82040012C05D0022C03D03B
:101E2000416A41F480215DE00468002955D02469AD
:101E3000A40754D04FF4D874056804EB01142D594D
:101E400015F00405956005682D594ED0ED085560D4
:101E500005682C5904F00204D4604FF4DA74056864
:101E600004EB01142D5905F00F05156105682D5976
:101E7000C5F30725956105682C59240C54614FF46E
:101E8000DC72046802EB0112A4581C700468A458A8
:101E9000240A5C700468A458240C9C700468A2583E
:101EA000120EDA704FF4DE72046802EB0112A458CD
:101EB0001C710468A458240A5C710468A458240C9A
:101EC0009C710468A258120EDA71006881B1016930
:101ED00041F020010161002030BDE468A8E7416ABB
:101EE00041F400114162012030BD6D0D1560AFE776
:101EF000C16841F02001C160EDE70246002092F880
:101F00002010012901D002290CD111688A685201E0
:101F100000D501208A68120100D5401C8968C900DB
:101F200000D5401C70472DE9F05F0546006800248D
:101F30004669D0F804908768D0F80CB0D0F810A0AB
:101F4000D0F81880F10748D0F90714D0012181603A
:101F5000B80703D5284600F036FA0CE0780702D51A
:101F60004FF4006407E0380702D54FF4805402E0D4
:101F7000284600F027FAF80516D529684FF4807036
:101F80008860B80503D5284600F01FFA0CE07805F4
:101F900002D544F4005407E0380502D544F48044E7
:101FA00002E0284600F010FAF80316D529684FF42D
:101FB00080308860B80303D5284600F008FA0CE0AA
:101FC000780302D544F4004407E0380302D544F412
:101FD000803402E0284600F0F9F9300707D55FEABF
:101FE000CB6004D52968102044F40074C8607007E1
:101FF0004FF0080707D55FEA0B7004D52868C76063
:10200000284600F09BF9B00706D52868C06880070D
:1020100002D0284600F094F9700607D55FEACA603E
:1020200004D52968102044F480640861B00607D5FF
:102030005FEA0A7004D528680761284600F092F923
:10204000F00606D528680069800702D0284600F00F
:102050008AF9B00308D55FEAC96005D52968102060
:102060004860284600F080F9F00307D55FEA097060
:1020700004D528684760284600F0AAF9300446D500
:102080005FEA497040D5F00504D55FEAC87001D019
:1020900044F00104B00504D55FEA887001D544F02E
:1020A0000204700504D55FEA487001D544F00404C9
:1020B000300529D518F0700F26D008F070004028A0
:1020C00015D006DC102809D020280AD0302816D1D7
:1020D0000AE050280ED0602811D10EE044F0080428
:1020E0000DE044F010040AE044F0200407E044F05E
:1020F000400404E044F0800401E044F48074286863
:10210000816921F070018161296804204860002CF8
:1021100005D0686A204368622846FFF779FEBDE86B
:10212000F09F70B5040003D094F8200010B104E0D3
:10213000012070BD204600F081F82068016821F080
:102140000201016000F00EFC0546052604E000F0E7
:1021500009FC401B0A2811D8206840688007F6D483
:102160002068016841F00101016000F0FBFB0546B9
:102170000BE000F0F7FB401B0A2806D9606A40F428
:102180000030606284F82060D2E720684068C007B1
:10219000EFD0207E0128206801683DD021F0800129
:1021A0000160607E01282068016838D021F040017C
:1021B0000160A07E01282068016833D021F0200151
:1021C0000160E07E0128206801682ED041F01001F6
:1021D0000160207F01282068016829D021F00801D2
:1021E0000160607F01282068016824D021F004018B
:1021F0000160D4E902010843D4E904121143084301
:102200006168491E08432168C8610020606201209E
:1022100084F82000002070BD41F08001C0E741F04B
:102220004001C5E741F02001CAE721F01001CFE7E6
:1022300041F00801D4E741F00401D9E7F0B587B0D7
:10224000044614216846FEF765F8374B3748DFF837
:10225000D4E01968D4F800C0344A022503260927BF
:1022600010300024491CF44524D11960012907D1FC
:10227000016841F000710160006800F00070059095
:10228000106840F001001060106802AB00F001001F
:1022900005904FF4C050CDE9000583E8D0006946B1
:1022A000234800F07DFA00220521142000F0E6FB0F
:1022B000142033E0DFF87CE0F44531D1D0F800C0E1
:1022C0004CF0806CC0F800C0D0F800C001290CF0C0
:1022D000806CCDF814C0196007D1016841F000711D
:1022E0000160006800F000700590106840F0020086
:1022F0001060106802AB00F0020005904FF44050EF
:10230000CDE9000583E8D00069460B4800F048FAA3
:1023100000220521402000F0B1FB402000F0A0FB8E
:1023200007B0F0BD006400402C00002030380240AF
:1023300000000240006800400004024070470000B6
:1023400010B5074B0446A3F11C020021FFF761FD05
:10235000034A2046BDE81040A2F11C01FEF7F6BF7B
:1023600010480020704770477047000070B5044661
:1023700090F82000012804D0606A40F400206062D8
:1023800018E0022084F820002068016821F0010193
:10239000016000F0E7FA05460EE000BF00F0E2FA47
:1023A000401B0A2808D9606A40F4003060620520AA
:1023B00084F82000012070BD20684068C007EDD17E
:1023C000606270BD704770477047704770477047D4
:1023D000704770B54379012B1AD00126467102234C
:1023E000037105682C6840F6FE7393409C43D1E965
:1023F00000310B43934023432B6001680B68C024DA
:102400009440A3430B60067100214171084670BDE2
:10241000022070BD70B5040003D02079002510B1F2
:1024200005E0012070BD6571204600F007F802202C
:102430002071256101202071002070BD10B586B08B
:10244000044614216846FDF765FF1149206888425B
:102450001CD110480021026842F00052026000685E
:1024600000F0005005900B481038026842F001025D
:102470000260006800F00100059010200090032029
:10248000CDE901016946044800F08AF906B010BDA3
:1024900000740040403802400000024090F83510BF
:1024A000022903D08021416501207047052180F871
:1024B00035100068016821F00101016000207047BB
:1024C0002DE9F84304464FF00009CDF80090634829
:1024D0004FF41651A56D0068B0FBF1F72E6894F823
:1024E0005C10082000FA01F131420FD021680A681F
:1024F00052070BD50A6822F004020A6094F85C10B7
:102500008840A860606D40F00100606594F85C1040
:102510004FF0010808FA01F0304208D021684969FB
:10252000090604D5A860606D40F00200606594F86B
:102530005C1004208840304208D02168096889076F
:1025400004D5A860606D40F00400606594F85C10EC
:1025500010208840304218D021680968090714D536
:10256000A86020680168490304D50068000308D505
:10257000A16C07E00168C90503D4016821F00801D6
:102580000160216C09B12046884794F85C10202036
:102590008840304231D021680968C9062DD5A8602D
:1025A00094F8350005282068016806D0490347D50E
:1025B000006800031DD4616C1CE021F0160101606D
:1025C0002068416921F080014161206C08B9A06C4C
:1025D00020B12068016821F00801016094F85C10C6
:1025E0003F208840A86084F8349084F83580216DBD
:1025F0001FE0E16B09B120468847606D00282BD0B1
:10260000606DC00714D0052084F83500206801688B
:1026100021F0010101600098401C0090B84203D8ED
:1026200020680068C007F6D184F8349084F83580BB
:10263000E16C002910D001B02046BDE8F043084706
:102640000168C905D5D4016821F01001016084F842
:10265000349084F83580CCE7BDE8F8833C00002056
:102660002DE9F041044600F07DF906465CB10025F5
:1026700084F83450022084F835002068016821F085
:10268000010101600DE00120BDE8F08100F06AF970
:10269000801B052805D920206065032084F83500BB
:1026A000F2E720680068C007F0D12268116820486E
:1026B0000140D4E901031843D4E9033633431843F6
:1026C00063691843A3691843E3691843236A1843ED
:1026D0000843616A042903D1D4E90B131943084361
:1026E000106020684069666A20F0070130460E439A
:1026F000012704280CD1A06A0643E06A40B12046B5
:10270000FEF7CCFE20B14020606584F83570BAE752
:10271000206846612046FEF7ADFE94F85C203F211C
:1027200091408160656584F835700020ACE7000059
:102730003F8010F070B5044690F834000025012861
:102740000CD0012084F8340094F835600020012E6C
:1027500006D084F834000225284670BD022070BDE2
:10276000022684F8356060652046FEF7C1FE2068C9
:10277000016841F001010160EEE7000070B5044618
:1027800000F0F0F80546601C02D0044800780444CC
:1027900000F0E8F8401BA042FAD370BD30000020E2
:1027A0002DE9F84F00224FF0010803254FF00F0EDE
:1027B0000B6808FA02F42340A3426ED14E68012E42
:1027C00005D0022E03D0112E01D0122E12D1866810
:1027D0004FEA420C05FA0CF7BE43CF6807FA0CF734
:1027E000374387604668A6430C79C4F300149440CD
:1027F00034434460C668570005FA07FC8C6826EA33
:102800000C06BC403443C4604C68022C01D0122C2E
:1028100013D1D40800EB8404A346D4F820905407C5
:102820004FEAD46A0EFA0AF629EA06090E6906FA90
:102830000AF646EA0906CBF8206006680C7926EA13
:102840000C0604F00304BC40344304604C68E4000C
:1028500065D5364C266846F480462660246822F00A
:10286000030604F480440094314C3444A446D4F864
:1028700008489607370F0EFA07F6B4432D4EB042BC
:1028800001D1002624E02C4EB04201D101261FE0E8
:102890002A4EB04202D102261AE040E0284EB04251
:1028A00001D1032614E0274EB04201D104260FE0E7
:1028B000254EB04201D105260AE0244EB04201D196
:1028C000062605E0224EB04201D1072600E0082688
:1028D000BE402643CCF808681E4E34684F689C43BF
:1028E000FF0300D51C4334601A4C241D26684F6832
:1028F0009E43BF0300D51E432660164E083634683B
:102900004F689C43FF0200D51C433460114E0C36C7
:1029100034684F689C43BF0200D51C433460521C8E
:10292000102AFFF445AFBDE8F88F0000443802409C
:102930000030014000000240000402400008024054
:10294000000C024000100240001402400018024037
:10295000001C0240003C01400AB18161704709043B
:10296000FBE700000148806870470000300000204D
:10297000024881680278114481607047300000206D
:102980000B4810B5016841F400710160016841F421
:1029900080610160016841F480710160032000F0F2
:1029A0008DF8002000F006F800F03EF8002010BD81
:1029B000003C024010B5014688B00022372000F0EC
:1029C0005DF8372000F04CF813480024016841F00E
:1029D00020010160006805A900F02000069068460B
:1029E00000F018F900F036F90C494000B0FBF1F1A5
:1029F0000C480B4A491E026040F2E732C0E903244A
:102A0000C0E9011400F070FB10B1012008B010BD46
:102A1000044800F0D5FBF9E74038024040420F007F
:102A200000140040C40A00200C4882B0016841F440
:102A300080410160006800F4804000900748001F5A
:102A4000016841F0805101600068002200F0805070
:102A500000900F21901E02B000F010B844380240E0
:102A6000002809DB00F01F0201219140400980008D
:102A700000F1E020C0F8001170470000F0B40E4BE8
:102A80001B680C46C3F30223C3F10705042D00D9CC
:102A90000425191D072901D2002300E0DB1E0126B1
:102AA00006FA05F1491E214099409E40761E1640C7
:102AB0003143F0BC04F0CCBD0CED00E0064900F061
:102AC000070208684FF6FF03184040EA0220034A55
:102AD00010430860704700000CED00E00000FA05AC
:102AE0002DE9F0470E46050065D0DFF81481D8F8CF
:102AF0000000F7B200F00F00B04207D288F8007073
:102B0000D8F8000000F00F00B04254D128683D4CC6
:102B1000810712D5400703D5206840F4E0502060BB
:102B20002878000703D5206840F4604020602068C2
:102B3000A96820F0F000084320602878C0072DD055
:102B4000304968680839012812D0022813D00328B8
:102B500011D00968890700292DDA216821F00301C5
:102B600001432160FFF7FEFE814641F2883A0EE004
:102B700009688903EFE709688901ECE7FFF7F2FECE
:102B8000A0EB0901514502D90320BDE8F087206878
:102B9000696800F00C00B0EB810FEFD1D8F800109D
:102BA000404601F00F01B14207D90770006800F0FC
:102BB0000F00B04201D00120E7E72878400705D593
:102BC0002068E96820F4E050084320602878000776
:102BD00006D52068296920F4604040EAC1002060E1
:102BE00000F058F82168084AC1F30311515CC8404D
:102BF0000649086006480068FFF7DCFE0020C4E7CD
:102C0000003C024008380240EC8D00083C000020E7
:102C1000340000200F2202600C4A136803F0030303
:102C20004360136803F0F0038360136803F4E05318
:102C3000C36012684FF4E05303EAD2020261044811
:102C4000006800F00F00086070470000083802407C
:102C5000003C02400448054900680968044AC1F381
:102C60008221515CC84070473C0000200838024077
:102C7000FC8D00080448054900680968044AC1F34E
:102C80004231515CC84070473C0000200838024087
:102C9000FC8D0008154810B5006810F00C021448AF
:102CA00013D01449042A0FD0082A0ED10F4C241F28
:102CB0002268236802F03F025B0207D52068C0F358
:102CC0008810A0FB010106E0084610BD2168C1F391
:102CD0008811A1FB00010023FDF7D2FA2168C1F39E
:102CE0000141491C4900B0FBF1F010BD0838024019
:102CF0000024F400001BB7002DE9F84F04006ED04B
:102D00002078DFF83C93C007A9F104054AD009F107
:102D100004000168C1F38101012908D00068C0F3F3
:102D2000810002280AD1D9F80000400206D528689F
:102D3000800337D560680028E1D033E06068B0F5E3
:102D4000803F10D0B0F5A02F286810D020F480303C
:102D50002860286820F4802028606068A8B1FFF708
:102D600001FE06460DE0286840F48030F4E740F4A8
:102D700080202860F7E700BFFFF7F4FD801B642880
:102D800073D828688003F7D50CE0FFF7EBFD064603
:102D900005E000BFFFF7E6FD801B6428F0D8286837
:102DA0008003F7D42078DFF89C8280074FF0000A78
:102DB0003ED5A348001D016811F00C0F08D0006833
:102DC000C0F3810002280BD1D9F80000400207D4DB
:102DD0002868800716D5E068012800D112E02BE1B1
:102DE000E068B8B10120C8F80000FFF7BBFD064657
:102DF00005E000BFFFF7B6FD801B0228C0D8286899
:102E00008007F7D52868216920F0F80040EAC10062
:102E100028600DE0C8F800A0FFF7A4FD064604E016
:102E2000FFF7A0FD801B02281FD828688007F7D471
:102E30002078000722D5824E83486169703671B1CF
:102E400001210160FFF78EFD074604E0FFF78AFDD0
:102E5000C01B022809D830688007F7D50EE0C0F8FB
:102E600000A0FFF77FFD074605E082E0FFF77AFD4F
:102E7000C01B02287DD830688007F7D4207840072F
:102E800068D5DFF8BCB100270BF13C0BDBF8000084
:102E9000C0000BD4DBF8001041F08051CBF80010DB
:102EA000DBF80000012700F080500090674E30688A
:102EB000C00510D4306840F480703060FFF752FDD8
:102EC000009005E0FFF74EFD0099401A022850D807
:102ED0003068C005F6D55A4EA0686C3601280FD070
:102EE0000528306810D020F001003060306820F0F4
:102EF00004003060A068B8B1FFF734FD00900FE027
:102F0000306840F00100F4E740F004003060F7E77B
:102F1000FFF728FD0099411A41F28830814266D8B6
:102F200030688007F4D50EE0FFF71CFD009007E045
:102F3000FFF718FD0099411A41F28830814256D8B6
:102F400030688007F4D42FB1DBF8001021F08051F5
:102F5000CBF80010A069C8B33949091D0968C1F34D
:102F6000810102294AD00228504607D0C8F86000E3
:102F700000E03CE0FFF7F6FC04463BE04746C8F8BB
:102F80006000FFF7EFFC064605E000BFFFF7EAFC34
:102F9000801B02282BD828688001F7D4D4E90701C8
:102FA0000843A16A2A4A490802EB0141626A41EAE0
:102FB0008211084394F82C1040EA0161C9F800100E
:102FC00001203866FFF7CEFC044606E036E000BF7D
:102FD000FFF7C8FC001B022809D828688001F7D534
:102FE0002CE000BFFFF7BEFC001B022802D9032023
:102FF000BDE8F88F28688001F4D41FE00128F7D0DD
:10300000D9F80000E26900F48001914214D1226AEB
:1030100000F03F0191420FD147F6C071626A014052
:10302000914209D1A26A00F44031914204D1E16A8F
:1030300000F07060884201D00120D9E70020D7E776
:103040000438024000004742800E474200700040B2
:103050000000FFFF7047704770B590F83C20012AD0
:1030600032D0012480F83C40022280F83D200368E1
:103070005A689D6822F070060A6832435A60134B02
:1030800002689A4214D0B2F1804F11D0104B9A428C
:103090000ED0104B9A420BD00F4B9A4208D00F4BD8
:1030A0009A4205D00E4B9A4202D00E4B9A4204D15E
:1030B000496825F080031943916080F83D40002164
:1030C00080F83C10084670BD022070BD0000014031
:1030D0000004004000080040000C004000040140D3
:1030E000004001400018004010B5040003D094F8DF
:1030F0003D0010B107E0012010BD002084F83C0025
:10310000204600F00DF8022084F83D00211D2068C3
:1031100003F078FF012084F83D00002010BD00007E
:1031200008B52149026821488A4205D1016841F069
:1031300001010160006812E01C49091FB2F1804FD3
:1031400008D01B4B9A420ED1086840F0020008607C
:10315000086810E0086840F001000860086800F0A6
:103160000100009008BD134B9A4207D1016841F05D
:1031700002010160006800F00200F2E70E4B9A4283
:1031800007D1016841F480310160006800F48030AB
:10319000E7E70A488242E5D1086840F0400008604D
:1031A000086800F04000DCE70000014044380240BD
:1031B00000040040000401400040014000180040AD
:1031C0000168CA6842F00102CA600068816801F0C3
:1031D0000701062903D0016841F0010101600020C8
:1031E000704770B5044690F83C00012817D00125BF
:1031F00084F83C50022084F83D002068826822F068
:10320000770222F47F4282600868502830D00DDCBB
:1032100020284DD005DC98B310283BD148E002208F
:1032200070BD302844D0402834D139E0602828D0FF
:10323000702806D0B0F5805F2CD0B0F5005F29D1A2
:103240000AE0CB68D1E90121206803F04CFF206837
:10325000816841F0770109E0CB68D1E9012120685C
:1032600003F041FF2068816841F48041816011E0F2
:10327000CA684968206804F00BF85021206807E00C
:1032800016E0CA684968206804F013F860212068D5
:1032900003F033FF84F83D50002084F83C0070BDFB
:1032A000CA684968206803F0F3FF40212068EFE70F
:1032B000226801461046EBE72DE9F0410D46040077
:1032C00003D094F83D0018B108E00120BDE8F0817A
:1032D000002084F83C00204600F03AF8022084F8F0
:1032E0003D002068816844F2070291438160211DFE
:1032F000206803F087FE226890689169166A2B683F
:10330000AF69034340F20330814341EA0721A868D3
:10331000EF6908434FF6FC418843E96840EA07201B
:10332000014328692F6A000140EA073008436968B1
:103330006D6926F0AA0646EA0515294393602268BE
:10334000906120680162012084F83D000020BDE703
:1033500030B587B0044614216846FCF7DBFF2048EF
:1033600024681E4D00221E4910380223AC4216D19B
:103370000C6844F004040C60096801F00401059134
:10338000016841F0020101600068694600F0020036
:103390000590C0200090CDE90132124818E0124D8E
:1033A000AC4219D10C6844F008040C60096801F0C3
:1033B00008010591016841F001010160006869465A
:1033C00000F00100059003200090CDE9013207488C
:1033D000CDE90323FFF7E4F907B030BD0008004052
:1033E0004038024000040240000C0040000002404F
:1033F00010B50446006891B1042904D001220021CF
:1034000003F064FE206801225FF0040103F05EFE19
:103410002068016841F001010160002010BD012217
:103420000021F3E7704770B50446006801694FF06A
:103430000005C943890715D4C168C943890711D458
:10344000E91E0161012020772068806980072046FD
:1034500002D0FFF7E7FF04E000F0EEF8204600F0AE
:1034600070F9257720680169C943490717D4C168F5
:10347000C943490713D46FF004010161022020778A
:103480002068806910F4407F204602D0FFF7CAFF11
:1034900004E000F0D1F8204600F053F925772068C9
:1034A0000169C943090716D4C168C943090712D481
:1034B0006FF008010161042020772068C06980074F
:1034C000204602D0FFF7AEFF04E000F0B5F820463A
:1034D00000F037F9257720680169C943C90617D478
:1034E000C168C943C90613D46FF0100101610820F7
:1034F00020772068C06910F4407F204602D0FFF793
:1035000091FF04E000F098F8204600F01AF92577C2
:1035100020680169C943C90708D1C168C943C907FF
:1035200004D1891E0161204600F05CF92068016920
:10353000C943090609D4C168C943090605D46FF017
:10354000800101612046FFF785FD20680169C943BC
:10355000490609D4C168C943490605D46FF0400142
:103560000161204600F048F920680169C9438906D5
:103570000BD4C168C943890607D46FF020010161EB
:103580002046BDE87040FFF766BD70BD30B587B01E
:10359000044614216846FCF7BDFE2168002421483A
:1035A0000225B1F1804F29D01F4A914224D10168F0
:1035B00041F004010160016801F004010591016816
:1035C00041F0020101600068694600F002000590C8
:1035D00050150090CDE901541448CDE90345FFF79B
:1035E000DFF810200090CDE9015411486946CDE97B
:1035F000034500BFFFF7D4F807B030BD016841F0C4
:10360000010101600068694600F0010005904FF477
:1036100000400090CDE901540120CDE90340054868
:10362000E8E7000030380240000400400008024093
:103630000004024000000240704770B5044690F854
:103640003C000D4601280DD0012684F83C60022084
:1036500084F83D0042B1042A18D0082A2AD00C2A46
:103660004DD139E0022070BD206803F04FFD206885
:10367000816941F0080181612068816921F00401BC
:103680008161206881692A69114311E0206803F093
:103690006DFD2068816941F4006181612068816964
:1036A00021F480618161206881692A6941EA0221EF
:1036B000816124E0206803F08FFD2068C16941F03A
:1036C0000801C1612068C16921F00401C16120685D
:1036D000C1692A69114311E0206803F0B1FD206837
:1036E000C16941F40061C1612068C16921F4806150
:1036F000C1612068C1692A6941EA0221C16184F877
:103700003D60002084F83C0070BD10B5040003D07B
:1037100094F83D0010B107E0012010BD002084F8AE
:103720003C00204600F00CF8022084F83D00211DEA
:10373000206803F067FC012084F83D00002010BDE4
:103740007047704710B504460068012203F0BEFCC4
:103750000B492068884202D00A49884203D1416C53
:1037600041F4004141642068816801F007010629A5
:1037700003D0016841F001010160002010BD00008C
:10378000000001400004014010B50446006800221A
:1037900003F09CFC114841F2111221689310814200
:1037A00002D00F48814209D1086A104206D1086A46
:1037B000184203D1486C20F4004048642068016A34
:1037C000114206D1016A194203D1016821F00101B9
:1037D0000160012084F83D00002010BD0000014080
:1037E0000004014000680349884201D1FFF7C0B8D6
:1037F00070470000001400407047704710F8391FF0
:10380000407808437047000070B5026804461068AD
:10381000D168536910F00F0F53D003F0010501F484
:1038200090762E435FD0C20705D0CA0503D5E26B60
:1038300042F00102E263420705D5DA0703D0E26BEA
:1038400042F00202E263820705D5DA0703D0E26B99
:1038500042F00402E263020707D501F020022A4386
:1038600003D0E26B42F00802E263E26B002A34D03C
:10387000800604D5880602D5204603F04FFD206857
:103880004069E16BC0F3801001F00801014320465C
:1038900024D003F035FD2068416949061AD54169F5
:1038A00021F040014161606BA0B11B490165606B73
:1038B000FEF7F4FD002810D0606B016DBDE870408C
:1038C000084783060FD58B060DD52046BDE870400E
:1038D00003F024BD2046FFF790FF70BDFFF78DFF7A
:1038E0000020E06370BD030606D50B0604D5204614
:1038F000BDE8704003F0F2BD4006F3D54806F1D5AF
:10390000D168204621F04001D160202184F839108F
:1039100000F0B8F970BD0000F172000870B5040045
:1039200004D094F83900002510B106E0012070BDE4
:1039300084F83850204600F023F8242084F8390019
:103940002068C16821F40051C160204603F032FDB7
:103950002068016921F4904101612068416921F0EA
:103960002A0141612068C16841F40051C160E563EA
:10397000202084F8390084F83A00002070BD00004F
:103980002DE9F04F87B0054614216846FCF7C2FCCC
:10399000A0489F4B1038D5F800C00024DFF874A26F
:1039A00002210322061587154FF0080E4FF000691B
:1039B0009C4557D1DAF800C04CF4801CCAF800C00E
:1039C000DAF8003003F480130593036843F004032E
:1039D0000360036803F004030593036843F00803DE
:1039E000036000688B4600F008000590C802CDE92E
:1039F00000010120CDE902029246F0466946CDF869
:103A000010E08548FEF7CCFE0420CDE9000B012034
:103A1000CDE9020A6946CDF810808048FEF7C0FE65
:103A2000DFF800827E494046C8F80010C0E90194E2
:103A3000C0E90346C8F81440C0E90647C8F820406A
:103A4000C8F82440FEF70CFE08B1FDF766FDC5F886
:103A50003480002205213520C8F83850FFF70EF8D1
:103A6000352046E06B4BDFF8C0811B1D4FF0070B84
:103A7000C44543D1D3F800C04CF0100CC3F800C0CB
:103A80001B6803F010030593036843F00103036010
:103A9000006800F0010005904FF4C0608DE813004D
:103AA000CDE9032B69466148FEF77AFEDFF87481A1
:103AB0005F4908F160084046C8F80010C0E9019469
:103AC000C0E90346C8F81440C0E90647C8F82040DA
:103AD000C8F82440FEF7C4FD08B1FDF71EFDC5F887
:103AE0003480002205212520C8F83850FEF7C6FF93
:103AF0002520FEF7B5FF07B0BDE8F08FDFF8348171
:103B0000C44541D1DAF800C04CF4802CCAF800C09A
:103B1000DAF8003003F480230593036843F00203CE
:103B20000360006800F0020005904FF440608DE8EB
:103B30001300CDE9032B69463F48FEF731FEDFF85D
:103B4000E480374908F1C00818314046C8F8001031
:103B5000C0E90194C0E90346C8F81440C0E906472B
:103B6000C8F82040C8F82440FEF77AFD08B1FDF7F8
:103B7000D4FCC5F83480002205212720C8F838502D
:103B8000FEF77CFF2720B4E7DFF8B080C445B2D150
:103B9000D3F800C04CF0200CC3F800C01B6803F041
:103BA00020030593036843F004030360006800F0FA
:103BB00004000590C0208DE81300CDE9032E69466E
:103BC0001548FEF7EDFD1A49DFF8748018394046B4
:103BD000C8F800108905C0E90114C0E90346C8F817
:103BE0001440C0E90647C8F82040C8F82440FEF752
:103BF00037FD08B1FDF791FCC5F83480002205219E
:103C00004720C8F83850FEF739FF472071E7000019
:103C1000005000404038024000080240000C0240C2
:103C200010600240440900200010014000000240E2
:103C3000406402400048004000040240001401407B
:103C4000640A0020704790F83930202B18D1A9B1B0
:103C5000A2B190F83830012B12D001628284C28464
:103C60000021C163212280F8392080F838100068D3
:103C7000C16841F08001C160002070470120704799
:103C8000022070477047FEE77CB5044604200D46CD
:103C900084F83000FEF766FE60632846FDF70AFBF5
:103CA000584906226B460870B5F80710ADF80010A9
:103CB000B5F80910ADF80210B5F80B00ADF8040026
:103CC0000020DFED510A514933F9106000EE106A0F
:103CD00001EB8006401CB8EEC00A032820EE200A43
:103CE00086ED000AF0DB91ED010AD21D84ED030A96
:103CF00091ED020AA81884ED020AD4ED091AC4ED68
:103D0000071A94ED082A84ED062A30F9012FADF840
:103D1000002000EE102AB0F90210ADF80210B8EE43
:103D2000C01AB0F90400ADF80400DFED390A374AD3
:103D300081EE200A01EE101A0C32B8EEC11AC1EE63
:103D4000202A00EE900A82ED000A70EE611AB8EEA9
:103D5000E01A304811EE901A8142C2ED012AF2EECB
:103D6000042AC1EE220AB7EE001AC2ED020A84ED5F
:103D7000090AC4ED080A05D9D4ED012A72EE812A98
:103D8000C4ED012A11EE902A2349D4ED011A8A428A
:103D900003DD71EEC11AC4ED011ADFED202A01EE38
:103DA000A20A70EEC21A11EE902A84ED050A824230
:103DB00005D994ED002A32EE012A84ED002A11EE95
:103DC000900A884202DC94ED001A05E0D4ED001A56
:103DD00031EEC11A84ED001A41EE220A94ED0B1A5D
:103DE00030EE010A84ED050A94ED0A0A30EEC00AAD
:103DF00084ED040AFEF7B6FD6063012084F830000C
:103E00007CBD0000B8000020CDCCCC3D2449002072
:103E10000000C842000035C3000035430000B44331
:103E200000487047EC4800209FED0A0AD0ED050AD3
:103E3000002100BF30EE800A491C6429FADBD0ED76
:103E4000040AC0ED0A0ADFED040A80EE201A80EDB4
:103E50000B1A7047000000000000C84210B5094866
:103E600000F034F8FEF77EFD0649074C48632068F1
:103E700003F08DFB034920681422BDE8104014397B
:103E800003F08FBBEC480020C000002010B50446B2
:103E9000406B0068016821F001010160606B0068FF
:103EA00003F072FB0849C0F1140201F11400FFF79E
:103EB000EBFE616B142009684860606B0068016864
:103EC00041F00101016010BDD84800209FED090AB2
:103ED00080ED010A80ED000A80ED050A80ED040AFC
:103EE00080ED090A80ED080A80ED0A0A80ED0B0AD0
:103EF000704700000000000010B500F0ADFB02F0BC
:103F000035FDFFF7ABFF01F001F901F0E1FBFDF733
:103F100013F90948FDF7EEF90848FDF7EBF9FDF74D
:103F200077FC02F0CDFE01F0ADF802F04BFABDE8EF
:103F3000104002F0FDBC0000E00500200806002053
:103F400010B586B00021134A049105918DED040A45
:103F50001ECA8DE81E00002104AB6C4601E0022958
:103F60000BDA03EB810292ED000A00EB810282ED95
:103F7000060A82ED080A82ED0A0A04EB810292ED3C
:103F8000000A00EB8102491C82ED0C0A0429E6DBE1
:103F900006B010BD4C96000810B586B00021134A3B
:103FA000049105918DED040A1ECA8DE81E000021C2
:103FB00004AB6C4601E002290BDA03EB810292EDBF
:103FC000000A00EB810282ED060A82ED080A82ED0A
:103FD0000A0A04EB810292ED000A00EB8102491CFF
:103FE00082ED0C0A0429E6DB06B010BD3C96000801
:103FF00070B50D460B46022204461146FCF7FFFC45
:1040000005F110030222012104F10800FCF7F7FC7E
:1040100005F118030122022104F11000FCF7EFFC66
:1040200005F120030122022104F11800FCF7E7FC4E
:1040300005F128030122022104F12000FCF7DFFC36
:10404000022205F13003114604F12800FCF7D7FCE9
:10405000022205F14003114604F13000FCF7CFFCC9
:10406000022205F15003114604F13800FCF7C7FCA9
:10407000022205F16003114604F14000FCF7BFFC89
:10408000012205F17003114604F14800FCF7B7FC6A
:1040900005F174030122022104F15000FCF7AFFC8A
:1040A00095ED0A0A012084ED160A9FED060A84EDBB
:1040B000170A60660020A066B3EE040AE06684ED8D
:1040C000180A70BD00000000F0B53C499DB001F138
:1040D000480202AE3CCA86E83C008DED030AD1E9F5
:1040E0000423CDE91B23002219921A925831CDEDF9
:1040F000190A78C9CDE909620B920C9206AE0D92AD
:104100000E920F921092119286E8380078C914AF7F
:104110000DF1500C87E8780051F8743C12920021A0
:1041200002AC06AD0AAE0EAFCDF84C2004EB810216
:10413000022992ED000A00EB810282ED000A1BDAEF
:104140000DF16C0E0EEB810E9EED000A0DF1640E6A
:104150000EEB810E82ED040A9EED000A0DF1480E71
:1041600082ED060A82ED080A0EEB810E82ED0A0A44
:104170009EED000A82ED1D0A05EB810E9EED000A00
:1041800006EB810E82ED0C0A9EED000A07EB810E14
:1041900082ED100A9EED000A0CEB810E82ED140AEE
:1041A0009EED000A491C82ED180A0429BEDB00EED0
:1041B000103A80ED1C0A1DB0F0BD0000C495000847
:1041C000F0B53C499DB001F1180202AE3CCA86E848
:1041D0003C008DED030AD1E90223CDE91B23002227
:1041E00019921A922831CDED190A78C9CDE90962E0
:1041F0000B920C9206AE0D920E920F9210921192AB
:1042000086E8380078C914AF0DF1500C87E87800C3
:1042100051F8483C1292002102AC06AD0AAE0EAF36
:10422000CDF84C2004EB8102022992ED000A00EB4C
:10423000810282ED000A1BDA0DF16C0E0EEB810E8D
:104240009EED000A0DF1640E0EEB810E82ED040A64
:104250009EED000A0DF1480E82ED060A82ED080A75
:104260000EEB810E82ED0A0A9EED000A82ED1D0A18
:1042700005EB810E9EED000A06EB810E82ED0C0A25
:104280009EED000A07EB810E82ED100A9EED000AFA
:104290000CEB810E82ED140A9EED000A491C82EDA2
:1042A000180A0429BEDB00EE103A80ED1C0A1DB08E
:1042B000F0BD0000C4950008F0B504462F488DB04D
:1042C000034680ED000A0122114608A8FCF797FB7F
:1042D0002A4B01221B1D11466846FCF790FB274B19
:1042E00001220833114602A8FCF789FB234B012267
:1042F0001433022104A8FCF782FB04F1180104F135
:1043000008006A460D460646FCF7E6FC02AA694626
:1043100008A8FCF77FFD04F1500004AA02A9074693
:10432000FCF7DAFC04F1200204A92846FCF708FB9C
:10433000124B02221C3311460AA8FCF760FB022232
:104340000F4B114606A8FCF75AFB04F1380215463C
:1043500031463846FCF7C0FC06AA29460AA8FCF7F5
:1043600059FD2A4604F1300106A8FCF7B5FC606A45
:1043700090ED000A84ED160A0DB0F0BD0801002092
:10438000D85A002070B594B0044600200A900B90D3
:104390000C900D90109011900E900F900AAB02228D
:1043A000012104A8FCF72BFB0CAB0122022102A87F
:1043B000FCF725FB012210AB11466846FCF71FFBFA
:1043C000012211AB114606A8FCF719FB0EAB012226
:1043D000022108A8FCF713FB04F1300104F10800E6
:1043E00004AA0D460646FCF777FC02A93046FCF706
:1043F00071FD6A4602A904A8FCF76EFC06AA04F146
:1044000048016846FCF79CFA694606A8FCF7FCFAE6
:1044100008AA02A92846FCF75FFC04F1500269468D
:1044200008A8FCF759FC14B070BD30B58DB0044637
:104430000020009001900290039004900590069057
:10444000022207906B46114608A8FCF7D8FA022210
:1044500004AB11460AA8FCF7D2FA04F1180204F1E1
:1044600010012046FCF738FC04F13002154604F137
:1044700028012046FCF730FC08A92046FCF72AFD5D
:104480000AAA08A92846FCF727FC2A4604F140019D
:104490000AA8FCF755FAE06990ED000A84ED160AC7
:1044A0000DB030BD70B505462DED048BB0EE408AE1
:1044B0000A211E4C00F05AF8D5ED168A30EE680A33
:1044C000B0EEC00A10EE100AFCF7EEF89FED181BD4
:1044D00053EC112BFBF729FF38EE680A41EC190B5E
:1044E000B0EEC00A10EE100AFCF7DEF853EC192B00
:1044F000FCF7EEF80ED8FEF735FAE168401AB0F591
:10450000FA7F02DA10F5FA7F0BDC0120E86684ED11
:10451000048A06E0FEF726FAE06084ED048A0020B3
:10452000E86694ED040ABDEC048B70BD0801002020
:10453000000000000000F83F10B504462DED028B8E
:10454000B0EE408AFFF771FF2046FFF71BFFB0EE89
:10455000480A2046FFF7B0FE204600F04BF8002046
:10456000A066BDEC028B10BDFFF75FBF70B58AB0CF
:104570000C00064619D0002006900790089009907C
:1045800006AB0122022102A8FCF739FA08AB01228E
:10459000022104A8FCF733FA02AA06F11001304602
:1045A000FCF79AFB0025641E15E090ED160A0AB090
:1045B00070BD04AA02A93046FCF78EFB05986D1C5D
:1045C00090ED000A039880ED000A059890ED010A2D
:1045D000039880ED010AA542EBDB039890ED000AF9
:1045E000E5E70021416670470121416670470121DE
:1045F00081667047C16A91ED000AC16BD1ED000A76
:1046000030EE600AB0EEC00A80ED170A428D018DCF
:104610004A4300210AE0C36B03EB810393ED000AD8
:10462000C36A03EB8103491C83ED000A9142F2DB6C
:10463000428A018A4A4300210AE0436A03EB81036C
:1046400093ED000A436903EB8103491C83ED000AE3
:104650009142F2DB704700007CB5002401231D026B
:1046600000942A4607490848019400F011F80648CA
:10467000009401232A4605490C30019400F008F803
:104680007CBD0000000802403C49002000000240C0
:1046900030B4DDE9024501608280C37104722946AD
:1046A00030BCAFF3008070B50D00044602D0012D80
:1046B00002D006E0E27900E0227AA1882068FEF7C5
:1046C0004BF9A57170BD00007FB500211F48009116
:1046D000019102911C4A0391026001244FF480323F
:1046E0000461C0E90121047680F82010184AC0E96D
:1046F0000A210325C561C16080F830404161FDF7A2
:1047000011FA08B1FCF709FF0226CDE900646946F9
:104710000E480294FDF760F908B1FCF7FEFECDE902
:10472000005669460948FDF757F908B1FCF7F5FE50
:104730000520CDE9000569460448FDF74DF900283C
:1047400001D0FCF7EAFE7FBD0020014038050020C3
:104750000100000F0F4810B50D49016003214160B1
:1047600000214FF400228160C0E903124FF440128F
:104770004261017641768176C17601774177FDF716
:10478000D0FC002803D0BDE81040FCF7C6BE10BD29
:1047900000640040E00500200F4810B50D4901609D
:1047A0000321416000214FF400228160C0E903121F
:1047B0004FF440124261017641768176C1760177ED
:1047C0004177FDF7AEFC002803D0BDE81040FCF7B0
:1047D000A4BE10BD00680040080600201CB50024DF
:1047E0000C4900940A48019408600846FDF712FE3F
:1047F00008B1FCF792FE0094002269460548019436
:10480000FDF7E7FD002801D0FCF787FE1CBD000086
:1048100000740040300600201D4808B5016841F4CE
:1048200000110160016801F400110091016841F478
:10483000800101600068002200F4800000900521E2
:104840000B20FEF71BF90B20FEF70AF900220521C9
:104850000C20FEF713F90C20FEF702F900220521C7
:104860003820FEF70BF93820FEF7FAF80022052170
:104870003920FEF703F93920FEF7F2F8002205216E
:104880003A20FEF7FBF8BDE808403A20FEF7E8B80A
:104890003038024010B53D4BCAB046AC0FCB84E86F
:1048A0000F00002146A803F0BCFB394C37491C22FD
:1048B000A06210316846FBF714FD0021684603F042
:1048C000C3FB324920601C222C3107A8FBF709FDED
:1048D000002107A803F0B8FB2C4960601C22483176
:1048E0000EA8FBF7FEFC00210EA803F0ADFB274944
:1048F000A0601C22643115A8FBF7F3FC002115A869
:1049000003F0A2FB2149E0601C2280311CA8FBF7C8
:10491000E8FC00211CA803F097FB1C4920611C2225
:104920009C3123A8FBF7DDFC002123A803F08CFBBE
:10493000164960611C22B8312AA8FBF7D2FC00217D
:104940002AA803F081FB1149A0611C22D43131A8AF
:10495000FBF7C7FC002131A803F076FB0B49E061AF
:104960001C22F03138A8FBF7BCFC002138A803F06A
:104970006BFB20621C2207493FA8FBF7B2FC002119
:104980003FA803F061FB60624AB010BDBC8C000818
:1049900000000020C88D00082DE9F04786B01421E2
:1049A0006846FBF7B7FC30480024016841F08001FD
:1049B0000160016801F080010591016841F0010189
:1049C0000160016801F001010591016841F00401F5
:1049D0000160016801F004010591016841F00201E4
:1049E0000160016801F002010591016841F00801D0
:1049F00001600068DFF8748000F008004FF49875DB
:104A00000590002229464046FDF7A6FFDFF860909A
:104A10004FF44046002231464846FDF79DFFDFF83F
:104A200054A04FF48077002239465046FDF794FF9A
:104A300000950125CDE90154694640460394FDF7F0
:104A4000AFFE0096CDE90154694648460394FDF750
:104A5000A7FE0097CDE90154694650460394FDF73F
:104A60009FFE06B0BDE8F0873038024000080240E3
:104A700000040240000002401FB5002110480091D0
:104A8000019102910D4A0391C0E900214FF6FF7296
:104A9000C0E9021201618161FEF726FB08B1FCF753
:104AA0003CFD4FF48050009069460548FEF799FBA5
:104AB000002801D0FCF731FD1FBD000000180040A8
:104AC0000408002010B586B0002417480094019413
:104AD00002940394049413490594C0E900144FF61A
:104AE000FF71C0E90241046144618461FEF7FCFA90
:104AF00008B1FCF712FD4FF48050009069460A4857
:104B0000FEF76FFB08B1FCF708FD049404A9064802
:104B10000594FEF7A1FA002801D0FCF7FEFC06B0D0
:104B200010BD0000000001404406002010B58EB00A
:104B300000240794089409940A940B941C21684655
:104B40000C94FBF7E7FB1D484FF080410160A72163
:104B5000C0E901146321C0E903148461FEF7C4FABB
:104B600008B1FCF7DAFC4FF48050079007A913480E
:104B7000FEF737FB08B1FCF7D0FC1048FEF7C5FD87
:104B800008B1FCF7CAFC0B940BA90C480C94FEF777
:104B900063FA08B1FCF7C1FC6020CDE9000402947F
:104BA0000022694605480494FEF747FD08B1FCF76A
:104BB000B4FC0248FEF7EAFC0EB010BD84060020EB
:104BC00010B58EB000240794089409940A940B94AD
:104BD0001C2168460C94FBF79DFB2248204901608C
:104BE000A721C0E9011440F2CF71C0E90314846128
:104BF000FEF77AFA08B1FCF790FC4FF4805007906A
:104C000007A91848FEF7EDFA08B1FCF786FC15482D
:104C1000FEF77BFD08B1FCF780FC0B940BA9114853
:104C20000C94FEF719FA08B1FCF777FC6020CDE987
:104C300000040294002269460A480494FEF7FDFC31
:104C400008B1FCF76AFC0C2269460648FEF7F5FC41
:104C500008B1FCF762FC0348FEF798FC0EB010BDEB
:104C600000040040C406002010B58CB02421684622
:104C7000FBF750FB00241648099414490A94C0E934
:104C800000144FF6FF71C0E9024104618461032002
:104C9000CDE900040120CDE9020405210491CDE90C
:104CA0000540CDE9074169460948FEF705FB08B113
:104CB000FCF733FC099409A905480A94FEF7CCF9DE
:104CC000002801D0FCF729FC0CB010BD0008004002
:104CD0000407002010B58CB024216846FBF71AFBAE
:104CE00000241648099414490A94C0E90014611E6E
:104CF000C0E90241046184610320CDE90004012080
:104D0000CDE9020405210491CDE90540CDE9074133
:104D100069460A48FEF7D0FA08B1FCF7FEFB099491
:104D200009A906480A94FEF797F9002801D0FCF774
:104D3000F4FB0CB010BD0000000C00404407002044
:104D400010B586B00024174800940194029403948F
:104D5000049413490594C0E900144FF6FF71C0E9AB
:104D60000241046144618461FEF7BEF908B1FCF7B9
:104D7000D4FB4FF48050009069460A48FEF731FAA0
:104D800008B1FCF7CAFB049404A906480594FEF791
:104D900063F9002801D0FCF7C0FB06B010BD00008D
:104DA00000040140840700201FB500211048009135
:104DB000019102910D4A0391C0E900214FF6FF7263
:104DC000C0E9021201618161FEF78EF908B1FCF7BA
:104DD000A4FB4FF48050009069460548FEF701FAA5
:104DE000002801D0FCF799FB1FBD000000400140E6
:104DF000C40700200C4810B50A4901604FF4E131A6
:104E00004160002181600C22C160C0E9041281610F
:104E1000C161FEF783FD002803D0BDE81040FCF718
:104E20007CBB10BD00500040440800200D4810B568
:104E30000B4901600C49416000214FF480628160A0
:104E4000C0E903120C22C0E90521C161FEF766FD2D
:104E5000002803D0BDE81040FCF75FBB10BD000088
:104E60000010014084080020A08601000C4810B505
:104E70000A4901604FF4E1314160002181600C2258
:104E8000C160C0E904128161C161FEF747FD0028DD
:104E900003D0BDE81040FCF740BB10BD0048004007
:104EA000C40800200D4810B50B4901604FF4E131F2
:104EB000416000214FF4C0628160C0E903120C22FE
:104EC000C0E90521C161FEF729FD002803D0BDE836
:104ED0001040FCF722BB10BD001401400409002063
:104EE000D0ED001AF5EEC01AF1EE10FA01D1012151
:104EF00000E0002190ED011AB5EEC01AF1EE10FAB3
:104F000001D1012000E00020014313D130EEE12A5D
:104F1000B4EEC02AF1EE10FA02DD31EE800A7047DD
:104F200071EE201AF4EEC01AF1EE10FA02D230EE51
:104F3000410A7047B0EE600A704790ED000A0129FF
:104F40000CD0022909D1D0ED020A90ED011AF0EE41
:104F5000001A41EE610A30EE800A7047D0ED010A76
:104F600030EE600A704780EC020A7047FEE70000EE
:104F700070B5194C05462DED028B007AE07005F1F5
:104F8000090002F0E1FE00EE100A9FED148A05F11F
:104F90000B00B8EEC00AC0EE080AC4ED010A02F028
:104FA000D3FE00EE100A05F10D00B8EEC00AC0EE07
:104FB000080AC4ED020A02F0C7FE00EE100ADFED97
:104FC000080A0120B8EEC00A80EE201A84ED031A08
:104FD0006074BDEC028B70BD544900200000C842D3
:104FE00000007A4410B5FCF70FFC084C00F038FACA
:104FF000D4F81802012805D1D4F81C02012801D1E7
:1050000000F096F8BDE8104000F0B4B9B05F0020A1
:1050100070B50446034D00F025F885F838428470D9
:1050200070BD0000B05F002070B50E4604460A4D0A
:10503000FDF798FC6861207938B102280BD1314620
:105040002046BDE87040FFF793BF31462046BDE8DB
:10505000704000F00BB870BD544900200048704704
:10506000B05F002000487047544900200448017890
:10507000032901D80A210170012141747047000001
:105080005449002070B51F4C01252DED028B04F111
:1050900018002570BFEE000AFCF710FB04F12C008D
:1050A000BFEE000AFCF70AFBC4F81852C4F81C5201
:1050B0000020C4F83052C4F82802C4E988509FED9B
:1050C000128A04F14000F7EE000AB0EE480A0546E5
:1050D000FFF776F8294604F59C70FEF789FF04F186
:1050E000BC00F7EE000AB0EE480A0546FEF7ECFFFA
:1050F000BDEC028B294604F5D470BDE87040FEF784
:1051000077BF0000B05F00206F12833A10B500F047
:10511000DDF8054C206802F03AFA2068BDE810403E
:10512000C822024902F03DBAC80000206C490020A4
:105130002DE9F05F524CFEF773FE054694F83922D4
:105140002046DFF840A100F59C7800F5D479012ACB
:1051500008D19AF8002000F1400700F1BC066AB1BE
:10516000012A2FD04046FFF73CFA4846FFF739FAAC
:1051700094F839128AF80010BDE8F09F95ED040A02
:10518000D4ED020A384630EE600AFEF705FF3946D4
:1051900040464746FEF72CFF3846FFF725FA95EDC7
:1051A000050AD4ED030A3046354630EE200AFEF7F4
:1051B000C7FE294648464D46FEF71AFF2846FFF728
:1051C00013FAD5E7D4F8A0014FF0000B01280BD05B
:1051D0004046FFF7C9F900BFD4F81002012828D0D3
:1051E0004846FFF7C1F9C3E795ED040AD4ED020A7A
:1051F00030EE600A8AED030AD4F82802012802D1B1
:105200004046FFF74FF9D4F8A401012803D1D4F8A0
:105210002802012803D04046FFF78EF9DCE7384624
:10522000FEF7BAFE39464046FEF7E2FEC4F8A4B1E6
:10523000D2E795ED050AD4ED030A30EE200A8AED97
:10524000040AD4F82802012802D14846FFF72AF9B7
:10525000D4F81402012803D1D4F82802012803D07D
:105260004846FFF769F983E730463546FEF768FEA2
:1052700029464846FEF7BCFEC4F814B278E70000A1
:10528000B05F00203401002010B50446406B006878
:10529000016821F001010160606B006802F074F99F
:1052A000C0F1C80081B20848FFF7BEFE00F026F941
:1052B000616BC82009684860606B0068016841F054
:1052C0000101016010BD00006C49002010B5094CBF
:1052D00000209FED090A207084ED030AE070A070A1
:1052E00084ED020A84ED010A60746070FDF73AFBF8
:1052F000606110BD54490020000000002DE9F0411C
:1053000000F0D8F81948042100F1E0044174A52107
:1053100021705A2161700021A170027CE27002228A
:1053200021716271A171E17141780A262172807840
:10533000002760723D46601902F009FD3844AD1C3B
:1053400087B2B542F7DBA11D384603F0EEF8084DF1
:105350002868FEF753FAC00706D13246214628686E
:10536000BDE8F04102F06AB9BDE8F081544900207F
:10537000C800002070B5384C2DED048BFFF772FE8D
:10538000FEF74EFD0546FCF73FFA064694ED020A8D
:1053900094ED038A04F1240104F11800FCF758F994
:1053A00084ED040A04F1380104F12C00B0EE480A3F
:1053B000FCF74EF984ED050A2078002848D094F8CF
:1053C0003902012844D1307D012841D1D4F830027E
:1053D000012807D1D4F81802012803D1D4F81C02FF
:1053E00001280ED095ED040AD4ED040A30EE600ACF
:1053F000FCF7C6FA95ED050AD4ED050A30EE200A51
:1054000010E0D4F82002012812D0D4ED648A94ED83
:10541000808A00BFB6EE009A38EE890AFCF7B0FA2F
:1054200038EE490ABDEC048BBDE87040FCF776BA53
:105430000A4D04F59C706968FFF798F8F0EE408A11
:1054400004F5D470A968FFF791F8B0EE408AE1E75F
:10545000BDEC048B70BD0000B05F00203401002063
:1054600010B50E4CFDF77EFAD4F83412401A01D470
:10547000014600E041420A4A1268914201D80121E6
:1054800007E0002800DA404206490968884203D351
:105490000021024880F8391210BD0000B05F0020E2
:1054A000248E0008288E0008FFF728FF642002F0F1
:1054B000ACFDF9E770B5FBF73BFE057B0E49032217
:1054C000042305240120672D10D008DC4FF00000D4
:1054D000032D0BD0042D0CD0052D06D103E0682D33
:1054E00007D0692D01D148700C7470BD48700A74E2
:1054F00070BD48700B7470BD54490020AFF300803C
:1055000070B5104CFFF7AEFD90ED030A054684ED33
:10551000010AC07801280BD1FDF724FAC4F834023F
:1055200095ED010A84ED020A95ED020A84ED030A65
:1055300004F59C70FFF75BF804F5D470BDE870408B
:10554000FFF755B8B05F00202DE9F0410D4604008B
:105550003BD0002D39D094F82801002835D061784F
:1055600004F1AC0611B1A07805280DD3207805F11F
:10557000A0010F46012802D0022817D002E03046D1
:1055800000F048FB0020A070C0B2401CA070607802
:1055900000281AD0304600F0B5FC201D00F0E9FCD0
:1055A0002946201DBDE8F04100F034BB04F158004D
:1055B00005F15001804600F02DFB404600F0A2FCB2
:1055C000304600F0D6FC3946D9E7BDE8F0812DE938
:1055D000F041154604002FD0002D2DD094F828015D
:1055E000002829D005F1A00604F1AC07012902D05A
:1055F000022913D003E03146384600F00BFB6078F7
:10560000002819D0384600F07DFC201D00F0B1FCC8
:105610002946201DBDE8F04100F0FCBA04F1580015
:1056200005F15001804600F0F5FA404600F06AFCB2
:10563000384600F09EFCDEE7BDE8F08110B50C00B6
:105640001AD0B4F80011A4F80811018849BAA4F8D6
:105650000011418849BAA4F80211818849BAA4F816
:105660000411807984F80601D4F86811204688472F
:10567000FDF778F9C4F8240110BD0000084B9842EA
:105680000CD1B1F5017F07D0A1F50071063905D124
:1056900004491046FFF7D2BF0349FAE770470000FC
:1056A000E00500205C530020DC5400209FED070A39
:1056B00000280AD090F82811002906D0417809B1B5
:1056C000001D00E0AC3000F01DBC70470000000081
:1056D0002DE9F041674D4FF400782DED028BA5F1D7
:1056E000100684B03560644B042201212846CDF8B1
:1056F000008000F029F90024604F0122CDE9024723
:105700000094BFEE000A2346114605F1D000019433
:1057100000F0C4F8CDE9024701220094BFEE000A70
:105720000023114605F51470019400F0B7F8CDE997
:10573000024701220094BFEE000A0023114605F53E
:105740007470019400F0AAF8CDE902470122009498
:10575000BFEE000A0023114605F5AA60019400F08F
:105760009DF805F1D000686000F5C070A86000F5F4
:10577000C070E86000F5C0702861343540F2FF1059
:10578000756000903C4B02220121284600F0DCF8B5
:105790003B4F0123CDE902470094BFEE000A0222ED
:1057A000194605F29C60019400F078F8CDE90247B3
:1057B00001230094BFEE000A0222194605F61C00E0
:1057C000019400F06BF805F29C60686000F5C07011
:1057D000A8603435B5600122274B11462846CDF824
:1057E000008000F0B1F827480094CDE90240BFEEF8
:1057F000000A002302220121019405F6681000F03E
:105800004DF805F6681028613435F5600222002352
:1058100011462846009400F097F81B4E1B481C4F79
:10582000009703969FED1B8ACDE90140B0EE480A30
:1058300000230122022105F6B42000F02FF81648BB
:105840000C2100970396CDE90110B0EE480A002321
:105850000122022105F6344000F020F805F6B420BC
:10586000686000F5C070A86004B0BDEC028BBDE8B4
:10587000F08100000C4B0020E0050020537D000863
:10588000A97E00089D7D00082985000804070020E6
:10589000C40600209A99993E440700202DE9F05F44
:1058A0001E462DED028BB0EE408ADDE90E59DDE992
:1058B0000CBA17468846040040D0FDF753F8C4F8E8
:1058C000240184F828812770667004F5B670B0EE64
:1058D000480AC4F86891FBF7F1FE0020A070201D73
:1058E00000F0F0FA04F1AC0000F0ECFA04F158001A
:1058F00000F0E8FA94F8280102281FD104F5967008
:1059000052465946064600F037FB4FF4FA713046CE
:1059100000F084FB9FED0B0A304600F055FB30464B
:1059200000F0A0FBC4F81C51002D07D0BDEC028B89
:105930002846BDE8F05F3C21FDF75ABDBDEC028B67
:10594000BDE8F09F0000000010B50400029815D0DB
:1059500022702175012909D1002B0FD0A3610146C6
:105960000823012204F11C00FBF7E8FC002001469B
:1059700004EB8002401C51600428F9DB10BD2DE9C6
:10598000F0411F46069E0C46050030D094EC070AF5
:10599000114694ED105AD4ED0F4A94ED0B4AD4ED14
:1059A0000A3A00F0B2FA04F1500394ED245AD4ED0F
:1059B000234A94ED1F4AD4ED1E3A394693EC070A68
:1059C00005F1A00000F0A1FA04F1A00194ED385A0D
:1059D000D4ED374A94ED334AD4ED323A05F1500014
:1059E00091EC070A3146BDE8F04100F08EBABDE8FF
:1059F000F081000070B504002DD094F82801022831
:105A000029D1D4F81C0101680968C1F3001584F894
:105A100020510168496A104A89B2A4F822114FF650
:105A2000FF7305B1591A0D46116000219D4200D146
:105A300011600068416292ED000A04F5BC7104F542
:105A4000B670B8EEC00AFBF703FE2046BDE8704012
:105A5000012100F0B3B870BDBC00002010B50400F7
:105A600010D094F8280100280CD0201D00F02AFA4C
:105A700004F1AC0000F026FA04F15800BDE8104033
:105A800000F020BA10BD00007CB5040063D0207D7A
:105A9000012851D16068FFF709FEBDEEC00A10EE83
:105AA000100A00128DF800006068FFF7FFFDBCEEE1
:105AB000C00A10EE100A8DF80100A068FFF7F6FD8D
:105AC000BDEEC00A10EE100A00128DF80200A068A8
:105AD000FFF7ECFDBCEEC00A10EE100A8DF80300D3
