:020000040800F2
:10000000E04C00205D020008EF3200083B2B0008A6
:10001000E5320008C1050008313B0008000000007F
:100020000000000000000000000000009D0100082A
:10003000350B000800000000F901000855340008E5
:1000400077020008770200087702000877020008AC
:10005000770200087702000877020008770200089C
:10006000770200087702000877020008550A0008A6
:10007000610A00087702000877020008770200088A
:10008000770200087702000877020008770200086C
:10009000C50500087702000877020008770200080B
:1000A000770200087702000877020008770200084C
:1000B000770200087702000877020008770200083C
:1000C000770200087702000877020008770200082C
:1000D000770200085D3A000877020008753A0008C8
:1000E000770200087702000877020008770200080C
:1000F00077020008770200087702000877020008FC
:1001000077020008770200087702000877020008EB
:1001100077020008F537000877020008313500083B
:100120006D0A0008790A0008850A000877020008AD
:1001300077020008000000000000000077020008BD
:10014000D10500087702000877020008770200084E
:100150007702000877020008770200088D3A00084D
:10016000770200087702000877020008770200088B
:10017000770200087702000800000000000000007D
:100180007702000877020008DFF80CD000F0ECF8E6
:10019000004800477F3B0008E04C00202C4B1968CA
:1001A0000868B0E8F04F80F30988BFF36F8F4FF015
:1001B000000080F3118870470000000008480068C4
:1001C000006880F308884FF0000080F3148862B65E
:1001D00061B6BFF34F8FBFF36F8F00DF00BF00BF6B
:1001E00008ED00E0DFF80C00016841F470010160E7
:1001F000704700BF88ED00E0EFF30980BFF36F8F19
:10020000134B1A681EF0100F08BF20ED108A20E96A
:10021000F04F106009B44FF0500080F31188BFF325
:100220004F8FBFF36F8F04F093F84FF0000080F30F
:10023000118809BC19680868B0E8F04F1EF0100F6B
:1002400008BFB0EC108A80F30988BFF36F8F704746
:100250003C000020EFF3058070470000064880470F
:1002600006480047FEE7FEE7FEE7FEE7FEE7FEE79B
:10027000FEE7FEE7FEE7FEE7153500088901000806
:100280002DE9F05F0546002092469B4688460646CB
:10029000814640241BE0284641464746224600F05E
:1002A00053F853465A46C01A914110D31146184686
:1002B000224600F03AF82D1A67EB01084F46224615
:1002C0000120002100F031F817EB00094E41201EFB
:1002D000A4F10104DFDC484631462A464346BDE826
:1002E000F09F40EA01039B0703D009E008C9121FF1
:1002F00008C0042AFAD203E011F8013B00F8013BE0
:10030000521EF9D27047D2B201E000F8012B491E0B
:10031000FBD270470022F6E710B513460A460446A2
:100320001946FFF7F0FF204610BD202A04DB203AD3
:1003300000FA02F1002070479140C2F1200320FA38
:1003400003F3194390407047202A04DB203A21FA36
:1003500002F00021704721FA02F3D040C2F12002DE
:100360009140084319467047064C074D06E0E06887
:1003700040F0010394E8070098471034AC42F6D3EC
:10038000FFF706FF504A0008704A000810B5014602
:10039000806B026C12F0500F05D0026CD20626D58D
:1003A00000F0BCFC10BD016C41F4007101640168F7
:1003B0008A6812F0405F17D1027EAAB9CA6A12F4A5
:1003C000700F02D08A6852050ED44A6822F02002CB
:1003D0004A60016C21F480710164016CC90403D48A
:1003E000016C41F00101016400F096FC10BD806BCE
:1003F000C26CBDE810400846104710B5806B402124
:100400000164416C41F00401416400F087FC10BDBF
:1004100010B5806B00F081FC10BD00000F4800217A
:100420000E4AC1600161416108469FED0D0ADFED92
:100430000D0A02F10C0100BF52F8203001EE103A13
:1004400001EB8003401CB8EE411A032821EE001A8C
:1004500021EE201A83ED001AEEDD7047CC46002015
:10046000000080393333534003220249024800F030
:10047000D1BC0000CC4600202C030020464910B51A
:100480004A6822F440324A604A6843681A434A6024
:1004900001684A6822F480724A6001684A68036908
:1004A00042EA03224A6001684A6822F040724A60C8
:1004B00001684A6883681A434A6001688A6822F4BE
:1004C00000628A6001688A68C3681A438A60816A28
:1004D0006FF07062D14201688A6822F070628A60AF
:1004E00001688A680CD0836A1A438A6001688A6846
:1004F00022F040528A6001688A68C36A1A4301E0A8
:1005000022F040528A6001688A6822F002028A6002
:1005100001688A68037E42EA43028A6090F82010EC
:10052000002901684A680FD042F400624A600168FD
:100530004A6822F460424A6001684A68174C436A7C
:1005400004EB43331A4301E022F400624A6001687D
:10055000CA6A22F47002CA620168CA6A838B104CAC
:1005600004EB03531A43CA6201688A6822F40072DA
:100570008A6001688A6890F8303042EA43228A60D3
:1005800001688A6822F480628A6001688A6840692A
:1005900042EA8020886010BD0023014000E0FFFF98
:1005A0000000F0FF03220249024800F033BC0000C3
:1005B000CC4600202C030020042003F011FBFBE7B5
:1005C000FEE70000014800F032BD0000D403002027
:1005D000014800F02CBD0000FC03002070B50E4661
:1005E0000546094C01F082F960603146284600F06A
:1005F0009BF830B168782072A878A072E8786072B1
:1006000070BD0320207070BDD048002000487047A6
:10061000D048002010B500F035F801F067F907491F
:10062000074C4860206803F040FA04492068C8225B
:10063000BDE81040C83903F042BA0000D04800209D
:10064000CC00002010B50446406B0068016821F022
:1006500001010160606B006803F024FAC0F1C8007A
:1006600081B20748FFF7BAFF616BC820096848608C
:10067000606B0068016841F00101016010BD00007D
:100680000848002003480021417281720173C17241
:1006900001727047D04800202DE9F04100F030F899
:1006A000154E01F023F9706004203070A6F5C8756E
:1006B0005A202870307B6870F07A00210924A870D5
:1006C0000846621E03E02B5C401C194489B290422C
:1006D000F9DB2819094F00F8011C386801F0E8FF20
:1006E000C00706D122462946386803F01FFA0120C8
:1006F0003070BDE8F0810000D0480020CC00002020
:1007000070B5084C02F020FE054600F0BDF895EDEE
:10071000000ABCEEC00A10EE101A21738079E07254
:1007200070BD0000D048002030B502785A2A11D19F
:100730004218002312F8014C1A46491E03E0855C5A
:10074000521C2B449BB28A42F9DBD8B2A04201D1A1
:10075000012030BD002030BD70B5264D2DED028B3F
:1007600002F0F2FD02F0ECFD0446FFF74FFF224AD3
:10077000417A224E12789FED228A91420AD1306846
:1007800000F015FAB0EE480ABDEC028BBDE87040EF
:1007900000F0EAB81B4A1278914227D1007ADFEDC7
:1007A0001A0A00EE100A1949B8EE400A20EE201A83
:1007B00085ED001AD4ED000A10EE900A884202DCA2
:1007C000B1EE000A09E010EE900A1149884202DBFE
:1007D000B0EE480A01E081EE200A00F0C5F830686A
:1007E000BDEC028BBDE8704000F0E6B9BDEC028BB9
:1007F00070BD0000D0000020EF490008B8000020C4
:1008000000000000EE4900083333333F0000204170
:100810009A99C9410B490A4A0228096804D001285B
:100820000CD1084600F0C3B990790228F9D000280D
:10083000F7D0012802D1084600F0BEB97047000089
:10084000D0000020BC00002010B5FFF7DFFE0446FA
:1008500002F09EFD00F04AF8FFF77EFF0849A07AFB
:100860000978884201D1022004E0064909788842CB
:1008700004D10120BDE81040FFF7CCBF10BD00003F
:10088000ED490008EC49000800487047D0000020FE
:1008900010B5104C9FED100A00F066F80F48006884
:1008A00000F085F90E48006800F081F90D480068F5
:1008B00000F07DF900209FED0C0AA07184ED000A84
:1008C000012161712071BDE810404FF4FA6000F021
:1008D00019BF0000D000002000000000BC00002074
:1008E000B8000020B40000200000204270B502F0E3
:1008F00027FD0546164CFFF789FE164995ED000ABF
:10090000D1ED000AB4EEE00AF1EE10FA08D2B5EE2D
:10091000C00AF1EE10FA03DB0021A1710E4907E0D5
:10092000B5EEC00AF1EE10FA05D80221A1710B490B
:100930000978C17270BD0A49D1ED000AB4EEE00A2F
:10094000F1EE10FAF6DB0121A1710649F0E7000093
:10095000D0000020E4490008F0490008F2490008EE
:10096000E8490008F149000810EE100A07498842DA
:1009700002DC9FED070A06E010EE100A05498842E6
:1009800001DBB1EE040A00F04FB80000CDCCCC3D45
:10099000000000000000A040012003F021F9FBE767
:1009A00010491148124A91ED030AD0ED000A0F4890
:1009B00020EE200AD0ED000A20EE200A10EE100AE8
:1009C000904201DB9FED0B0ADFED0B0A9FED0B1A46
:1009D00060EE200A80EE810ABCEEC00A81ED040AB6
:1009E00070470000E4460020E0490008DC490008A8
:1009F000CDCC8C3FCDCC8C3F000080453333534071
:100A0000064A0021064811709160116100689FED4F
:100A1000050A506082ED030A00F0C3BCE4460020E2
:100A2000C00000200000000010B5094C84ED030A4E
:100A3000FFF7B6FFD4E901010022236900F06EFC44
:100A4000D4E9010100F077FC0120207010BD000006
:100A5000E4460020014800F0C1BC00003807002037
:100A6000014800F0BBBC0000F8070020014800F07E
:100A7000B5BC000074030020014800F0AFBC0000CA
:100A800058080020014800F0A9BC00009807002089
:100A900001681823CAB2103AB2FBF3F2054B6FF3A8
:100AA0000901032A9B5CC36500D9091D81650846BD
:100AB00070470000B049000810B5014600208B695E
:100AC0008A6A4FF0C07453B1B3F5005F15D072B1AC
:100AD000012A0CD0022A0AD0032A09D104E01AB153
:100AE000012A06D0022A03D1C96AC90100D5012012
:100AF00010BDC96AA142FAD010BD002AF7D0012A60
:100B0000F2D0022AF3D0032AF3D010BD30B5046826
:100B1000256825F480252560046863608368402B80
:100B2000036803D099600068C26030BD9A600068B5
:100B3000C16030BD704772B6FEE70000D0ED010A1B
:100B4000F5EEC00AF1EE10FA29DD10EE902AB2F1AE
:100B50007E5F24DCB7EE001AD1ED011A31EE601A87
:100B600021EE211A00EE801A81ED001A81ED011AA2
:100B700090ED020AB5EEC00AF1EE10FA0DDDD0EDEF
:100B8000010A9FED071A20EE010A9FED061A20EEDA
:100B9000010A80EE801A80ED001A91ED000A70477C
:100BA000DB0FC9406F12833A80ED010A70478188DC
:100BB0000068002200F094BE81880068012200F0E5
:100BC0008FBE012003F00CF8FBE7000078B500248D
:100BD000009490F83C20012A19D0012280F83C2092
:100BE0000A6807230568092A13D9EE680A3A02EB56
:100BF000420293409E43EE600B788A680A3B03EB07
:100C000043039A400368DD682A43DA6010E002205B
:100C100078BD2E6902EB420293409E432E610B7811
:100C20008A6803EB43039A4003681D692A431A61EB
:100C30004A681F23072A13D205686E6B521E02EB07
:100C4000820293409E436E630B790A885B1E92B2C8
:100C500003EB83039A4003685D6B2A435A6327E0E2
:100C600005680D2A12D22E6BD21F02EB820293402E
:100C70009E432E630B790A88DB1F92B203EB83033A
:100C80009A4003681D6B2A431A6311E0EE6A0D3A1D
:100C900002EB820293409E43EE620B790A880D3B81
:100CA00092B203EB83039A400368DD6A2A43DA6257
:100CB000164B0568144A9D4206D10D68122D03D1CA
:100CC000556845F48005556005689D4218D10B684C
:100CD000102B01D0112B13D1536843F40003536040
:100CE000096810290CD10A490A4A0968B1FBF2F1D6
:100CF00001EB8101490000E0491E00910029FBD170
:100D000080F83C40002078BD0023014000200140D5
:100D10003800002040420F0070477047704770B5A0
:100D200004004FF0000503D0206C002610B107E04E
:100D3000012070BD204600F01DF8666484F83C6018
:100D4000206CC00610D4206C20F4885040F00200C3
:100D500020642046FFF792FB6664206C20F00200BE
:100D600040F00100206400E0012584F83C60284642
:100D700070BD0000F0B587B0064614216846FFF745
:100D8000C9FA1F493068884238D11E4800250168D9
:100D900041F480710160006800F48070059019488A
:100DA0001438016841F0010101600068032700F078
:100DB000010005902C20CDE90007694602951248F4
:100DC00000F0B2FC124C1148C4E900050015A56002
:100DD000C4E90350800060618000A0618011C4E913
:100DE000070504206062C4E90A752046256300F007
:100DF000C5FB08B1FFF79FFEB463A66307B0F0BD63
:100E000000200140443802400000024010640240CB
:100E100074030020F8B50E4600210446009190F8B6
:100E20003C00012807D0012084F83C00206883683A
:100E3000DB0702D011E00220F8BD836843F0010314
:100E400083603748374B0068B0FBF3F000EB40009D
:100E500000E0401E00900028FBD120688368DB077B
:100E60005CD0236C40F20165AB4343F48073236490
:100E70004068400505D5206C20F4005040F48050B7
:100E80002064206CC00404D5606C20F0060060640F
:100E900000E0616484F83C10A16B2448224DC863D3
:100EA000A16B23480864A16B2248C86421686FF0D5
:100EB000220008602068416841F08061416020683C
:100EC000816841F4807181602168134632464C315B
:100ED000A06B00F0E0FB68681749C006206806D0E8
:100EE00088421BD1816811F0405F13D016E0884220
:100EF000F8D0124A904203D1D1F80423D206F1D09F
:100F00000F4A90420AD1D1F8041301F01F011029B1
:100F1000E8D303E0816841F0804181600020F8BDA2
:100F20003800002040420F00002301408D030008DC
:100F300011040008FB0300080020014000210140CB
:100F400000220140704730B590F82040012C05D0B8
:100F5000022C03D0416A41F480215DE0046800293D
:100F600055D02469A40754D04FF4D874056804EB15
:100F700001142D5915F00405956005682D594ED0C2
:100F8000ED08556005682C5904F00204D4604FF454
:100F9000DA74056804EB01142D5905F00F0515618D
:100FA00005682D59C5F30725956105682C59240C52
:100FB00054614FF4DC72046802EB0112A4581C70F7
:100FC0000468A458240A5C700468A458240C9C701B
:100FD0000468A258120EDA704FF4DE72046802EB55
:100FE0000112A4581C710468A458240A5C71046896
:100FF000A458240C9C710468A258120EDA7100687F
:1010000081B1016941F020010161002030BDE46837
:10101000A8E7416A41F400114162012030BD6D0D25
:101020001560AFE7C16841F02001C160EDE72DE92F
:10103000F05F0546006800244669D0F80490876890
:10104000D0F80CB0D0F810A0D0F81880F10748D034
:10105000F90714D001218160B80703D5284600F0B4
:10106000F1F80CE0780702D54FF4006407E0380788
:1010700002D54FF4805402E0284600F0E2F8F8056B
:1010800016D529684FF480708860B80503D52846C6
:1010900000F0DAF80CE0780502D544F4005407E0DB
:1010A000380502D544F4804402E0284600F0CBF82D
:1010B000F80316D529684FF480308860B80303D54B
:1010C000284600F0C3F80CE0780302D544F400444D
:1010D00007E0380302D544F4803402E0284600F0EB
:1010E000B4F8300707D55FEACB6004D52968102033
:1010F00044F40074C86070074FF0080707D55FEA32
:101100000B7004D52868C760284600F08EF8B00739
:1011100006D52868C068800702D0284600F086F807
:10112000700607D55FEACA6004D52968102044F428
:1011300080640861B00607D55FEA0A7004D52868A4
:101140000761284600F07AF8F00606D5286800699D
:10115000800702D0284600F072F8B00308D55FEA95
:10116000C96005D5296810204860284600F068F855
:10117000F00307D55FEA097004D528684760284660
:1011800000F065F8300446D55FEA497040D5F005B7
:1011900004D55FEAC87001D044F00104B00504D55D
:1011A0005FEA887001D544F00204700504D55FEA57
:1011B000487001D544F00404300529D518F0700FAB
:1011C00026D008F07000402815D006DC102809D081
:1011D00020280AD0302816D10AE050280ED06028E6
:1011E00011D10EE044F008040DE044F010040AE0D0
:1011F00044F0200407E044F0400404E044F080049C
:1012000001E044F480742868816921F070018161F3
:10121000296804204860002C05D0686A2043686271
:101220002846FFF78FFEBDE8F09F7047024B002174
:10123000A3F11C02FFF787BE0446002070477047E9
:1012400070477047704770477047704770477047E6
:1012500070B54379012B1AD0012646710223037120
:1012600005682C6840F6FE7393409C43D1E9003139
:101270000B43934023432B6001680B68C0249440C8
:10128000A3430B60067100214171084670BD022026
:1012900070BD70B5040003D02079002510B105E0C1
:1012A000012070BD6571204600F008F80220207111
:1012B000256101202071002070BD000010B586B0AE
:1012C000044614216846FFF725F811492068884232
:1012D0001CD110480021026842F0005202600068F0
:1012E00000F0005005900B481038026842F00102EF
:1012F0000260006800F001000590102000900320BB
:10130000CDE901016946044800F00EFA06B010BDAF
:1013100000740040403802400000024018B50468E4
:1013200000940068104421B1143000900360002044
:1013300018BD0830F9E730B54279012A16D00122EC
:1013400042710223037103681D6802FA01F4254308
:101350001D60002901680B680AD00C6803F4802323
:1013600004F46014B3F5802F0FD015E0022030BDD7
:101370000C6803F0040304F03804042B0CD1382C5F
:101380000AD14B6843F0010305E0B4F5601F03D1B7
:101390004B6843F002034B60027100214171084623
:1013A00030BD10B502681468012303FA01F18C43C3
:1013B00014600371002010BD90F83510022903D08D
:1013C0008021416501207047052180F835100068B3
:1013D000016821F001010160002070472DE9F84308
:1013E00004464FF00009CDF8009063484FF41651C1
:1013F000A56D0068B0FBF1F72E6894F85C1008202A
:1014000000FA01F131420FD021680A6852070BD56A
:101410000A6822F004020A6094F85C108840A86010
:10142000606D40F00100606594F85C104FF00108B9
:1014300008FA01F0304208D021684969090604D54C
:10144000A860606D40F00200606594F85C100420B4
:101450008840304208D021680968890704D5A8600F
:10146000606D40F00400606594F85C1010208840C6
:10147000304218D021680968090714D5A86020688F
:101480000168490304D50068000308D5A16C07E092
:101490000168C90503D4016821F008010160216CCD
:1014A00009B12046884794F85C10202088403042DB
:1014B00031D021680968C9062DD5A86094F8350097
:1014C00005282068016806D0490347D50068000355
:1014D0001DD4616C1CE021F0160101602068416997
:1014E00021F080014161206C08B9A06C20B1206816
:1014F000016821F00801016094F85C103F208840E9
:10150000A86084F8349084F83580216D1FE0E16B89
:1015100009B120468847606D00282BD0606DC00758
:1015200014D0052084F835002068016821F00101FD
:1015300001600098401C0090B84203D82068006801
:10154000C007F6D184F8349084F83580E16C002926
:1015500010D001B02046BDE8F04308470168C90536
:10156000D5D4016821F01001016084F8349084F82A
:101570003580CCE7BDE8F883380000202DE9F04144
:10158000044600F0B3F906465CB1002584F83450F7
:10159000022084F835002068016821F00101016013
:1015A0000DE00120BDE8F08100F0A0F9801B0528C6
:1015B00005D920206065032084F83500F2E7206813
:1015C0000068C007F0D12268116820480140D4E9C2
:1015D00001031843D4E903363343184363691843BE
:1015E000A3691843E3691843236A18430843616AEF
:1015F000042903D1D4E90B13194308431060206870
:101600004069666A20F0070130460E43012704282E
:101610000CD1A06A0643E06A40B12046FFF74CFABD
:1016200020B14020606584F83570BAE720684661D3
:101630002046FFF72DFA94F85C203F21914081600D
:10164000656584F835700020ACE700003F8010F03D
:1016500070B5044690F83400002501280CD0012014
:1016600084F8340094F835600020012E06D084F808
:1016700034000225284670BD022070BD022684F881
:10168000356060652046FFF741FA2068016841F047
:1016900001010160EEE72DE9F0410446866D90F806
:1016A0003400002501280DD0012084F8340094F87E
:1016B00035700020012F07D084F834000225284619
:1016C000BDE8F0810220FBE7022784F835706065F1
:1016D0002046FFF71BFA94F85C103F208840B0606A
:1016E0002068016841F016010160206C20B120687B
:1016F000016841F0080101602068016841F00101C2
:101700000160DCE770B5044600F0F0F80546601CA7
:1017100002D004480078044400F0E8F8401BA042DE
:10172000FAD370BD2C0000202DE9F84F00224FF0B5
:10173000010803254FF00F0E0B6808FA02F423404E
:10174000A3426ED14E68012E05D0022E03D0112E79
:1017500001D0122E12D186684FEA420C05FA0CF71E
:10176000BE43CF6807FA0CF7374387604668A64345
:101770000C79C4F30014944034434460C6685700A5
:1017800005FA07FC8C6826EA0C06BC403443C460AA
:101790004C68022C01D0122C13D1D40800EB840425
:1017A000A346D4F8209054074FEAD46A0EFA0AF6FA
:1017B00029EA06090E6906FA0AF646EA0906CBF88E
:1017C000206006680C7926EA0C0604F00304BC408D
:1017D000344304604C68E40065D5364C266846F412
:1017E00080462660246822F0030604F480440094B6
:1017F000314C3444A446D4F808489607370F0EFA03
:1018000007F6B4432D4EB04201D1002624E02C4E01
:10181000B04201D101261FE02A4EB04202D1022679
:101820001AE040E0284EB04201D1032614E0274ED2
:10183000B04201D104260FE0254EB04201D1052669
:101840000AE0244EB04201D1062605E0224EB04205
:1018500001D1072600E00826BE402643CCF80868E0
:101860001E4E34684F689C43FF0300D51C43346010
:101870001A4C241D26684F689E43BF0300D51E43A3
:101880002660164E083634684F689C43FF0200D528
:101890001C433460114E0C3634684F689C43BF02C1
:1018A00000D51C433460521C102AFFF445AFBDE83C
:1018B000F88F000044380240003001400000024030
:1018C0000004024000080240000C024000100240E8
:1018D0000014024000180240001C0240003C01407D
:1018E0000AB1816170470904FBE700000148806884
:1018F000704700002C0000200248816802781144E3
:10190000816070472C0000200B4810B5016841F43D
:1019100000710160016841F480610160016841F477
:1019200080710160032000F08DF8002000F006F8BF
:1019300000F03EF8002010BD003C024010B501460A
:1019400088B00022372000F05DF8372000F04CF816
:1019500013480024016841F020010160006805A9D6
:1019600000F020000690684600F018F900F036F903
:101970000C494000B0FBF1F10C480B4A491E0260D3
:1019800040F2E732C0E90324C0E9011400F070FB23
:1019900010B1012008B010BD044800F0D5FBF9E7F4
:1019A0004038024040420F0000140040B8080020B8
:1019B0000C4882B0016841F480410160006800F485
:1019C000804000900748001F016841F0805101608D
:1019D0000068002200F0805000900F21901E02B09D
:1019E00000F010B844380240002809DB00F01F0264
:1019F000012191404009800000F1E020C0F8001171
:101A000070470000F0B40E4B1B680C46C3F3022372
:101A1000C3F10705042D00D90425191D072901D29A
:101A2000002300E0DB1E012606FA05F1491E2140D5
:101A300099409E40761E16403143F0BC02F080B8BB
:101A40000CED00E0064900F0070208684FF6FF03BE
:101A5000184040EA0220034A104308607047000023
:101A60000CED00E00000FA052DE9F0470E460500F8
:101A700065D0DFF81481D8F80000F7B200F00F004D
:101A8000B04207D288F80070D8F8000000F00F00CC
:101A9000B04254D128683D4C810712D5400703D588
:101AA000206840F4E05020602878000703D52068C3
:101AB00040F4604020602068A96820F0F0000843EE
:101AC00020602878C0072DD030496868083901287F
:101AD00012D0022813D0032811D0096889070029E1
:101AE0002DDA216821F0030101432160FFF7FEFE9A
:101AF000814641F2883A0EE009688903EFE70968F8
:101B00008901ECE7FFF7F2FEA0EB0901514502D98C
:101B10000320BDE8F0872068696800F00C00B0EB96
:101B2000810FEFD1D8F80010404601F00F01B1420B
:101B300007D90770006800F00F00B04201D0012003
:101B4000E7E72878400705D52068E96820F4E050E9
:101B5000084320602878000706D52068296920F40A
:101B6000604040EAC100206000F058F82168084A4F
:101B7000C1F30311515CC84006490860064800687B
:101B8000FFF7DCFE0020C4E7003C024008380240BA
:101B9000B849000838000020300000200F22026001
:101BA0000C4A136803F003034360136803F0F00367
:101BB0008360136803F4E053C36012684FF4E0538A
:101BC00003EAD20202610448006800F00F000860D6
:101BD0007047000008380240003C024004480549B4
:101BE00000680968044AC1F38221515CC84070470B
:101BF0003800002008380240C84900080448054958
:101C000000680968044AC1F34231515CC84070471A
:101C10003800002008380240C8490008154810B5AF
:101C2000006810F00C02144813D01449042A0FD095
:101C3000082A0ED10F4C241F2268236802F03F02AD
:101C40005B0207D52068C0F38810A0FB010106E005
:101C5000084610BD2168C1F38811A1FB00010023D3
:101C6000FEF70EFB2168C1F30141491C4900B0FB9E
:101C7000F1F010BD083802400024F400001BB7004A
:101C80002DE9F84F04006ED02078DFF83C93C007B0
:101C9000A9F104054AD009F104000168C1F38101EA
:101CA000012908D00068C0F3810002280AD1D9F8C0
:101CB0000000400206D52868800337D560680028F8
:101CC000E1D033E06068B0F5803F10D0B0F5A02FD0
:101CD000286810D020F480302860286820F4802004
:101CE00028606068A8B1FFF701FE06460DE028688D
:101CF00040F48030F4E740F480202860F7E700BF2C
:101D0000FFF7F4FD801B642873D828688003F7D59B
:101D10000CE0FFF7EBFD064605E000BFFFF7E6FD30
:101D2000801B6428F0D828688003F7D42078DFF877
:101D30009C8280074FF0000A3ED5A348001D016831
:101D400011F00C0F08D00068C0F3810002280BD1FD
:101D5000D9F80000400207D42868800716D5E0684B
:101D6000012800D112E02BE1E068B8B10120C8F8E9
:101D70000000FFF7BBFD064605E000BFFFF7B6FD1C
:101D8000801B0228C0D828688007F7D528682169F9
:101D900020F0F80040EAC10028600DE0C8F800A07B
:101DA000FFF7A4FD064604E0FFF7A0FD801B022814
:101DB0001FD828688007F7D42078000722D5824EE4
:101DC00083486169703671B101210160FFF78EFDB2
:101DD000074604E0FFF78AFDC01B022809D83068D7
:101DE0008007F7D50EE0C0F800A0FFF77FFD07469B
:101DF00005E082E0FFF77AFDC01B02287DD830683D
:101E00008007F7D42078400768D5DFF8BCB10027F9
:101E10000BF13C0BDBF80000C0000BD4DBF800102A
:101E200041F08051CBF80010DBF80000012700F0F2
:101E300080500090674E3068C00510D4306840F480
:101E400080703060FFF752FD009005E0FFF74EFD17
:101E50000099401A022850D83068C005F6D55A4E6D
:101E6000A0686C3601280FD00528306810D020F00B
:101E700001003060306820F004003060A068B8B124
:101E8000FFF734FD00900FE0306840F00100F4E708
:101E900040F004003060F7E7FFF728FD0099411A91
:101EA00041F28830814266D830688007F4D50EE070
:101EB000FFF71CFD009007E0FFF718FD0099411A9D
:101EC00041F28830814256D830688007F4D42FB16F
:101ED000DBF8001021F08051CBF80010A069C8B3E6
:101EE0003949091D0968C1F3810102294AD0022834
:101EF000504607D0C8F8600000E03CE0FFF7F6FC71
:101F000004463BE04746C8F86000FFF7EFFC064692
:101F100005E000BFFFF7EAFC801B02282BD82868E9
:101F20008001F7D4D4E907010843A16A2A4A490885
:101F300002EB0141626A41EA8211084394F82C10D5
:101F400040EA0161C9F8001001203866FFF7CEFCB5
:101F5000044606E036E000BFFFF7C8FC001B02287D
:101F600009D828688001F7D52CE000BFFFF7BEFC38
:101F7000001B022802D90320BDE8F88F28688001E1
:101F8000F4D41FE00128F7D0D9F80000E26900F48A
:101F90008001914214D1226A00F03F0191420FD199
:101FA00047F6C071626A0140914209D1A26A00F409
:101FB0004031914204D1E16A00F07060884201D062
:101FC0000120D9E70020D7E704380240000047424B
:101FD000800E4742007000400000FFFF70477047CE
:101FE00070B590F83C20012A32D0012480F83C40A2
:101FF000022280F83D2003685A689D6822F070062E
:102000000A6832435A60134B02689A4214D0B2F104
:10201000804F11D0104B9A420ED0104B9A420BD0E9
:102020000F4B9A4208D00F4B9A4205D00E4B9A4262
:1020300002D00E4B9A4204D1496825F0800319431F
:10204000916080F83D40002180F83C10084670BD4A
:10205000022070BD00000140000400400008004064
:10206000000C004000040140004001400018004006
:1020700010B5040003D094F83D0010B107E0012032
:1020800010BD002084F83C00204600F00DF802202E
:1020900084F83D00211D206801F050FA012084F8E9
:1020A0003D00002010BD000008B52149026821480C
:1020B0008A4205D1016841F001010160006812E027
:1020C0001C49091FB2F1804F08D01B4B9A420ED118
:1020D000086840F002000860086810E0086840F0F6
:1020E00001000860086800F00100009008BD134B73
:1020F0009A4207D1016841F002010160006800F0D6
:102100000200F2E70E4B9A4207D1016841F4803198
:102110000160006800F48030E7E70A488242E5D1B8
:10212000086840F040000860086800F04000DCE704
:102130000000014044380240000400400004014017
:1021400000400140001800400168CA6842F00102E6
:10215000CA600068816801F00701062903D00168A0
:1021600041F0010101600020704770B5044690F80D
:102170003C00012817D0012584F83C50022084F847
:102180003D002068826822F0770222F47F4282605C
:102190000868502830D00DDC20284DD005DC98B3DD
:1021A00010283BD148E0022070BD302844D04028A0
:1021B00034D139E0602828D0702806D0B0F5805F8F
:1021C0002CD0B0F5005F29D10AE0CB68D1E901211C
:1021D000206801F017FA2068816841F0770109E072
:1021E000CB68D1E90121206801F00CFA20688168F0
:1021F00041F48041816011E0CA684968206801F0BB
:10220000D5FA5021206807E016E0CA6849682068BE
:1022100001F0DDFA6021206801F0FEF984F83D50FC
:10222000002084F83C0070BDCA684968206801F04D
:10223000BDFA40212068EFE7226801461046EBE72F
:102240002DE9F0410D46040003D094F83D0018B18B
:1022500008E00120BDE8F081002084F83C00204621
:1022600000F03AF8022084F83D002068816844F2CA
:10227000070291438160211D206801F05FF9226807
:1022800090689169166A2B68AF69034340F2033086
:10229000814341EA0721A868EF6908434FF6FC41F2
:1022A0008843E96840EA0720014328692F6A000152
:1022B00040EA0730084369686D6926F0AA0646EAD5
:1022C000051529439360226890612068016201200E
:1022D00084F83D000020BDE730B587B004461421E6
:1022E0006846FEF717F8204824681E4D00221E4954
:1022F00010380223AC4216D10C6844F004040C6080
:10230000096801F004010591016841F002010160D2
:102310000068694600F002000590C0200090CDE9F9
:102320000132124818E0124DAC4219D10C6844F049
:1023300008040C60096801F008010591016841F08A
:10234000010101600068694600F00100059003206A
:102350000090CDE901320748CDE90323FFF7E4F906
:1023600007B030BD00080040403802400004024081
:10237000000C004000000240704770B50446006841
:1023800001694FF00005C943890715D4C168C943E5
:10239000890711D4E91E0161012020772068806936
:1023A0008007204602D0FFF7E7FF04E000F0EEF8D8
:1023B000204600F070F9257720680169C943490774
:1023C00017D4C168C943490713D46FF004010161F0
:1023D000022020772068806910F4407F204602D0D8
:1023E000FFF7CAFF04E000F0D1F8204600F053F9EF
:1023F000257720680169C943090716D4C168C94314
:10240000090712D46FF008010161042020772068C9
:10241000C0698007204602D0FFF7AEFF04E000F05D
:10242000B5F8204600F037F9257720680169C943DF
:10243000C90617D4C168C943C90613D46FF0100187
:102440000161082020772068C06910F4407F204691
:1024500002D0FFF791FF04E000F098F8204600F06A
:102460001AF9257720680169C943C90708D1C168ED
:10247000C943C90704D1891E0161204600F00CF947
:1024800020680169C943090609D4C168C94309061E
:1024900005D46FF0800101612046FFF79FFD2068A1
:1024A0000169C943490609D4C168C943490605D42D
:1024B0006FF040010161204600F0F8F820680169E2
:1024C000C94389060BD4C168C943890607D46FF094
:1024D000200101612046BDE87040FFF780BD70BD5E
:1024E00030B587B0044614216846FDF713FF216814
:1024F000002421480225B1F1804F29D01F4A914282
:1025000024D1016841F004010160016801F0040177
:102510000591016841F0020101600068694600F020
:102520000200059050150090CDE901541448CDE902
:102530000345FFF7F9F810200090CDE90154114848
:102540006946CDE9034500BFFFF7EEF807B030BD9F
:10255000016841F0010101600068694600F0010076
:1025600005904FF400400090CDE901540120CDE9E1
:1025700003400548E8E7000030380240000400400E
:10258000000802400004024000000240704770B59D
:10259000044690F83C000D4601280DD0012684F831
:1025A0003C60022084F83D0042B1042A18D0082A79
:1025B0002AD00C2A4DD139E0022070BD206801F0EC
:1025C00033F82068816941F00801816120688169E0
:1025D00021F004018161206881692A69114311E0B9
:1025E000206801F051F82068816941F4006181613F
:1025F0002068816921F480618161206881692A698C
:1026000041EA0221816124E0206801F073F820682A
:10261000C16941F00801C1612068C16921F004016C
:10262000C1612068C1692A69114311E0206801F085
:1026300095F82068C16941F40061C1612068C169F1
:1026400021F48061C1612068C1692A6941EA0221DF
:10265000C16184F83D60002084F83C0070BD10B575
:10266000040003D094F83D0010B107E0012010BD34
:10267000002084F83C00204600F00CF8022084F88A
:102680003D00211D206800F059FF012084F83D0025
:10269000002010BD7047704700680349884201D18F
:1026A000FFF72AB9704700000014004070477047D8
:1026B00010F8391F407808437047000070B5026871
:1026C00004461068D168536910F00F0F53D003F01F
:1026D000010501F490762E435FD0C20705D0CA05EC
:1026E00003D5E26B42F00102E263420705D5DA0747
:1026F00003D0E26B42F00202E263820705D5DA07FB
:1027000003D0E26B42F00402E263020707D501F056
:1027100020022A4303D0E26B42F00802E263E26B3C
:10272000002A34D0800604D5880602D5204601F060
:1027300083F820684069E16BC0F3801001F0080164
:102740000143204624D001F069F820684169490618
:102750001AD5416921F040014161606BA0B11B496C
:102760000165606BFEF728FE002810D0606B016DDC
:10277000BDE87040084783060FD58B060DD520466F
:10278000BDE8704001F058B82046FFF790FF70BDDB
:10279000FFF78DFF0020E06370BD030606D50B0632
:1027A00004D52046BDE8704001F026B94006F3D5B7
:1027B0004806F1D5D168204621F04001D1602021A2
:1027C00084F8391000F0B8F970BD00000D38000829
:1027D00070B5040004D094F83900002510B106E06B
:1027E000012070BD84F83850204600F023F82420E2
:1027F00084F839002068C16821F40051C160204686
:1028000001F066F82068016921F4904101612068B7
:10281000416921F02A0141612068C16841F40051F9
:10282000C160E563202084F8390084F83A00002074
:1028300070BD00002DE9F04F87B0054614216846B1
:10284000FDF768FDA0489F4B1038D5F800C0002464
:10285000DFF874A202210322061587154FF0080E37
:102860004FF000699C4557D1DAF800C04CF4801C49
:10287000CAF800C0DAF8003003F480130593036847
:1028800043F004030360036803F004030593036843
:1028900043F00803036000688B4600F008000590D1
:1028A000C802CDE900010120CDE902029246F046BE
:1028B0006946CDF810E08548FEF736FF0420CDE9E3
:1028C000000B0120CDE9020A6946CDF8108080484E
:1028D000FEF72AFFDFF800827E494046C8F8001064
:1028E000C0E90194C0E90346C8F81440C0E90647AE
:1028F000C8F82040C8F82440FEF740FE08B1FEF7B3
:102900001AF9C5F83480002205213520C8F838505E
:10291000FFF778F8352046E06B4BDFF8C0811B1DD0
:102920004FF0070BC44543D1D3F800C04CF0100C56
:10293000C3F800C01B6803F010030593036843F05D
:1029400001030360006800F0010005904FF4C060CF
:102950008DE81300CDE9032B69466148FEF7E4FEDC
:10296000DFF874815F4908F160084046C8F800103C
:10297000C0E90194C0E90346C8F81440C0E906471D
:10298000C8F82040C8F82440FEF7F8FD08B1FEF76B
:10299000D2F8C5F83480002205212520C8F8385027
:1029A000FFF730F82520FFF71FF807B0BDE8F08FDC
:1029B000DFF83481C44541D1DAF800C04CF4802CF2
:1029C000CAF800C0DAF8003003F4802305930368E6
:1029D00043F002030360006800F0020005904FF42A
:1029E00040608DE81300CDE9032B69463F48FEF7B0
:1029F0009BFEDFF8E480374908F1C00818314046F3
:102A0000C8F80010C0E90194C0E90346C8F81440B2
:102A1000C0E90647C8F82040C8F82440FEF7AEFDDC
:102A200008B1FEF788F8C5F8348000220521272078
:102A3000C8F83850FEF7E6FF2720B4E7DFF8B0808B
:102A4000C445B2D1D3F800C04CF0200CC3F800C08C
:102A50001B6803F020030593036843F0040303603D
:102A6000006800F004000590C0208DE81300CDE957
:102A7000032E69461548FEF757FE1A49DFF87480A1
:102A800018394046C8F800108905C0E90114C0E9AA
:102A90000346C8F81440C0E90647C8F82040C8F803
:102AA0002440FEF76BFD08B1FEF745F8C5F8348009
:102AB000002205214720C8F83850FEF7A3FF472021
:102AC00071E700000050004040380240000802401A
:102AD000000C024010600240380700200010014046
:102AE00000000240406402400048004000040240F0
:102AF0000014014058080020704790F83930202B0E
:102B000018D1A9B1A2B190F83830012B12D00162CE
:102B10008284C2840021C163212280F8392080F898
:102B200038100068C16841F08001C1600020704722
:102B300001207047022070477047FEE710B500F093
:102B400007FCFDF75DFFFDF765FDBDE81040FDF7F3
:102B50009FBE00007FB500211F48009101910291A6
:102B60001C4A0391026001244FF480320461C0E9E1
:102B70000121047680F82010184AC0E90A210325B3
:102B8000C561C16080F830404161FEF7C8F808B106
:102B9000FDF7D1FF0226CDE9006469460E48029494
:102BA000FEF714F808B1FDF7C6FFCDE900566946F7
:102BB0000948FEF70BF808B1FDF7BDFF0520CDE988
:102BC000000569460448FEF701F8002801D0FDF72A
:102BD000B2FF7FBD002001402C0300200100000F48
:102BE0001CB500240C4900940A480194086008466A
:102BF000FEF74FFB08B1FDF79EFF009400226946E7
:102C000005480194FEF724FB002801D0FDF793FF4F
:102C10001CBD000000740040240400201D4808B5BD
:102C2000016841F400110160016801F40011009194
:102C3000016841F4800101600068002200F4800016
:102C4000009005210B20FEF7DDFE0B20FEF7CCFEE9
:102C5000002205210C20FEF7D5FE0C20FEF7C4FE55
:102C6000002205213820FEF7CDFE3820FEF7BCFEFD
:102C7000002205213920FEF7C5FE3920FEF7B4FEFB
:102C8000002205213A20FEF7BDFEBDE808403A20AB
:102C9000FEF7AABE3038024010B53D4BCAB046AC74
:102CA0000FCB84E80F00002146A800F0A5FF394CA7
:102CB00037491C22A06210316846FDF712FB002143
:102CC000684600F0ACFF324920601C222C3107A876
:102CD000FDF707FB002107A800F0A1FF2C49606069
:102CE0001C2248310EA8FDF7FCFA00210EA800F0C6
:102CF00096FF2749A0601C22643115A8FDF7F1FA60
:102D0000002115A800F08BFF2149E0601C228031D2
:102D10001CA8FDF7E6FA00211CA800F080FF1C4962
:102D200020611C229C3123A8FDF7DBFA002123A897
:102D300000F075FF164960611C22B8312AA8FDF722
:102D4000D0FA00212AA800F06AFF1149A0611C22D4
:102D5000D43131A8FDF7C5FA002131A800F05FFF9A
:102D60000B49E0611C22F03138A8FDF7BAFA0021C6
:102D700038A800F054FF20621C2207493FA8FDF745
:102D8000B0FA00213FA800F04AFF60624AB010BDCF
:102D90008848000800000020944900082DE9F04709
:102DA00086B014216846FDF7B5FA30480024016862
:102DB00041F080010160016801F080010591016826
:102DC00041F001010160016801F001010591016814
:102DD00041F004010160016801F0040105910168FE
:102DE00041F002010160016801F0020105910168F2
:102DF00041F0080101600068DFF8748000F008000D
:102E00004FF498750590002229464046FEF768FD6C
:102E1000DFF860904FF44046002231464846FEF706
:102E20005FFDDFF854A04FF480770022394650460A
:102E3000FEF756FD00950125CDE90154694640464F
:102E40000394FEF771FC0096CDE9015469464846AB
:102E50000394FEF769FC0097CDE90154694650469A
:102E60000394FEF761FC06B0BDE8F08730380240FD
:102E70000008024000040240000002401FB500218B
:102E800010480091019102910D4A0391C0E900217F
:102E90004FF6FF72C0E9021201618161FFF7E8F8A5
:102EA00008B1FDF748FE4FF4805000906946054890
:102EB000FFF75BF9002801D0FDF73DFE1FBD0000C4
:102EC00000180040F805002010B586B0002417480F
:102ED0000094019402940394049413490594C0E966
:102EE00000144FF6FF71C0E902410461446184613E
:102EF000FFF7BEF808B1FDF71EFE4FF480500090BA
:102F000069460A48FFF731F908B1FDF714FE049449
:102F100004A906480594FFF763F8002801D0FDF7DF
:102F20000AFE06B010BD0000000001403804002079
:102F300010B58EB000240794089409940A940B9459
:102F40001C2168460C94FDF7E5F91D484FF08041BF
:102F50000160A721C0E901146321C0E90314846161
:102F6000FFF786F808B1FDF7E6FD4FF480500790B3
:102F700007A91348FFF7F9F808B1FDF7DCFD104881
:102F8000FFF76DFB08B1FDF7D6FD0B940BA90C48BC
:102F90000C94FFF725F808B1FDF7CDFD6020CDE9D1
:102FA000000402940022694605480494FFF7EFFAF2
:102FB00008B1FDF7C0FD0248FFF792FA0EB010BD50
:102FC0007804002010B58EB000240794089409946A
:102FD0000A940B941C2168460C94FDF79BF9224837
:102FE00020490160A721C0E9011440F2CF71C0E976
:102FF00003148461FFF73CF808B1FDF79CFD4FF422
:103000008050079007A91848FFF7AFF808B1FDF7FF
:1030100092FD1548FFF723FB08B1FDF78CFD0B94DB
:103020000BA911480C94FEF7DBFF08B1FDF783FDF7
:103030006020CDE900040294002269460A48049405
:10304000FFF7A5FA08B1FDF776FD0C2269460648A0
:10305000FFF79DFA08B1FDF76EFD0348FFF740FA50
:103060000EB010BD00040040B804002010B58CB0B4
:1030700024216846FDF74EF90024164809941449A6
:103080000A94C0E900144FF6FF71C0E902410461DF
:1030900084610320CDE900040120CDE9020405216B
:1030A0000491CDE90540CDE9074169460948FFF79C
:1030B000C7F808B1FDF73FFD099409A905480A942E
:1030C000FEF78EFF002801D0FDF735FD0CB010BDD6
:1030D00000080040F804002010B58CB02421684698
:1030E000FDF718F900241648099414490A94C0E918
:1030F0000014611EC0E90241046184610320CDE92E
:1031000000040120CDE9020405210491CDE9054028
:10311000CDE9074169460A48FFF792F808B1FDF783
:103120000AFD099409A906480A94FEF759FF0028E8
:1031300001D0FDF700FD0CB010BD0000000C0040F8
:103140003805002010B586B000241748009401947B
:1031500002940394049413490594C0E900144FF6B3
:10316000FF71C0E90241046144618461FEF780FFA0
:1031700008B1FDF7E0FC4FF48050009069460A4822
:10318000FEF7F3FF08B1FDF7D6FC049404A9064846
:103190000594FEF725FF002801D0FDF7CCFC06B012
:1031A00010BD000000040140780500201FB500217B
:1031B00010480091019102910D4A0391C0E900214C
:1031C0004FF6FF72C0E9021201618161FEF750FF04
:1031D00008B1FDF7B0FC4FF48050009069460548F7
:1031E000FEF7C3FF002801D0FDF7A5FC1FBD0000BE
:1031F00000400140B80500200C4810B50A490160A4
:103200004FF4E1314160002181600C22C160C0E9CE
:1032100004128161C161FFF7DBFA002803D0BDE829
:103220001040FDF788BC10BD00500040380600205B
:103230000D4810B50B4901600C49416000214FF465
:1032400080628160C0E903120C22C0E90521C161DE
:10325000FFF7BEFA002803D0BDE81040FDF76BBCB5
:1032600010BD00000010014078060020A08601007B
:103270000C4810B50A4901604FF4E131416000216A
:1032800081600C22C160C0E904128161C161FFF755
:103290009FFA002803D0BDE81040FDF74CBC10BDDC
:1032A00000480040B80600200D4810B50B490160E9
:1032B0004FF4E131416000214FF4C0628160C0E908
:1032C00003120C22C0E90521C161FFF781FA002831
:1032D00003D0BDE81040FDF72EBC10BD0014014026
:1032E000F8060020FEE7642000F07AFCFBE7FEE72A
:1032F000C82000F075FCFBE7012000F071FCFBE743
:1033000070B50C4691ED000A054600F12401FDF769
:1033100015FC84ED000A94ED010A05F12C0105F17C
:103320000C00FDF70BFC84ED010A94ED020A05F197
:10333000340105F11800FDF701FC84ED020A70BDAF
:1033400000487047F846002000487047C40000203D
:1033500010B52DED028BFDF725F99FED0C8A0A487B
:10336000B0EE480AFDF720FC0748B0EE480A1830D6
:10337000FDF71AFCB0EE480ABDEC028B0248BDE82E
:1033800010400C30FDF710BC04470020CDCCCC3DE4
:1033900070B5214C214DFDF767F8FDF73FF8204847
:1033A000204990ED000AD1ED000A20EE200A84EDBC
:1033B000010A90ED010AD1ED000A20EE200A84ED09
:1033C000020A90ED020AD1ED000A214604F10C0038
:1033D00020EE200A84ED000AFFF792FF1248F6EE75
:1033E000000A90ED000A124860EE200A94ED000AEF
:1033F00060EE800A20EE800ADFED0C0A85ED000AFF
:1034000020EE200AD0ED000A80EE201ABCEEC10AA0
:1034100010EE100A287170BDF8460020C40000208C
:10342000D8460020D0490008D84900080000C8420A
:10343000D4490008012000F0D3FBFBE7012000F095
:10344000CFFBFBE7FDF700FAFDF726F9642000F05B
:10345000C7FBF7E710B5502080F31188BFF34F8FFB
:10346000BFF36F8F01F010F918B104494FF080508D
:103470000860002080F3118810BD000004ED00E01A
:1034800030B593B030216846FCF744FF14210CA8F6
:10349000FCF740FF1D480025016841F080510160A4
:1034A000006800F0805011901948016841F4804193
:1034B00001600068022400F4804011900120009017
:1034C000000401908001CDE9064006200890A82064
:1034D000CDE9090404200B906846FEF7D1FB08B142
:1034E00072B6FEE70CA90F2081E831004FF4A0501E
:1034F0000F904FF48050109005210CA8FEF7B4FAFD
:10350000002801D072B6FEE713B030BD403802404B
:10351000007000400548016841F4700101600349F2
:103520004FF00060803908607047000088ED00E0CF
:103530000148FEF722BF0000B8080020F0B502687D
:10354000254C264D264E274F274B4FF0804CA0424E
:1035500009D0604507D0A84205D0B04203D0B84298
:1035600001D0984204D122F0700E4A6842EA0E025D
:10357000A0421BD0604519D0A84217D0B04215D048
:10358000B84213D0984211D0184DA8420ED0184D11
:10359000A8420BD0174DA84208D0174DA84205D01D
:1035A000164DA84202D0164DA84203D122F4407510
:1035B000CA682A434D6922F080022A4302608A6861
:1035C000C2620A688262A04201D0984201D10969B0
:1035D000016301214161F0BD000001400004004091
:1035E00000080040000C0040000401400040014081
:1035F000004401400048014000180040001C004009
:103600000020004010B5846842EA032224F47F447D
:103610000A432243826010BD826822F070020A438E
:1036200042F0070181607047F0B5026A22F00102A2
:103630000262036A42688469124E24F073050C68C2
:103640002C4323F002058B682B430D4DA84201D07B
:10365000B04205D123F00807CB683B4323F00403B5
:10366000A84201D0B04205D14D6922F44072154301
:103670008A692A4342608461496841630362F0BDFC
:103680000000014000040140F0B5026A22F010027F
:103690000262026A436884690D6824F4E64444EADD
:1036A00005248D6822F0200242EA05120F4D104ECB
:1036B000A84201D0B04206D1CF6822F0800242EA8F
:1036C000071222F04002A84201D0B04207D14D6952
:1036D00023F4406343EA85038D6943EA850343602D
:1036E0008461496881630262F0BD0000000001400E
:1036F00000040140F0B5026A22F480720262026A9C
:103700004368C46922F4007224F073050C68124EF9
:103710002C438D6842EA05220E4DA84201D0B042EA
:1037200006D1CF6822F4006242EA072222F48062C6
:10373000A84201D0B04207D14D6923F4405343EA77
:1037400005138D6943EA05134360C4614968C16389
:103750000262F0BD000001400004014030B5026A81
:1037600022F480520262046A4268C3690D6823F43D
:10377000E64343EA05238D6824F4005444EA053403
:10378000084DA84202D0084DA84204D14D6922F448
:10379000804242EA85124260C36149680164046262
:1037A00030BD0000000001400004014010B5036A74
:1037B000046A24F001040462846924F0F00444EAF9
:1037C000021423F00A020A438461026210BD10B59C
:1037D000036A23F0100303628369046A23F47043CD
:1037E00043EA023224F0A00343EA0111826101623C
:1037F00010BD000010B5044800F07DF9BDE8104090
:103800000148FEF75BBF00003806002010B5806B52
:103810000021C185C184FEF74AFF10BD0168CA6856
:1038200022F49072CA6001684A6922F001024A617A
:10383000202180F83A10704710B590F83A102229EC
:1038400001D0022010BD8168B1F5805F11D00169FF
:10385000002901681FD0496801F07F03816A4A1C72
:1038600082620B70C18D491E0904090CC18518D0F4
:103870002BE00269816A002A0268526805D0D2B240
:103880000A80816A491C8162ECE7C2F308020A805F
:10389000816A891CF7E74A68816A4B1C83620A7057
:1038A000E0E70168CA6822F02002CA600168CA68BD
:1038B00022F48072CA6001684A6922F001024A61FA
:1038C000202180F83A10FFF717F9002010BD000002
:1038D0002DE9F041044600680169E26821F4405195
:1038E000114301612169A068E269084361691143DC
:1038F00008432168CA6849F20C639A430243CA60CC
:1039000020684169A26921F4407111434161E06975
:10391000192764253226B0F5004F354A354920680D
:103920004FF0000806D0884201D0904236D1FEF711
:1039300065F935E0884201D0904202D1FEF75EF988
:1039400001E0FEF74BF961684A18A0FB070148EB5C
:103950000803FCF795FC0146B0FBF5F00201B1FB52
:10396000F5F06FF01803584301EB800006EBC00040
:10397000B0FBF5F000F0F80002EB4002B1FBF5F00F
:10398000584301EB800006EBC000B0FBF5F000F0FF
:103990000700216810448860BDE8F081FEF71EF939
:1039A00061688B0F8A00A0FB0701FCF769FC0146E8
:1039B000B0FBF5F06FF01802504301EB800006EB0E
:1039C0000010B0FBF5F000F0F002B1FBF5F002EBF7
:1039D0000012B1FBF5F06FF01803584301EB8000C3
:1039E00006EB0010B0FBF5F000F00F00D1E700008F
:1039F000001401400010014090F83910212901D035
:103A0000022070478168B1F5805F016A0BD04A1CC3
:103A10000262026809785160C18C491E0904090CD0
:103A2000C1840ED017E009880268C1F30801516013
:103A300001690029016A02D0491C0162ECE7891C76
:103A4000FBE70168CA6822F08002CA600068C168AA
:103A500041F04001C16000207047000010B50448EB
:103A600000F049F8BDE810400148FEF727BE00000D
:103A70007806002010B5044800F03DF8BDE810407D
:103A80000148FEF71BBE0000B806002010B5044830
:103A900000F031F8BDE810400148FEF70FBE00000D
:103AA000F8060020406880B2704708B500680168D9
:103AB00041680091C16841F01001C16008BD70B556
:103AC000044690F83A00202814D1002912D0002A88
:103AD00010D0A162A2850020E063134620680A4648
:103AE000656B011D2846FDF7B3FD2068416941F073
:103AF0004001416170BD016882B00A68D20608D5F4
:103B0000CA68D20605D50A684968009102B000F07B
:103B100003B802B07047000003490968884201D128
:103B2000FCF790BD70470000CC000020FEF7E5BF19
:103B3000FEE77047FFF7FDFF012000F051F8F9E7BD
:103B40000907090E002804DB00F1E02080F80014CA
:103B5000704700F00F0000F1E02080F8141D70475E
:103B600002E008C8121F08C1002AFAD17047704746
:103B7000002001E001C1121F002AFBD17047FDF7B0
:103B8000C3FEFFF77DFCFFF709F9FFF747F8FEF7E3
:103B9000E1FFFFF725F8FFF72FFBFFF749FBFFF7E2
:103BA00067FBFFF781FBFFF7C3F9FFF70BFAFFF79E
:103BB0005DFAFFF791FAFFF787F9FFF7C3FAFFF70E
:103BC000F5FAFFF75BF9FEF7B9FFFFF765F800F0CC
:103BD0000EF8FEE701460020842900D0C81C70477B
:103BE00010B500B9012000F04FFB002010BD10B54A
:103BF00000F070FB002010BD38B5D0E90112046858
:103C00003AB1C3682BB100200090204600F06CFC54
:103C100038BD2046BDE83840002200F041BC7FB5E9
:103C20000D4604464169B0F9080081B1A16971B13E
:103C3000FFF7D0FFD4E905128DE80700D4E90010A2
:103C40002B46226900F0F5FC039004B070BDFFF72D
:103C5000C1FF03A9CDE90001208A2B4682B2D4E935
:103C6000001000F0B9FC012801D00020EDE7039816
:103C7000EBE700002DE9F0411A4C0F460546666956
:103C80002168002081F852002068001D00F038FAF9
:103C900038B9206890F82C1001208840A169814330
:103CA000A161681C07D137B12168BDE8F0410E4819
:103CB000091D00F069BA20683544B54245602168A5
:103CC00005D2A068BDE8F041091D00F045BA606862
:103CD000091D00F041FA206B854200D22563BDE842
:103CE000F08100003C000020D40900202DE9F041C3
:103CF000054600F055FA2E4C2069401C20612068D2
:103D00002C4F10B1E06940B32DE0256020690128F7
:103D100029D1002606EB860007EB800000F00EFAA2
:103D2000761C072EF6D323488C3000F007FA214882
:103D3000A03000F003FA1F48B43000F0FFF91D482E
:103D4000C83000F0FBF91B48DC3000F0F7F91948E7
:103D50008C3060601430A06005E02068E96AC06AB9
:103D6000884200D82560E06A401CE062E96A0120D0
:103D7000A26988401043A06101EB810007EB80003D
:103D8000291D00F001FA00F02BFAE06900280CD0A0
:103D90002068E96AC06A884207D207494FF080501C
:103DA0000860BFF34F8FBFF36F8FBDE8F081000055
:103DB0003C000020F808002004ED00E010B50446A7
:103DC00090F8510058B101280CD002280FD0502093
:103DD00080F31188BFF34F8FBFF36F8FFEE7206B27
:103DE00000F012FA2046BDE8104000F00DBA10BDF8
:103DF00010484FF47051420706D0C01D0D4920F005
:103E00000700411AC1F570510B4A00230144C2E971
:103E100000030839103A21F0070111604B600B6074
:103E20000B1AC0E9001393604FF000405360D0605C
:103E300070470000E809002088000020144E154C4F
:103E4000A6F1C8074FF08058DFF84C9012E000BF91
:103E500000F0A6F9F068C568281D00F051F9206946
:103E6000401E2061E068401EE06000F0B9F928467D
:103E7000FFF7A4FFE0680028EAD138680128F9D9E3
:103E8000C9F80080BFF34F8FBFF36F8FF2E70000D8
:103E9000C00900203C00002004ED00E0034600982B
:103EA00029B10260C0E90F31012100F051BB00606F
:103EB000F8E700002DE9F05F8846DDE90B94154630
:103EC000834691009A460A9EA522206BFCF71BFAB6
:103ED0006FF00301206B01EB8501084420F0070718
:103EE000780707D0502080F31188BFF34F8FBFF3BE
:103EF0006F8FFEE70025B8F1000F0FD05FF00000D4
:103F0000221818F8001082F8341018F8001011B1B7
:103F1000401C1028F4D384F8435001E084F8345056
:103F2000072E00D30626E662C4E91165201D00F0C5
:103F300010F904F1180000F00CF92461C6F1070033
:103F40006462A061E56484F8505084F8525052468F
:103F50005946384600F0BEF82060B9F1000F01D094
:103F6000C9F80040BDE8F09F30B5114900E01146A6
:103F70000A688242FBD34B685C18844203D14068D4
:103F800018444860084643681C18944209D1084CFC
:103F9000103C2468A24209D052681A4442600A6860
:103FA00012680260814200D0086030BD0460F9E709
:103FB0008800002006484168096829B14168C9683D
:103FC000C9684968016370474FF0FF31FAE70000A4
:103FD0003C00002008484068401C4FF0500080F32F
:103FE000118804D0BFF34F8FBFF36F8FFEE7BFF38D
:103FF0004F8FBFF36F8FFEE7900000202DE9F04157
:104000000546002700F09CF9314E306808B9FFF7EB
:10401000EFFEF06805424BD1C5B3083568070ED0F6
:1040200005F00700C0F108000544680707D05020DC
:1040300080F31188BFF34F8FBFF36F8FFEE72DB36F
:104040007068854234D82248103001460C6801E07F
:1040500020460C466168A94202D221680029F7D1A6
:1040600031688C4224D00768216801606068083795
:10407000411B10290FD96019420708D0502080F346
:104080001188BFF34F8FBFF36F8FFEE710E04160E1
:104090006560FFF769FF61687068401A7060B26818
:1040A000904200D2B060F06801430020C4E90001F2
:1040B00000F088FB780707D0502080F31188BFF309
:1040C0004F8FBFF36F8FFEE73846BDE8F0810000E9
:1040D0007800002010B5031F4FF080741C601B1F78
:1040E00021F001011960191F044B0B6014390A609B
:1040F000091F6FF0020244380A6010BDD53F000866
:10410000D0E9013201699A60D0E901235A604A6816
:10411000824201D182684A60002202610868401E22
:104120000860086870470000034B036003F1540007
:104130000860802010607047D800002000F108015E
:104140004FF0FF32C0E90112C1600161002101603E
:10415000704700210161704730B50B685A1C02D0CE
:1041600000F1080202E0026904E022465468256872
:104170009D42FAD953684B6099608A60516008612A
:104180000168491C016030BD42684A6093688B60D9
:1041900093685960916008610168491C016070472B
:1041A000502080F31188BFF34F8FBFF36F8F0A4900
:1041B0004868401C486001280CD10848006810F08D
:1041C000FF0F07D0502080F31188BFF34F8FBFF34C
:1041D0006F8FFEE7704700009000002004ED00E0C4
:1041E0000849486828B1401E486001D180F3118811
:1041F0007047502080F31188BFF34F8FBFF36F8F4C
:10420000FEE700009000002070B5002827D0144D74
:10421000A0F108046168E868014207D1502080F3EA
:104220001188BFF34F8FBFF36F8FFEE722683AB15B
:10423000502080F31188BFF34F8FBFF36F8FFEE7DD
:104240008143616000F07CF86068696808446860D8
:104250002046FFF789FEBDE8704000F0B3BA70BD9C
:10426000780000204FF0E0200021016181610549C4
:104270004FF47A720968B1FBF2F1491E41610721DE
:10428000016170473800002010B5020014D00F48BB
:10429000806B38B1502080F31188BFF34F8FBFF38C
:1042A0006F8FFEE700F04CF800211046FFF7E2FCAC
:1042B00000F088FA002807D105494FF080500860C7
:1042C000BFF34F8FBFF36F8F10BD00003C00002085
:1042D00004ED00E010B586B00024039405AA04A9FB
:1042E00003A80494FFF720FFDDE903010094CDE962
:1042F000011000230EA11048059A00F09AF90F4909
:104300000028486311D0502080F31188BFF34F8FED
:10431000BFF36F8F4FF0FF3008630120C8614C611D
:1043200006B0BDE8104000F041B806B010BD000076
:1043300049444C45000000003D3E00083C00002080
:104340000248816B491C8163704700003C000020DB
:104350001448816B11B10121416270470021416213
:104360008169B1FA81F1C1F11F0101EB81020E49AE
:1043700051F822306BB101EB820101F108034A6868
:1043800052684A609A4201D152684A60D16801601D
:104390007047502080F31188BFF34F8FBFF36F8FAA
:1043A000FEE700003C000020F80800201CB537485C
:1043B0000168374A914207D1502080F31188BFF33A
:1043C0004F8FBFF36F8FFEE700683149491E884267
:1043D00007D1502080F31188BFF34F8FBFF36F8F49
:1043E000FEE72C4908780190FF20087008788DF8C6
:1043F00000009DF800009DF8002000F0F0009042C1
:1044000007D0502080F31188BFF34F8FBFF36F8F19
:10441000FEE79DF80000204B00F0500018700720C8
:10442000986005E09DF8002052008DF80020401EA5
:104430009DF800201206F5D49860032807D050207C
:1044400080F31188BFF34F8FBFF36F8FFEE74FF4F8
:1044500040709860019808700C482030016841F461
:1044600070010160016841F070410160FFF7FAFEE0
:1044700000205860FBF7B6FE0848016841F0404153
:104480000160FBF79BFE00201CBD000000ED00E07A
:1044900071C20F4100E400E09000002034EF00E022
:1044A000F8B517460E46050014D0DEB105FB06F040
:1044B0004830FFF7A3FD04000AD0002084F846002E
:1044C00004F148023B46314628460094FFF7E6FCDB
:1044D0002046F8BD502080F31188BFF34F8FBFF303
:1044E0006F8FFEE70020E3E738B5049D18B153B1A4
:1044F000CAB181B120E0502080F31188BFF34F8F03
:10450000BFF36F8FFEE7502080F31188BFF34F8F0A
:10451000BFF36F8FFEE7502080F31188BFF34F8FFA
:10452000BFF36F8FFEE739B1502080F31188BFF3DE
:104530004F8FBFF36F8FFEE748241C46012384F89A
:1045400046302B460094FFF7A9FC204638BD0000FA
:1045500070B50D46040025D0FFF722FED4E90F20E8
:10456000216802FB0011A1600021A1632168616044
:104570000A46D4E90F01401E00FB0121E1602146FB
:104580004FF0FF3001F8440F487004F110008DB176
:10459000FFF7D4FD04F12400FFF7D0FDFFF720FE64
:1045A000012070BD502080F31188BFF34F8FBFF3FF
:1045B0006F8FFEE721690029F0D000F0C9F80028CC
:1045C000ECD004494FF080500860BFF34F8FBFF329
:1045D0006F8FE3E704ED00E02DE9FF5F8346DDE93F
:1045E0000E87994616468A469000FFF707FD05009C
:1045F0001CD05420FFF702FD040014D000202563D6
:1046000084F85100CDE90240CDE900874B4632469F
:1046100051465846FFF74EFC2046FFF767FB012046
:1046200004B0BDE8F09F2846FFF7EEFD4FF0FF30E5
:10463000F6E7F0B585B0DDE90B640A9DA6B1DCB103
:10464000542700972663022684F85160002604AFA1
:10465000CDE90246CDE90057FFF72CFC2046FFF7D5
:1046600045FB049805B0F0BD502080F31188BFF3DE
:104670004F8FBFF36F8FFEE7502080F31188BFF399
:104680004F8FBFF36F8FFEE72DE9F0412E4C0027CF
:10469000A06B40B1206A401C2062606A00B1012713
:1046A0003846BDE8F0816669761C666113D16068A2
:1046B000006838B1502080F31188BFF34F8FBFF3EB
:1046C0006F8FFEE76068A1686160A060A06A401C0F
:1046D000A062FFF76FFC206BDFF87080864209D381
:1046E0006068006880B16068C068C56868688642B4
:1046F0000DD220632068C06A00EB800158F82100C9
:104700000128CAD90127C8E74FF0FF30F1E7281D7B
:10471000FFF7F6FCA86A18B105F11800FFF7F0FCE6
:10472000E86A0121A26981401143A16100EB800187
:1047300008EB8100291DFFF727FDE86A2168C96A97
:104740008842CDD30127CBE73C000020F8080020A9
:104750002DE9F041C068C468ACB104F11800074607
:10476000FFF7CEFC154DA86B0126A0B139461448C1
:10477000FFF70AFDE06A2968C96A88421CD901204E
:104780006E62BDE8F081502080F31188BFF34F8F37
:10479000BFF36F8FFEE7201DFFF7B2FCE16AAA6945
:1047A00006FA01F01043A86101EB81000449B43915
:1047B00001EB8000211DDBE70020E2E73C00002048
:1047C000AC0900202DE9F0472C4D00242746A86BAA
:1047D00038B1FFF7E5FCA86B401EA863A86B40B199
:1047E00046E0502080F31188BFF34F8FBFF36F8FE7
:1047F000FEE72969224E0120D1B3A6F1B409804613
:104800003068E8B1F068C46804F11800FFF778FC7C
:10481000201DFFF775FCE06AAA6908FA00F1114350
:10482000A96100EB800109EB8100211DFFF7ACFCC1
:10483000E06A2968C96A8842E2D3C5F82480DFE7C4
:104840000CB1FFF7B7FB2C6A44B14646FFF71CFFDB
:1048500000B16E62641EF9D100202862686A38B126
:104860000849012738070860BFF34F8FBFF36F8FE8
:10487000FFF7B6FC3846BDE8F08700003C0000209A
:10488000AC09002004ED00E01E0000000100000063
:104890000000000000000000184A00083D34000835
:1048A0000000000000000000800000000000000088
:1048B00000000000244A0008C30B000800000000AC
:1048C0000000000080000000000000000000000068
:1048D0002C4A0008B9050008000000000000000094
:1048E000800000000000000000000000044A0008F2
:1048F000F932000800000000000000008000000005
:104900000000000000000000404A0008990900086B
:104910000000000000000000800000000000000017
:1049200000000000344A0008453400080000000080
:1049300000000000800000000000000000000000F7
:10494000484A00083534000800000000000000005C
:10495000800000000000000000000000F449000892
:10496000E7320008000000000000000080000000A6
:104970000000000000000000FC490008F1320008BF
:1049800000000000000000008000000000000000A7
:10499000000000000C4A0008353B00080000000041
:1049A0000000000080000000000000000000000087
:1049B000000610160006101600000000000000009F
:1049C00001020304060708090000000001020304B5
:1049D000000030410000FA440000C0400000A04147
:1049E0006F12833B00003041000080413132414270
:1049F000515253004D696E6950430000526566651F
:104A00007265650052656D6F74650000576174636F
:104A100068446F670000000064656661756C7454DB
:104A200061736B0047696D62616C0000427573438E
:104A30006F6D6D005375706572436170000000000A
:104A4000436861737369730053686F6F740000008B
:104A5000704A000800000020D8000000603B0008F9
:104A6000484B0008D8000020084C0000703B0008AC
:104A70000000000000000000000000000000000036
:104A80000000000000000000000000000000000026
:104A90000000000000000000000000000100000015
:104AA00010000000000000000024F40000000000DE
:104AB00000000000000000000000000000000000F6
:104AC00000000000000000000000000000000000E6
:104AD00000000000000000000000000000000000D6
:104AE00000000000000000000000000000000000C6
:104AF00000000000000000000000000000000000B6
:104B000000000000AAAAAAAA0000000000080240B3
:104B100010000000000802402000000000040240D5
:104B2000004000009C000020A4000020AC000020F9
:104B300024040020000000000000000038060020CF
:084B400000000000000000006D
:040000050800018965
:00000001FF
